:020000040800F2
:1000000000F00020CD59020811B2000869B20008C2
:10001000C1B2000819B3000871B300080000000065
:10002000400803080000000000000000F18D0008F7
:10003000C9B3000800000000918E0008CBB300088F
:100040001D5A02081D5A02081D5A02081D5A0208AC
:100050001D5A02081D5A02081D5A02081D5A02089C
:100060001D5A02081D5A02081D5A0208D9B3000879
:10007000E9B30008F9B300081D5A02081D5A020826
:100080001D5A020809B400081D5A020819B40008D4
:1000900029B4000839B4000849B400081D5A020800
:1000A0001D5A02081D5A02081D5A02081D5A02084C
:1000B0001D5A02081D5A02081D5A02081D5A02083C
:1000C0001D5A02081D5A02081D5A02081D5A02082C
:1000D0001D5A02081D5A020859B4000871B40008DC
:1000E0001D5A02081D5A02081D5A0208000000008D
:1000F0000000000000000000000000000000000000
:100100001D5A020800000000000000001D5A0208ED
:100110001D5A02081D5A02081D5A0208000000005C
:100120001D5A02081D5A02081D5A02081D5A0208CB
:100130001D5A02080000000000000000000000003E
:100140001D5A02081D5A02080000000000000000AD
:10015000000000000000000000000000000000009F
:100160001D5A02081D5A02081D5A02081D5A02088B
:100170001D5A02081D5A02081D5A02081D5A02087B
:100180001D5A02081D5A020800000000000000006D
:040190001D5A0208EA
:1001A00010B5054C237833B9044B13B10448AFF3B1
:1001B00000800123237010BDFC0700200000000018
:1001C000F478020808B5034B1BB103490348AFF3A9
:1001D000008008BD0000000000080020F47802083C
:1001E00010F8012B11F8013B012A28BF9A42F7D0E1
:1001F000D01A7047034613F8012B002AFBD1181AB6
:1002000001387047000000000000000000000000FE
:1002100001F0FF01102A2BDB10F0070F08D010F8B7
:10022000013B013A8B422DD010F0070F42B3F6D1BB
:10023000F0B441EA012141EA014122F007047FF0D4
:1002400000070023F0E80256083C85EA010586EA2B
:10025000010685FA47F5A3FA87F586FA47F6A5FA67
:1002600087F68EB9EED1F0BC01F0FF0102F0070273
:1002700032B110F8013B013A83EA010313B1F8D11E
:100280000020704701387047002D06BF35460338FF
:10029000073815F0010F07D1013015F4807F02BF38
:1002A000013015F4C03F0130F0BC0138704700BF89
:1002B00081F0004102E000BF83F0004330B54FEA17
:1002C00041044FEA430594EA050F08BF90EA020F84
:1002D0001FBF54EA000C55EA020C7FEA645C7FEA17
:1002E000655C00F0E2804FEA5454D4EB5555B8BF3A
:1002F0006D420CDD2C4480EA020281EA030382EAAB
:10030000000083EA010180EA020281EA0303362D3C
:1003100088BF30BD11F0004F4FEA01314FF4801C0F
:100320004CEA113102D0404261EB410113F0004F21
:100330004FEA03334CEA133302D0524263EB4303D8
:1003400094EA050F00F0A780A4F10104D5F1200E76
:100350000DDB02FA0EFC22FA05F2801841F10001D1
:1003600003FA0EF2801843FA05F359410EE0A5F1A5
:1003700020050EF1200E012A03FA0EFC28BF4CF0D6
:10038000020C43FA05F3C01851EBE37101F000458C
:1003900007D54FF0000EDCF1000C7EEB00006EEB99
:1003A0000101B1F5801F1BD3B1F5001F0CD3490823
:1003B0005FEA30004FEA3C0C04F101044FEA44527A
:1003C00012F5800F80F09A80BCF1004F08BF5FEA01
:1003D000500C50F1000041EB045141EA050130BDE1
:1003E0005FEA4C0C404141EB010111F4801FA4F184
:1003F0000104E9D191F0000F04BF01460020B1FAD9
:1004000081F308BF2033A3F10B03B3F120020CDA10
:100410000C3208DD02F1140CC2F10C0201FA0CF0EE
:1004200021FA02F10CE002F11402D8BFC2F1200C53
:1004300001FA02F120FA0CFCDCBF41EA0C01904009
:10044000E41AA2BF01EB0451294330BD6FEA040452
:100450001F3C1CDA0C340EDC04F11404C4F120023D
:1004600020FA04F001FA02F340EA030021FA04F34F
:1004700045EA030130BDC4F10C04C4F1200220FAA6
:1004800002F001FA04F340EA0300294630BD21FAE4
:1004900004F0294630BD94F0000F83F4801306BFAA
:1004A00081F480110134013D4EE77FEA645C18BF9E
:1004B0007FEA655C29D094EA050F08BF90EA020F35
:1004C00005D054EA000C04BF1946104630BD91EA2D
:1004D000030F1EBF0021002030BD5FEA545C05D130
:1004E0004000494128BF41F0004130BD14F580046F
:1004F0003CBF01F5801130BD01F0004545F0FE41E3
:1005000041F470014FF0000030BD7FEA645C1ABF17
:10051000194610467FEA655C1CBF0B46024650EA4E
:10052000013406BF52EA033591EA030F41F400217A
:1005300030BD00BF90F0000F04BF0021704730B500
:100540004FF4806404F132044FF000054FF00001D5
:1005500050E700BF90F0000F04BF0021704730B596
:100560004FF4806404F1320410F0004548BF40426B
:100570004FF000013EE700BF42004FEAE2014FEAC0
:1005800031014FEA02701FBF12F07F4393F07F4F9B
:1005900081F06051704792F0000F14BF93F07F4FCD
:1005A000704730B54FF4607401F0004521F0004110
:1005B00020E700BF50EA010208BF704730B54FF096
:1005C00000050AE050EA010208BF704730B511F09B
:1005D000004502D5404261EB41014FF4806404F1D3
:1005E00032045FEA915C3FF4DCAE4FF003025FEA55
:1005F000DC0C18BF03325FEADC0C18BF033202EBDD
:10060000DC02C2F1200300FA03FC20FA02F001FA36
:1006100003FE40EA0E0021FA02F11444C1E600BFD5
:1006200070B54FF0FF0C4CF4E06C1CEA11541DBF88
:100630001CEA135594EA0C0F95EA0C0F00F0DEF853
:100640002C4481EA030621EA4C5123EA4C5350EA38
:10065000013518BF52EA033541F4801143F4801389
:1006600038D0A0FB02CE4FF00005E1FB02E506F01A
:100670000042E0FB03E54FF00006E1FB03569CF06F
:10068000000F18BF4EF0010EA4F1FF04B6F5007F75
:1006900064F5407404D25FEA4E0E6D4146EB0606E7
:1006A00042EAC62141EA55514FEAC52040EA5E5070
:1006B0004FEACE2EB4F1FD0C88BFBCF5E06F1ED81A
:1006C000BEF1004F08BF5FEA500E50F1000041EB51
:1006D000045170BD06F0004646EA010140EA0200FE
:1006E00081EA0301B4EB5C04C2BFD4EB0C0541EA20
:1006F000045170BD41F480114FF0000E013C00F335
:10070000AB8014F1360FDEBF002001F0004170BD58
:10071000C4F10004203C35DA0C341BDC04F1140471
:10072000C4F1200500FA05F320FA04F001FA05F2FD
:1007300040EA020001F0004221F0004110EBD370CA
:1007400021FA04F642EB06015EEA430E08BF20EAF6
:10075000D37070BDC4F10C04C4F1200500FA04F399
:1007600020FA05F001FA04F240EA020001F000412B
:1007700010EBD37041F100015EEA430E08BF20EA9E
:10078000D37070BDC4F1200500FA05F24EEA020EE6
:1007900020FA04F301FA05F243EA020321FA04F015
:1007A00001F0004121FA04F220EA020000EBD370CC
:1007B0005EEA430E08BF20EAD37070BD94F0000FCC
:1007C0000FD101F00046400041EB010111F4801F00
:1007D00008BF013CF7D041EA060195F0000F18BFB1
:1007E000704703F00046520043EB030313F4801FED
:1007F00008BF013DF7D043EA0603704794EA0C0FA7
:100800000CEA135518BF95EA0C0F0CD050EA4106BC
:1008100018BF52EA4306D1D181EA030101F0004139
:100820004FF0000070BD50EA410606BF1046194661
:1008300052EA430619D094EA0C0F02D150EA01366D
:1008400013D195EA0C0F05D152EA03361CBF1046AE
:1008500019460AD181EA030101F0004141F0FE414D
:1008600041F470014FF0000070BD41F0FE4141F4D1
:10087000780170BD70B54FF0FF0C4CF4E06C1CEAD1
:1008800011541DBF1CEA135594EA0C0F95EA0C0F86
:1008900000F0A7F8A4EB050481EA030E52EA033541
:1008A0004FEA013100F088804FEA03334FF0805562
:1008B00045EA131343EA12634FEA022245EA11158F
:1008C00045EA10654FEA00260EF000419D4208BF40
:1008D000964244F1FD0404F5407402D25B084FEAED
:1008E0003202B61A65EB03055B084FEA32024FF499
:1008F00080104FF4002CB6EB020E75EB030E22BFF6
:10090000B61A754640EA0C005B084FEA3202B6EBB5
:10091000020E75EB030E22BFB61A754640EA5C0064
:100920005B084FEA3202B6EB020E75EB030E22BFF4
:10093000B61A754640EA9C005B084FEA3202B6EBF5
:10094000020E75EB030E22BFB61A754640EADC00B4
:1009500055EA060E18D04FEA051545EA16754FEA16
:1009600006164FEAC30343EA52734FEAC2025FEA34
:100970001C1CC0D111F4801F0BD141EA00014FF0C3
:1009800000004FF0004CB6E711F4801F04BF014394
:100990000020B4F1FD0C88BFBCF5E06F3FF6AFAEB0
:1009A000B5EB030C04BFB6EB020C5FEA500C50F140
:1009B000000041EB045170BD0EF0004E4EEA1131C3
:1009C00014EB5C04C2BFD4EB0C0541EA045170BDCA
:1009D00041F480114FF0000E013C90E645EA060E0E
:1009E0008DE60CEA135594EA0C0F08BF95EA0C0F3C
:1009F0003FF43BAF94EA0C0F0AD150EA01347FF484
:100A000034AF95EA0C0F7FF425AF104619462CE75A
:100A100095EA0C0F06D152EA03353FF4FDAE1046BD
:100A2000194622E750EA410618BF52EA43067FF40E
:100A3000C5AE50EA41047FF40DAF52EA43057FF49E
:100A4000EBAE12E74FF0FF3C06E000BF4FF0010CA9
:100A500002E000BF4FF0010C4DF804CD4FEA410C0D
:100A60007FEA6C5C4FEA430C18BF7FEA6C5C1BD0DA
:100A700001B050EA410C0CBF52EA430C91EA030F5B
:100A800002BF90EA020F0020704710F1000F91EAB8
:100A9000030F58BF994208BF90422CBFD8176FEA86
:100AA000E37040F0010070474FEA410C7FEA6C5C54
:100AB00002D150EA013C07D14FEA430C7FEA6C5C5B
:100AC000D6D152EA033CD3D05DF8040B704700BF87
:100AD0008446104662468C461946634600E000BFD5
:100AE00001B5FFF7B7FF002848BF10F1000F01BDA7
:100AF0004DF808EDFFF7F4FF0CBF012000205DF872
:100B000008FB00BF4DF808EDFFF7EAFF34BF0120F6
:100B100000205DF808FB00BF4DF808EDFFF7E0FF8F
:100B200094BF012000205DF808FB00BF4DF808EDE0
:100B3000FFF7CEFF94BF012000205DF808FB00BF47
:100B40004DF808EDFFF7C4FF34BF012000205DF829
:100B500008FB00BF4FEA410C7FEA6C5C02D150EA0F
:100B6000013C0AD14FEA430C7FEA6C5C02D152EAA5
:100B7000033C02D14FF0000070474FF00100704776
:100B80004FEA410212F5001215D211D56FF47873B5
:100B9000B3EB625212D94FEAC12343F0004343EA58
:100BA000505311F0004F23FA02F018BF4042704733
:100BB0004FF00000704750EA013005D111F00040BD
:100BC00008BF6FF0004070474FF00000704700BF53
:100BD0004A0011D212F5001211D20DD56FF47873BC
:100BE000B3EB62520ED44FEAC12343F0004343EA11
:100BF000505323FA02F070474FF00000704750EA5C
:100C0000013002D14FF0FF3070474FF000007047C5
:100C10004FEA4102B2F1E04324BFB3F5001CDCF11E
:100C2000FE5C0DD901F0004C4FEAC0024CEA507056
:100C3000B2F1004F40EB830008BF20F00100704785
:100C400011F0804F21D113F13872BCBF01F0004088
:100C5000704741F480114FEA5252C2F11802C2F1BA
:100C6000200C10FA0CF320FA02F018BF40F001003B
:100C70004FEAC1234FEAD32303FA0CFC40EA0C00ED
:100C800023FA02F34FEA4303CCE77FEA625307D12A
:100C900050EA01331EBF4FF0FE4040F44000704761
:100CA00001F0004040F0FE4040F40000704700BFFB
:100CB00080F0004002E000BF81F0004142001FBF11
:100CC0005FEA410392EA030F7FEA226C7FEA236C1A
:100CD0006AD04FEA1262D2EB1363C1BFD21841400F
:100CE00048404140B8BF5B42192B88BF704710F0A5
:100CF000004F40F4000020F07F4018BF404211F048
:100D0000004F41F4000121F07F4118BF494292EAAF
:100D1000030F3FD0A2F1010241FA03FC10EB0C00DB
:100D2000C3F1200301FA03F100F0004302D5494268
:100D300060EB4000B0F5000F13D3B0F1807F06D315
:100D400040084FEA310102F10102FE2A51D2B1F10D
:100D5000004F40EBC25008BF20F0010040EA030002
:100D60007047490040EB000010F4000FA2F10102AF
:100D7000EDD1B0FA80FCACF1080CB2EB0C0200FA39
:100D80000CF0AABF00EBC25052421843BCBFD04087
:100D90001843704792F0000F81F4000106BF80F401
:100DA00000000132013BB5E74FEA41037FEA226CC4
:100DB00018BF7FEA236C21D092EA030F04D092F08F
:100DC000000F08BF0846704790EA010F1CBF0020C3
:100DD000704712F07F4F04D1400028BF40F0004020
:100DE000704712F100723CBF00F50000704700F040
:100DF000004343F0FE4040F4000070477FEA226267
:100E000016BF08467FEA23630146420206BF5FEA37
:100E1000412390EA010F40F4800070474FF0000337
:100E200004E000BF10F0004348BF40425FEA000CFE
:100E300008BF704743F0964301464FF000001CE0A6
:100E400050EA010208BF70474FF000030AE000BFFC
:100E500050EA010208BF704711F0004302D540423A
:100E600061EB41015FEA010C02BF844601460020AC
:100E700043F0B64308BFA3F18053A3F50003BCFAC7
:100E80008CF2083AA3EBC25310DB01FA02FC634474
:100E900000FA02FCC2F12002BCF1004F20FA02F27B
:100EA00043EB020008BF20F00100704702F120026E
:100EB00001FA02FCC2F1200250EA4C0021FA02F2CF
:100EC00043EB020008BF20EADC707047002800F006
:100ED000F68308B5B0F59E7F80F0F083831E142B57
:100EE00000F2EC83DFE813F0A3001A025F02A40211
:100EF000E902FA027A03EA03EA03EA03EA03EA03ED
:100F0000EA03EA03EA03EA03EA03EA03EA03EA0379
:100F10001500D74BB3F95232013B042B00F2CE83BC
:100F2000DFE803F0031D37516B00B2EE000A3120F9
:100F300018F0E4FBB2EE040A342018F0DFFBB1EE47
:100F4000000A352018F0DAFBB2EE0C0A442018F043
:100F5000D5FB9FEDC80A452018F0D0FB08BD9FEDDA
:100F6000C50A312018F0CAFBB1EE000A342018F08F
:100F7000C5FBB9EE000A352018F0C0FBB2EE000A3E
:100F8000442018F0BBFBB9EE040A452018F0B6FB6C
:100F900008BDB8EE000A312018F0B0FBB0EE000A30
:100FA000342018F0ABFBB9EE080A352018F0A6FB88
:100FB000B2EE000A442018F0A1FBB9EE040A452065
:100FC00018F09CFB08BDBBEE040A312018F096FB1C
:100FD000BBEE000A342018F091FBBBEE080A352066
:100FE00018F08CFBBAEE0E0A442018F087FBBBEE1B
:100FF0000E0A452018F082FB08BDBBEE080A31201E
:1010000018F07CFBBBEE040A342018F077FBBBEE33
:101010000C0A352018F072FBBAEE0E0A442018F0C4
:101020006DFBBBEE0E0A452018F068FB08BD904B27
:10103000B3F93032013B082B00F24083DFE813F0B4
:10104000090057007C00A1002E00C600EF001C0123
:10105000450109211A2018F0ABF906211B2018F0D0
:10106000A7F902211C2018F0A3F904211D2018F073
:101070009FF92021212018F09BF92121222018F02E
:1010800097F92221232018F093F90021242018F049
:101090008FF90021202018F08BF908BD01211A20BA
:1010A00018F086F909211B2018F082F902211C2072
:1010B00018F07EF904211D2018F07AF91E21202055
:1010C00018F076F91F21212018F072F92021222032
:1010D00018F06EF92121232018F06AF9222124202A
:1010E00018F066F90021072018F062F908BD0921FF
:1010F0001A2018F05DF907211B2018F059F9022178
:101100001C2018F055F904211D2018F051F9202158
:10111000212018F04DF92121222018F049F922212F
:10112000232018F045F90021242018F041F900216E
:10113000202018F03DF908BD09211A2018F038F9CF
:1011400005211B2018F034F902211C2018F030F979
:1011500004211D2018F02CF92021212018F028F955
:101160002121222018F024F92221232018F020F92F
:101170000021242018F01CF90021202018F018F973
:1011800008BD09211A2018F013F92021212018F098
:101190000FF92121222018F00BF92221232018F029
:1011A00007F90021242018F003F900211B2018F072
:1011B000FFF800211C2018F0FBF800211D2018F07A
:1011C000F7F80021202018F0F3F808BD01211A20BB
:1011D00018F0EEF806211B2018F0EAF802211C2076
:1011E00018F0E6F804211D2018F0E2F81E21202056
:1011F00018F0DEF81F21212018F0DAF82021222033
:1012000018F0D6F82121232018F0D2F8222124202A
:1012100018F0CEF80021072018F0CAF808BD012107
:101220001A2018F0C5F807211B2018F0C1F8022178
:101230001C2018F0BDF804211D2018F0B9F81E215B
:10124000202018F0B5F81F21212018F0B1F8202136
:10125000222018F0ADF82121232018F0A9F822212E
:10126000242018F0A5F80021072018F0A1F808BDE7
:10127000400000200000000001211A2018F098F81A
:1012800005211B2018F094F802211C2018F090F87A
:1012900004211D2018F08CF81E21202018F088F859
:1012A0001F21212018F084F82021222018F080F836
:1012B0002121232018F07CF82221242018F078F82E
:1012C0000021072018F074F808BD01211A2018F039
:1012D0006FF81E21202018F06BF81F21212018F034
:1012E00067F82021222018F063F82121232018F02C
:1012F0005FF82221242018F05BF80021072018F065
:1013000057F800211B2018F053F800211C2018F07A
:101310004FF800211D2018F04BF808BDAE4BB3F973
:101320002E320A2B00F2CA81DFE803F0060B1015FB
:101330001A1F24292E33380000211B2018F038F8FA
:1013400008BD02211B2018F033F808BD03211B2023
:1013500018F02EF808BD04211B2018F029F808BD4C
:1013600005211B2018F024F808BD06211B2018F0C9
:101370001FF808BD07211B2018F01AF808BD082126
:101380001B2018F015F808BD09211B2018F010F8D3
:1013900008BD0A211B2018F00BF808BD0B211B20EB
:1013A00018F006F808BD8C4BB3F938320A2B00F25E
:1013B0008581DFE803F0060B10151A1F24292E3350
:1013C000380000211C2017F0F3FF08BD02211C206B
:1013D00017F0EEFF08BD03211C2017F0E9FF08BD40
:1013E00004211C2017F0E4FF08BD05211C2017F084
:1013F000DFFF08BD06211C2017F0DAFF08BD07211A
:101400001C2017F0D5FF08BD08211C2017F0D0FFC5
:1014100008BD09211C2017F0CBFF08BD0A211C20A4
:1014200017F0C6FF08BD0B211C2017F0C1FF08BD37
:10143000694BB3F936320A2B00F24081DFE803F042
:10144000060B10151A1F24292E33380000211D20E9
:1014500017F0AEFF08BD02211D2017F0A9FF08BD3F
:1014600003211D2017F0A4FF08BD04211D2017F043
:101470009FFF08BD05211D2017F09AFF08BD06211A
:101480001D2017F095FF08BD07211D2017F090FFC4
:1014900008BD08211D2017F08BFF08BD09211D2064
:1014A00017F086FF08BD0A211D2017F081FF08BD37
:1014B0000B211D2017F07CFF08BD474BB3F93432D8
:1014C00013B1012B05D008BD0021252017F070FFB6
:1014D00008BD5A21252017F06BFF08BD3E4BB3F91C
:1014E0002C32152B00F2EA80DFE813F016001B0007
:1014F000200025002A002F00340039003E00430060
:1015000048004D00520057005C0061006600E80092
:10151000E800E8006B00700000211E2017F048FF73
:1015200008BD3C211E2017F043FF08BD3D211E20B1
:1015300017F03EFF08BD3E211E2017F039FF08BD01
:101540003F211E2017F034FF08BD40211E2017F058
:101550002FFF08BD41211E2017F02AFF08BD4221A0
:101560001E2017F025FF08BD43211E2017F020FF85
:1015700008BD44211E2017F01BFF08BD45211E2079
:1015800017F016FF08BD46211E2017F011FF08BDF9
:1015900047211E2017F00CFF08BD00211E2017F068
:1015A00007FF08BD49211E2017F002FF08BD4A2190
:1015B0001E2017F0FDFE08BD4B211E2017F0F8FE7F
:1015C00008BD4C211E2017F0F3FE08BD4D211E2042
:1015D00017F0EEFE08BD00BF40000020384BB3F905
:1015E0002432152B6AD8DFE803F00B10151A1F24DC
:1015F000292E33383D42474C51565B696969606515
:1016000000211F2017F0D4FE08BD3C211F2017F039
:10161000CFFE08BD3D211F2017F0CAFE08BD3E21A8
:101620001F2017F0C5FE08BD3F211F2017F0C0FE88
:1016300008BD40211F2017F0BBFE08BD41211F201F
:1016400017F0B6FE08BD42211F2017F0B1FE08BDFD
:1016500043211F2017F0ACFE08BD44211F2017F0C6
:10166000A7FE08BD45211F2017F0A2FE08BD462198
:101670001F2017F09DFE08BD47211F2017F098FE80
:1016800008BD48211F2017F093FE08BD49211F20E7
:1016900017F08EFE08BD4A211F2017F089FE08BDF5
:1016A0004B211F2017F084FE08BD4C211F2017F08E
:1016B0007FFE08BD4D211F2017F07AFE08BD704740
:1016C00040000020F8B50746264B93F86D00264DE4
:1016D000FE00F119CA00AC18A85493F838206270C3
:1016E000D3F888206260D3F88C20A26093F8A220FF
:1016F000227493F8A320627493F82D20A2745A7B6D
:10170000E27493F8352022759B7D6375432017F0B2
:10171000E3FDA075462017F034FF84ED080A47204A
:1017200017F02FFF84ED090A442017F02AFF84EDFB
:10173000060A452017F025FF84ED070A382017F028
:1017400020FF84ED0A0A492017F0C6FDC0EB001007
:101750008300E385482017F0BFFDC0EB0010830035
:10176000A385F8BD74770020607600202DE9F04154
:10177000044670BB00EBC003DA00244B134493F81B
:101780003430012B39D000EBC002D3001F4A1A4479
:101790001F4B03EB001392ED0C0A988817F096FF8D
:1017A0001A4FE5002B19DE003E44194A230102EBD3
:1017B000030896F83510D05A17F06EFE96F83610DA
:1017C000B8F8020017F068FED8F80C2096F834300C
:1017D0001370E3002344DA000C4D15440C4B03EB6B
:1017E000041495ED0E0AE08817F088FF95ED0F0AB6
:1017F000208917F083FFBDE8F081054B03EB001350
:101800009FED040A988817F061FFC9E76076002011
:10181000D0FD02080000344310B5002404B110BD0F
:101820002046FFF74FFF04EBC402D30004481844DE
:101830000AF056F92046FFF799FF0134E4B2EDE7CC
:101840006076002082B000910192029A00F00F00B1
:1018500061EE801A71EEE01A70EE600A013803281A
:1018600000F2DA80DFE800F0029ADAB5F7EE007AEB
:10187000B4EEE72AF1EE10FA01DDB0EE672AB5EE1C
:10188000C02AF1EE10FA6BD461EEA21AD2ED007A02
:1018900071EEA77A77EEC17AC3ED007AF4EEE37ABF
:1018A000F1EE10FA04D8F4EEC37AF1EE10FA5ADA37
:1018B000F4EEC37AF1EE10FA24D583ED003AD2EDBE
:1018C000007A33EE617A31EE077A37EEC77A22EE8C
:1018D000077A37EEC77A60EEA26A9DED006AB8EE2D
:1018E000C66A66EE266A9DED016AF8EEC65A86EE75
:1018F000A56A77EE867AB4EEE77AF1EE10FA47DD64
:1019000082ED007AD3ED007AF4EEE73AF1EE10FAC8
:1019100040F1A080C3ED003AD2ED006A73EEE11A07
:1019200071EE217A76EEE77A62EE277A76EEE77A42
:1019300060EEA21A9DED007AB8EEC77A67EE210A32
:101940009DED017AB8EEC77A80EE876A76EE866AF8
:10195000F4EEE67AF1EE10FA1DD5C2ED007A79E0E8
:101960009FED3D2A90E7D2ED007A60EEA21A9DED40
:10197000007AF8EEC72A62EEA12A9DED017AF8EE10
:10198000C76A82EEA67A77EE877AC2ED007A61E0C6
:10199000C2ED007AB6E7C2ED006A5BE061EEA21A22
:1019A000D2ED002A71EEA21A31EEC11A83ED001AAF
:1019B000B4EEC13AF1EE10FA01DD83ED003AD3ED59
:1019C000007AF4EEE73AF1EE10FA43D5C3ED003AAF
:1019D00040E060EEA20A92ED000A70EE800AC3EDCC
:1019E000000AB4EEE03AF1EE10FA01DD83ED003AC0
:1019F000D3ED007AF4EEE73AF1EE10FA01D5C3ED3B
:101A0000003AD3ED007A61EEA21A77EEE11A31EED8
:101A1000211A82ED001A1DE083ED003AD3ED007A21
:101A2000B4EEE73AF1EE10FA01DD83ED003AD3EDC2
:101A3000007AF4EEE73AF1EE10FA01D5C3ED003A80
:101A4000D3ED007A61EEA21A77EEE11A31EE211A97
:101A500082ED001A02B070470000000030EE811ADB
:101A6000B4EEC01AF1EE10FA00D50120F4EEC00A6F
:101A7000F1EE10FA00DD00207047B4EEE00AF1EE5E
:101A800010FA08D4B4EEC10AF1EE10FA02DDB0EE9D
:101A9000410A70477047B0EE600A704760EE007A06
:101AA00060EE277A20EE270A80EE207AC7EE207AB1
:101AB00087EEA07AC7EE207A20EE811A37EE810AEF
:101AC00070EEA70A80EE200A7047000038B52DEDB1
:101AD000028BB0EE408ADFED1F7AF4EEE70AF1EEFA
:101AE00010FA04DCB0EE480ABDEC028B38BDF0EE13
:101AF000608A10EE900AFEF73FFD41EC100B25F0D6
:101B0000C3FA55EC104B18EE100AFEF735FD2246CD
:101B10002B46FEF785FD41EC100B25F039FA00222B
:101B20000D4B51EC100BFEF7C7FB04460D46F7EECC
:101B3000007A78EEE77A17EE900AFEF71DFD02466E
:101B40000B4620462946FEF795FEFFF761F808EEA2
:101B5000100AC7E7CDCC8C3F0000F03F30B4012223
:101B600080F82C2000230370002141604FF0804456
:101B700084604FF08144C4614FF07E540462134D81
:101B800045628462124DC560016184614FF49674B0
:101B9000848280F82D2081640E4C4464416380F877
:101BA00038200463C387A0F84030A0F8423080F8A2
:101BB0003B2080F83C30084BC364084B0365084B5E
:101BC0004365084B836530BC704700BF00009643F7
:101BD0000000C8420000A041CDCCCC3DCDCC4C3E55
:101BE0009A99993ECDCCCC3EF0B52DED088B85B0C1
:101BF000D0ED038A90ED049A38EEC97ADFEDAA7A27
:101C0000C7EE279AD0ED010A90ED021AB6EE000A4F
:101C100021EE000A30EE808A90F82D30002B40F043
:101C2000BD8204460378013B032B00F2AD82DFE85E
:101C300013F0040014001400410190F8380094EDF2
:101C40000C0AFFF70BFF84F83800012802D00023AC
:101C50006363B4E2924B6363B1E290F83B30002BD4
:101C600040F0B580D4ED098A94ED0C9AD4ED020AC7
:101C700094ED0A1AF6EE007A60EEA70A39EE480AE9
:101C8000FFF70CFF28EE800AFCEEC07ACDED037A58
:101C9000BDF80C50D4ED072A04F1440604F14807BE
:101CA00094F82C1000973346D4ED033A94ED043A9F
:101CB0002A46F1EE622A01209FED7C2AF0EE691A95
:101CC0009FED7B1AF0EE490AB0EE480AFFF7BAFD25
:101CD000D4ED037A94ED049AF4EEC97AF1EE10FA99
:101CE00009DDD4ED080A9FED6F7AF4EEC70AF1EE34
:101CF00010FA00F3C380636C6363D4ED0C0A94EDB7
:101D0000017AD4ED026AF7EE087A66EEA77A77EEEA
:101D1000277AF4EEE70AF1EE10FA02DD012384F8E7
:101D20003C3037EE267AF4EEC70AF1EE10FA40F1B5
:101D3000468294F83C30002B00F04182D4ED117AB9
:101D400094ED067A67EE877AC4ED117AD4ED072A0E
:101D5000D4ED097AFCEEE77ACDED037A94F82C10F5
:101D60009FED529ADFED528A00973346D4ED033A45
:101D700094ED043ABDF80C20F1EE622A0320B0EE97
:101D8000492AF7EE001AB0EE681AB0EE480AFFF7DB
:101D900059FDD4ED072A94F82C1000973346D4ED62
:101DA000033A94ED043A2A46F1EE622A0120B0EE9D
:101DB000492AF0EE691AB0EE681AD4ED0C0AB0EEBA
:101DC000480AFFF73FFD002384F83C30F7E190ED2F
:101DD000110A90ED0CAA3AEE487A90ED07BA27EE78
:101DE0000B7AF2EE046AC7EE267AF7EE00AA77EED7
:101DF000AA7AB0EE681AF0EE490A20EE270AFFF739
:101E00003CFE84ED110AD4ED097AFCEEE77ACDEDC3
:101E1000037A94F82C1004F14803009304F144036E
:101E2000F0EE683AB0EE493ABDF80C20F1EE4B2ADC
:101E300003209FED1E2AF0EE6A1A9FED1D1AF0EEA8
:101E40004A0AB0EE480AFFF7FDFC94ED117A84EDE2
:101E50000D7AA38A07EE903AF8EEE77A67EE877A72
:101E6000DFED116A87EEA67AFCEEC77A17EE903A9C
:101E7000A4F84030002384F83B30F3E677EEC98ABB
:101E800094ED110A70EE497A87EEA80AFFF71EFE5C
:101E900068EE807A79EE277AC4ED0D7A2DE700BFDF
:101EA0000000C842AE47813F0000C8420AD7233C29
:101EB00000000000F0EE007A39EE679A78EEA78A0B
:101EC000C38F90F82C502B44C38790F83B30002BE5
:101ED00040F0B38094ED09AAD4ED0CAAD4ED020A27
:101EE00094ED0A1AF6EE007A60EEA70A3AEEC80AF6
:101EF000FFF7D4FD2AEE000AFCEEC07ACDED037A9E
:101F0000BDF80C50D4ED072A04F1440604F148074B
:101F100094F82C1000973346F0EE683AB0EE493A48
:101F20002A46F1EE622A01201FED202AF0EE691AFE
:101F30001FED211AF0EE6A0AB0EE480AFFF782FCA4
:101F400094ED116A84ED0D6AD4ED0C0A94ED017ADA
:101F5000D4ED026AF7EE087A66EEA77A77EE277A72
:101F6000F4EEE70AF1EE10FA02DD012384F83C30CA
:101F700037EE267AF4EEC70AF1EE10FA04D594F89B
:101F80003C30002B40F0A780E28FA38A9A4215D301
:101F9000D4ED117A94ED0D7A77EEC77AF5EEC07A2A
:101FA000F1EE10FA40F3DE80FDEEE77A17EE903A9C
:101FB000A4F840300023E38784F83B30B4F9403084
:101FC000012B40F3D9809AB294F82C30A2EB430253
:101FD000A4F8402094ED0D7A5B0007EE903AF8EEFD
:101FE000E77A77EE877AC4ED0D7A012384F83930E9
:101FF000B4F94230012B40F3C380012284F83A2027
:102000009BB294F82C20A3EB4203A4F8423094ED49
:102010000D7A520007EE902AF8EEE77A77EE677AAB
:10202000C4ED0D7A1FED601A5FED5F0A94ED0D0AA5
:10203000FFF723FD84ED0D0AC1E090ED110A90ED4C
:102040000CAA3AEE487A90ED07BA27EE0B7AF2EE38
:10205000046AC7EE267AF7EE00AA77EEAA7AB0EE07
:10206000681AF0EE490A20EE270AFFF706FD84ED14
:10207000110AD4ED097AFCEEE77ACDED037A04F18A
:102080004803009304F14403F0EE683AB0EE493A95
:10209000BDF80C20F1EE4B2A294603201FED7D2AC6
:1020A000F0EE6A1A1FED7E1AF0EE4A0AB0EE480A08
:1020B000FFF7C8FBD4ED0C7AB4EEE78AF1EE10FA24
:1020C00004D5B4F91430A4F8403003E7B4F914305F
:1020D000A4F84230FEE6D4ED067A26EE276A84EDB7
:1020E000116AD4ED072AD4ED097AFCEEE77ACDED3A
:1020F000037A94F82C101FED939A5FED938A009762
:102100003346D4ED033A94ED043ABDF80C20F1EED9
:10211000622A0320B0EE492AF7EE001AB0EE681AE0
:10212000B0EE480AFFF78EFBD4ED072A94F82C1086
:1021300000973346D4ED033A94ED043A2A46F1EE83
:10214000622A0120B0EE492AF0EE691AB0EE681A50
:10215000D4ED0C0AB0EE480AFFF774FB002384F8B4
:102160003C3011E7FDEEE77ACDED037ABDF80C3097
:102170005B42A4F842301DE7002384F8393037E78A
:10218000002384F83A304DE7002380F83830C387C5
:1021900000234363012380F83B3010E0002380F8E4
:1021A000383080F8393080F83A3000224263C387F3
:1021B000A0F84030A0F84230012380F83B3005B051
:1021C000BDEC088BF0BD00BF0C4AB2F8663003FBD3
:1021D00000F00B4B83FB0013C017C0EB631080B201
:1021E000B2F86230984204D80022044B83F85E2093
:1021F00070470122014B83F85E20704774770020FE
:102200001F85EB5110B5302017F066F8204C207078
:102210002D2017F0B6F984ED010A332017F0B1F93B
:1022200084ED020A5C2017F057F807EE900AF8EEEA
:10223000E77AC4ED037A5D2017F04EF807EE900AB6
:10224000F8EEE77AC4ED047A124BB3F86630A38255
:102250005F2017F096F984ED070A602017F03CF82C
:1022600007EE900AF8EEE77AC4ED097A5E2017F0DF
:1022700088F984ED060A012384F82C30272017F012
:1022800080F984ED0C0A2046FFF7AEFC10BD00BFBC
:102290007C1200207477002010B5612017F01CF824
:1022A000034C2080622017F017F8608010BD00BF3B
:1022B0006812002008B5124BB3F90010114BB3F9A6
:1022C0000030CB1A022B09DC0D4BB3F902100E4B78
:1022D000B3F90030CB1A022B09DC08BD612017F0DE
:1022E00067F8612016F0F8FF064B1880ECE76220D3
:1022F00017F05EF8622016F0EFFF034B1880ECE752
:1023000068120020781200207A12002010B52B20CD
:1023100016F0E2FFC4B21A4B33F8142042F62F2312
:102320009A420BD8164A32F81430013322F814308E
:10233000144B93F85E30012B1AD010BD124931F8BE
:102340001420642303FB02F3104A82FB03021A44A5
:10235000DB17C3EB6233DBB20D4A22F814300023E3
:10236000074A22F8143021F81430FFF7A3FFD9E709
:10237000054A32F81430013322F81430DDE700BF8B
:102380006C120020747700207012002007452EC2C6
:102390006812002030B583B0804B1B78012B7BD0B6
:1023A00022F0E6FE044622F0F5FE014668461CF0E7
:1023B00079FA6CB19DF8023053B99DF801303BB900
:1023C000774B1B7823B90123764A1370744A137034
:1023D000754B93F82D30012B6AD0744A1370714BF2
:1023E0001B78012B6CD05B2016F076FF704B1B889E
:1023F00013FA80F080B26C4AA2F86600B2F862303C
:1024000001339BB2A2F86230984209D8012382F8C6
:1024100064300023A2F86230654A1380604A13706A
:10242000302016F059FF02286ED15F4B93F83930F7
:1024300093B95D4B93F82A30012B7BD05A4C002383
:1024400084F85E30A4F8603001255A4B83F82D5093
:10245000FFF7D8FE84F86450534B93F83930012BC2
:1024600060D1514B93F83D30012B00F089802B2037
:1024700016F032FF504C34F81000FFF7A5FE2B2069
:1024800016F02AFF34F81020474BA3F860200122F1
:10249000454B83F8642045E0FFF7FEFE4548FFF713
:1024A0005DFB00223D4B1A7001223E4B1A7077E70C
:1024B0003E4A1278012A90D001213A4A11708CE7E5
:1024C0005B2016F009FF0446182016F005FF3B4B71
:1024D00083FB0412E417C4EBA20483FB0032C3178E
:1024E000C3EBA20303EB83035A00801A14FB00F032
:1024F0002F4B18802C4A0023A2F86230012182F869
:102500006410284A13706EE7274C0023A4F860304B
:1025100084F85E300125274B83F82D50FFF772FEBB
:1025200084F86450204BB3F96010542016F040FF3B
:1025300003B030BD00221F4B83F82D20FFF762FE51
:10254000194B93F86430012B0CD0174CB4F8600091
:10255000FFF73AFE94F83D30002B7FF47DAFFFF794
:10256000D5FE79E7134BD3ED0D7AFCEEE77A17EE43
:10257000903A0D4AA2F86030002382F86430E4E714
:10258000094B002283F85E20A3F860200122094B4A
:1025900083F82D20FFF736FE79E700BF7C0300208B
:1025A000741200207512002074770020761200202B
:1025B000D81200207C120020681200206766666630
:1025C00070B582B000240EE04C2202AB334403F815
:1025D000042C2AE04D2202AB334403F8042C26E0FD
:1025E00084B30134E4B2012C38D82646344B33F896
:1025F000140016F071FE334D254485F84E00324B21
:1026000033F8140016F068FEC0B285F8540000F1EB
:102610003B0202AB234403F8042C20B9002202AB96
:10262000234403F8042C1428CED01528D2D0A0F1CE
:102630001103DBB2022BD3D8002202AB334403F8E0
:10264000042CCDE70D28CCD11E4B3344002283F857
:10265000542002AB1E4406F8042CC2E7022016F0F8
:102660003BFE042805DD0023164A82F854308DF81D
:102670000430144B002283F8502083F856209DF834
:10268000040020B99DF8050068B902B070BD1EF0C5
:1026900051FC04464FF4977016F01EFE014620468A
:1026A00016F086FEEEE71EF045FC044640F22F10C1
:1026B00016F012FE0146204616F07AFEE5E700BF4E
:1026C00084030020747700208003002038B5132095
:1026D00016F002FE434D2870152016F052FF85EDCE
:1026E000010A6A2016F0F8FD2881692016F0F4FD31
:1026F00068816B2016F0F0FDA8816E2016F0ECFDCD
:10270000E881712016F0E8FD2882722016F039FF6A
:1027100085ED050A702016F0DFFD2876142016F0EE
:10272000DBFD68766D2016F0D7FD68830024AC834E
:102730006C2016F0D1FDE8836F2016F0CDFD2884C3
:10274000DF2016F0C9FD85F82200672016F0C4FDD1
:1027500085F82300DD2016F0BFFD85F824007620E3
:1027600016F0BAFD85F82500EC84732016F009FFF9
:1027700085ED0A0A082016F0AFFD85F82C0040F21E
:102780002F1016F0A9FD85F82D00962016F0A4FD57
:1027900085F82E00682016F09FFD85F82F000AE0CE
:1027A000114B33F8140016F097FD104B234483F8B7
:1027B000B7000134E4B20B2CF2D900240AE00C4B30
:1027C00033F8140016F088FD084B234483F8C30047
:1027D0000134E4B2062CF2D90022044B83F84C20D9
:1027E00038BD00BFA8760020880300207477002041
:1027F000A003002010B5324C94F83010DE2016F003
:10280000D7FD94F82310672016F0D2FD94F82F100E
:10281000682016F0CDFD94F82410DD2016F0C8FDD8
:1028200094F82210DF2016F0C3FDB4F932106620B0
:1028300016F0BEFD94F8341040F20D1016F02CFE88
:1028400094F835104FF4827016F026FE94F8361086
:10285000FB2016F021FE637E012B0ED03BB1022B34
:102860001CD09FED180A632016F048FF10BD9FEDA5
:10287000150A632016F042FF10BD134B93F8A430E5
:102880002BB19FED100A632016F038FF10BD0E4BE0
:1028900093ED240A632016F031FF10BD0A4B93F824
:1028A000A3302BB19FED070A632016F027FF10BD60
:1028B000054B93ED230A632016F020FF10BD00BFE7
:1028C000A8760020000034437477002010B5094B2F
:1028D00000241C875C8783F8344083F83540214608
:1028E00040F20D1016F0D8FD21464FF4827016F01C
:1028F000D3FD10BDA876002008B5FFF7E7FE094B11
:102900009B7D4BB908480AF077F8064B9B7D33B1A5
:1029100005480AF01DFA02E003480AF019FAFFF729
:1029200069FF08BD74770020A876002010B5AA20A2
:1029300016F0D2FC054C2070AB2016F0CDFC607078
:10294000AC2016F01EFE84ED010A10BDDC12002042
:1029500008B5034B93ED020AA92016F0CFFE08BD7F
:10296000DC12002008B5FFF7E1FF034903480AF035
:10297000E1FCFFF7EDFF08BD74770020DC120020BA
:1029800008B5172016F0A8FC022810D0032815D08F
:10299000012805D09FED0D0A282016F0AFFE08BDD6
:1029A000272016F0EEFD282016F0A8FE08BD3F20D7
:1029B00016F0E7FD282016F0A1FE08BD292016F02C
:1029C000E0FD282016F09AFE08BD00BF0000344349
:1029D00008B5FFF7D5FF08BD08B5E62016F050FC96
:1029E000E62016F08BFEE72016F04AFCE72016F0F2
:1029F00085FEE82016F044FCE82016F07FFEE92072
:102A000016F03EFCE92016F079FEEA2016F038FCBC
:102A1000EA2016F073FEEB2016F02EFC0146EB20A8
:102A200016F0C6FCEC2016F027FC0146EC2016F050
:102A3000BFFC08BD58B191B1B5EEC00AF1EE10FA75
:102A400002D49FED090A70479FED080A704731B123
:102A5000B5EEC00AF1EE10FA02D49FED050A7047F8
:102A60009FED040A704700BF000034430000A0C27D
:102A70000000F042000070C2DFED097AB4EEE70A10
:102A8000F1EE10FA0AD9DFED077AB4EEE70AF1EEBB
:102A900010FA01DA002070470120704701207047CA
:102AA000000070C20000F04210B52DED028B04460C
:102AB000022016F011FC34B9042800F38A80204665
:102AC000BDEC028B10BD012C07D0022C09D0032CC9
:102AD0002AD0042C60D00024F1E704287BDC0024F9
:102AE000EDE7362016F0F8FB632801DC0124E6E769
:102AF000372016F0F1FB632801DC0124DFE74320D7
:102B000016F0EAFB632801DC0124D8E7AB2016F0BD
:102B1000E3FB632801DC0124D1E7172016F0DCFB7E
:102B200003285AD00024CAE7362016F0D5FB002827
:102B30000CDD0124132016F0CFFB0028BFD0142099
:102B400016F0CAFB0228BAD10124B8E7372016F0E4
:102B5000C3FB002801DD0124ECE7432016F0BCFB99
:102B6000002801DD0124E5E7AB2016F0B5FB0028C5
:102B700001DD0124DEE7392016F003FDB0EE408AC6
:102B8000392016F07DFBB4EEC08AF1EE10FA01DCBC
:102B90000024CFE70124CDE7132016F09DFB78B980
:102BA0000024952016F0EDFCB0EE408A952016F03A
:102BB0005FFBB4EEC08AF1EE10FA80D501247EE707
:102BC000142016F089FB012801D00024E9E7012434
:102BD000E7E7012473E7012471E701246FE70000B0
:102BE00070B515461B4B93F82D30012B05D00021F5
:102BF000104616F051FC002070BD04460E4668B920
:102C0000104616F069FB18B1284616F043FB80B950
:102C100030460EF00BFCB8B1204670BD01211046C5
:102C200016F03AFC4FF4167130460EF0F9FB2046D0
:102C300070BD30460EF0FAFB0528E9D90521304673
:102C40000EF0EEFB204670BD0021284616F024FC55
:102C5000204670BD7477002030B583B0022016F096
:102C60003BFBC4B2244B1B789C4203D0631EDBB2F7
:102C7000032B29D9204B1C70082016F02DFB05468C
:102C80001E4BB3F90030984207D00D2823D0002303
:102C90001A46EC2106201BF04DF9184B1D80013C13
:102CA000E4B2032C1ED900214FF4977016F080FB7C
:102CB0000DF1060106201BF041F901B240F22F1080
:102CC00016F076FB03B030BD00231A46EB21052039
:102CD0001BF030F9CEE700230222EC2106201BF086
:102CE00029F9DAE701A905201BF028F901B24FF410
:102CF000977016F05DFBDBE7AE030020B003002009
:102D0000F8B52DED028B04460578C68AB7EE000AA9
:102D100081880D4800EB05101AF074FE0746A08963
:102D200016F02FFCB0EE408AE08916F02AFCF0EE97
:102D3000400AB0EE480A3B46044A314628461BF09A
:102D4000D5FABDEC028BF8BD14770020E4760020A4
:102D5000F8B50446408AB0F59E7F13D0E68A16F097
:102D6000BBFA07462578B7EE000AA1880E4800EBAB
:102D700005101AF047FE0346FAB2314628461BF00A
:102D8000E9FAF8BD2578E68A277CB7EE000AA18823
:102D9000054800EB05101AF035FE03463A46314669
:102DA00028461BF0D7FAF8BD147700208379002B52
:102DB00040F0B480036A002B00F0B080436A002B1F
:102DC00000F0AC80838BB3F59E7F00F0A78070B5D8
:102DD0002DED028B0446022016F07EFA86B2A08BFF
:102DE00016F096F9731E01259D400540A08916F046
:102DF000C8FBB0EE408AE08916F0C3FBF0EE408AD3
:102E0000002D5BDD464B1B889E4202D02046FFF71B
:102E100077FF444BD3ED007AB4EE678AF1EE10FAF7
:102E200007D1414BD3ED007AF4EE678AF1EE10FA48
:102E300002D02046FFF764FF3A4B83ED008A3A4BFD
:102E4000C3ED008A20781BF081FAB4EE400AF1EE5F
:102E500010FA2ED60126F0EEC07A9FED347AF4EE09
:102E6000477AF1EE10FA06D9B5EEC00AF1EE10FA83
:102E700021D4B0EE680A236A83ED000A0020FFF730
:102E800013FE0546236A93ED000AB4EEC08AF1EE04
:102E900010FA24DAA08B16F031FC636A0020187057
:102EA000012D34D00021208B16F0F6FABDEC028BF8
:102EB00070BD0026CFE7B0EE480ADCE7236A83ED59
:102EC000008A636A00211970208B16F0E5FAA58B41
:102ED000E08A16F056FB284616F010FCE6E783ED74
:102EE000008AB0EE480AA08B16F008FC104B93F84D
:102EF0002D30012B03D0636A00201870D0E70EB983
:102F00003046CDE7636A01221A703046C8E7002ECA
:102F1000CCD0228BA17EFFF763FEC7E7704700BFCE
:102F2000B2030020BC030020B8030020FFFF7F7F16
:102F30007477002010B50446022016F0CDF980B257
:102F4000012303FA00F06388184214BF0120002017
:102F500010BD000038B50546002401E00134A4B2DC
:102F6000072C0FD82C20084B00FB0430A842F5D0CA
:102F7000828BAB8B9A42F1D1FFF7DCFF0028EDD0BA
:102F8000012038BD002038BD58FC0208F8B52DEDF1
:102F9000028B8379012B02D0BDEC028BF8BD036A52
:102FA000002BF9D0836A002BF6D0436A002BF3D0B4
:102FB000838BB3F59E7FEFD00446022016F08CF988
:102FC00085B22046FFF7B6FF002865D0484B1B8826
:102FD0009D421CD02046FFF7BBFE20781BF0C8F9AD
:102FE000B4EE400AF1EE10FA1CD6F0EEC07A9FED76
:102FF000417AF4EE477AF1EE10FA17D9B5EEC00A2D
:10300000F1EE10FA0AD49FED3C0A01270FE03B4B8A
:103010001A883B4B1B889A42DCD1DEE79FED390AC8
:10302000012704E09FED370A002700E00127236A0B
:1030300083ED000A236A93ED008A6078FFF734FD80
:103040000646B0EE480AFFF717FD0546B0EE480AFF
:1030500001463046FFF7EEFCB0EE408A95BB636A4E
:1030600000221A70A08AB0F59E7F03D016F089FA6C
:1030700038EE008AB0EE480AA08B16F03FFB236AB8
:1030800083ED008A012E27D00021208B16F004FA50
:10309000A36A00221A707FE72046FFF75BFF002833
:1030A0007FF47AAF236A9FED180A83ED000AA08BA4
:1030B00016F024FB0021208B16F0EEF9A36A002203
:1030C0001A7069E7636A01221A70A08B16F016FB6A
:1030D000236A83ED008AD5E71FB9A36A01221A701B
:1030E0005AE7228BA17E2846FFF77AFDF5E700BF5D
:1030F000B2030020FFFF7F7F00004843EC12002056
:10310000B40300200000C8C20000344338B50220D8
:1031100016F0E2F885B2122016F0DEF8124B188095
:10312000002407E02C20114B00FB0430FFF73EFE8B
:103130000134A4B2072C0FD82C230C4A03FB042320
:103140009B79002BEED0012BF2D12C20074B00FBFA
:103150000430FFF71BFFEBE7054B1D80024B1A887D
:10316000044B1A8038BD00BFEC12002058FC020846
:10317000B2030020B403002008B518F0F3F80022D1
:103180001146DA2018F0FCF8244B18800022114672
:10319000D92018F0F5F8224B188000221146D620CD
:1031A00018F0EEF81F4B188000221146E22018F0AC
:1031B000E7F81D4B188000221146D82018F0E0F8DF
:1031C0001A4B188000221146DB2018F0D9F8184B52
:1031D000188000221146DC2018F0D2F8154B188018
:1031E00000221146E02018F0CBF8134B1880002283
:1031F0001146E12018F0C4F8104B18800022114647
:10320000E42018F0BDF80E4B188000221146F5207E
:1032100018F0B6F80B4B188008BD00BF061300204D
:103220001213002016130020081300200C13002096
:103230000E130020101300200A1300201413002086
:10324000041300201813002008B54FF46171634B7C
:10325000188818F025F9002800F084800122604BBE
:1032600083F8CA204FF461715E4B188818F018F982
:1032700000287CD001225A4B83F8CB204FF4617197
:10328000594B188818F00CF9002875D00122544BBE
:1032900083F8CC204FF46171544B188818F000F972
:1032A00000286ED001224E4B83F8CE204FF41671C9
:1032B0004F4B188818F0F4F8002867D00122484BCB
:1032C00083F8CD204FF461714A4B188818F0E8F864
:1032D000002860D00122424B83F8CF204FF4617167
:1032E000454B188818F0DCF8002859D001223C4BD7
:1032F00083F8D0204FF46171404B188818F0D0F853
:10330000002852D00122364B83F8D1204FF461714E
:103310003B4B188818F0C4F800284BD00122304BE2
:1033200083F8D2204FF4E161364B188818F0B8F8D2
:10333000002844D001222A4B83F8D3204FF4166191
:10334000002018F0ADF800283ED00122244B83F86D
:10335000D4204FF461712C4B188818F0A1F8002884
:1033600037D108BD00221E4B83F8CA207AE700221D
:103370001B4B83F8CB2081E70022194B83F8CC202C
:1033800088E70022164B83F8CE208FE70022144BEB
:1033900083F8CD2096E70022114B83F8CF209DE7DC
:1033A00000220F4B83F8D020A4E700220C4B83F8B7
:1033B000D120ABE700220A4B83F8D220B2E70022EB
:1033C000074B83F8D320B9E70022054B83F8D420BC
:1033D000BFE70021F52015F0EBFFC2E70613002040
:1033E0007477002012130020161300200813002009
:1033F0000C1300200E130020101300200A130020CD
:103400001413002004130020181300200023044A82
:1034100013720121034A1170034A1380704700BFE1
:1034200074770020FD0300202413002008B500213C
:10343000902015F0BDFF00218A2015F0B9FF002172
:103440008B2015F0B5FF00214FF4917015F0B0FFFF
:103450000021A22015F0ACFF0021652015F0A8FF87
:10346000002140F2231015F0A3FF0021A32015F046
:103470009FFF0021912015F09BFF00214E2015F0A9
:1034800097FF0021992015F093FF08BD08B5002192
:103490004FF4987015F08CFF002140F2331015F0B6
:1034A00087FF00214FF49B7015F082FF00214FF43D
:1034B0009A7015F07DFF00214FF4997015F078FF98
:1034C000002140F2311015F073FF002140F2351059
:1034D00015F06EFF002140F2371015F069FF002152
:1034E0004FF49C7015F064FF002140F2391015F084
:1034F0005FFF00214FF49D7015F05AFF002140F24C
:103500003B1015F055FF08BDF8B52DED028B0220DC
:1035100015F0E2FEC4B22146F92015F049FF9A4B9E
:103520001B789C421CD007201AF0ECFD00230122DE
:103530004FF49E7108201AF0FDFC002301224FF485
:103540009E7109201AF0F6FC002301224FF49E71AF
:103550000A201AF0EFFC0C201AF06CFE8A4B1C704B
:103560008A4B93F82D30022B01D0FFF78FFF874B4A
:10357000002283F8B420DA7383F8212083F85C20DA
:1035800083F8802083F881205A729A7783F8A820E4
:1035900083F83B2083F8B52083F8342083F8782023
:1035A00083F8D9201A73042C0DD90122774B83F8A4
:1035B0007820631E082B23D8DFE803F011111111C6
:1035C0001E1E1E1E1E00012283F8D920302015F079
:1035D00083FE0228EDD101226C4B1A73E9E7092220
:1035E0006B4B5A70631E082B33D8DFE803F00D1ABB
:1035F0001E26220D1A1E26000122654B5A70F1E785
:103600000022634B5A70EDE70622614B9A70631EED
:10361000082B3BD8DFE803F02121212E2121212195
:103620002E0007225A4B9A70F1E70522584B9A70E8
:10363000EDE70922564B9A70E9E7564B988815F04A
:103640004BFEC0B2544B03EB40035A78504B9A7078
:10365000DDE700224E4B9A70D9E702224C4BDA701C
:10366000631E082B59D8DFE803F01515154C151506
:1036700015154C00474BD88815F02EFEC0B2464BAE
:1036800003EB40004278424BDA70E9E70022404BFE
:10369000DA70E5E704223E4B1A71404B1B78012B90
:1036A0003FD03E4B1D78022D00F08080374B93F8C1
:1036B0002D30022B00F00D81062015F00DFE0128A3
:1036C00000F03C810021992015F072FE9E2015F03B
:1036D00003FE07EE900AF8EEE70A9FED310A0C2090
:1036E0001AF0D2FD5A201DF052FC002115F060FEA8
:1036F0000022274B5A7101222A4B1A7000263546A8
:103700004BE2244B188915F0E7FDC0B2224B03EBC6
:10371000400042781E4B1A71BFE700221C4B1A7101
:10372000BBE70122194B83F83520FFF77FFE184BCA
:103730009B78062B1AD0164B9B78072B1DD0144B69
:103740001B79072B19D0184B1D880135ADB21D8090
:10375000012015F0C1FD854204DA0C4B93F82D30A1
:10376000012B9ED002220D4B1A709AE7074B197A53
:1037700040F2231015F01CFEDDE7044B93F82C10EB
:10378000A22015F015FEDEE7FC0300207477002070
:103790001C130020D8030020B8FD0208FD03002000
:1037A000000000002213002024130020C64B00223A
:1037B00083F8352093F82D30022B4BD0C24E96F86B
:1037C0002210902015F0F4FD317C8A2015F0F0FDD8
:1037D000717C8B2015F0ECFD96F836104FF491704B
:1037E00015F0E6FD96F82C10A22015F0E1FDF17A17
:1037F000A32015F0DDFD96F85D10912015F0D8FDA1
:1038000096ED010A15F0A8FE01B24E2015F0D0FD8C
:1038100096F8B010992015F0CBFD96F8261040F2DE
:10382000211015F0C5FDA94B9B78062B45D0002132
:1038300040F2231015F0BCFD042D3FF637AFA34B2B
:103840005B5D042B3FD00021652015F0B1FD0135F3
:10385000EDB2F1E75A201DF091FB05465A201DF00C
:1038600096FB15F039FD0146284615F0A1FD01250E
:1038700011E0012D12D0AEB230461DF02FFB0746ED
:1038800030461DF034FB15F027FD0146384615F093
:103890008FFD0135EDB20B2DEBD907E7AEB2304607
:1038A0001DF06CFB074630461DF071FB15F014FD52
:1038B0000146384615F07CFDEBE7317A40F22310E3
:1038C00015F076FDB8E7804B597E652015F070FD48
:1038D000ECE6042C30D0092C7FF4EEAE012518E084
:1038E0000133DBB2042B05D8784AD25C9542F7D17C
:1038F0000121F5E799B90021754B33F8150015F052
:1039000057FD0021734B33F8150015F051FD0135BB
:10391000EDB20B2D3FF6D0AE00210123E2E76C4B58
:1039200033F815606B4B33F8150015F0D5FC0146E4
:10393000304615F03DFDEAE70125EAE70122624B3A
:1039400083F881205A201DF019FB15F0C5FC08EE04
:10395000100A9E2015F0C0FC07EE900AF8EEE70A68
:10396000B8EEC80A0C201AF08FFC5A22574B5A7135
:10397000C1E6582015F0B0FC07EE900AB8EEE70A51
:103980001AF07EFB4E2015F0A7FC07EE900AB8EE69
:10399000E70A07201AF0E2FBF2E002201DF09EFA8F
:1039A00015F09AFCC5B20122474B83F82120E7E0CD
:1039B00003201DF093FA15F08FFCC5B20223042BEF
:1039C00006D8424AD25C022A06D00133DBB2F6E7BF
:1039D00000231BB90126D3E00123FAE701223A4B69
:1039E00083F85C20CCE004201DF078FA15F074FC1C
:1039F000C5B2C5E005201DF071FA15F06DFCC5B229
:103A00000122314B83F88120BAE0022A0BD0002139
:103A1000314B33F8120015F0CBFC304B1B780021F2
:103A20002A4AD154ACE006201DF058FA15F054FC97
:103A3000B0FA80F56D09A3E007201DF04FFA15F0EC
:103A40004BFCB0FA80F56D0901221F4B83F88020F2
:103A500096E008201DF042FA15F03EFCC5B20223A4
:103A6000042B06D8194AD25C072A06D00133DBB2F0
:103A7000F6E700231BB9012682E00123FAE70122C1
:103A8000114B5A727CE0042C2CD009201DF026FA30
:103A900015F022FCC5B201220B4B83F8B4200F4B6A
:103AA0001B7893426CD1B1EE080A1AF0E9FA07EEDE
:103AB000905AF8EEE77A9FED0A0A27EE800A07206F
:103AC0001AF04CFB5CE000BF747700201C13002050
:103AD000E4030020C0030020D803002022130020AC
:103AE0000000C842012AD0D90021494B33F8120006
:103AF00015F05EFC474B1B780021474AD154012248
:103B0000464B83F8B4203BE00A201DF0E7F915F09E
:103B1000E3FBC5B2042C0DD00223042B06D83E4A89
:103B2000D25C092A08D00133DBB2F6E700232BB9B7
:103B3000012625E00123FAE70123F8E7374B1B7B39
:103B4000002B4DD10122354BDA7319E00B201DF00B
:103B5000C5F915F0C1FBC5B23B2015F0BDFB07460A
:103B60003B2015F081FB874204D001222B4B83F8C8
:103B7000252005E00022294B83F8252000E00025C0
:103B8000244B1878012804D906302946C0B21AF00F
:103B9000D9F9204A1378013313701E4B1A78042A7E
:103BA00020D81D4B9B5C013B0A2BE8D801A151F8A2
:103BB00023F000BF733900089B390008B1390008B1
:103BC000E7390008F53900080B3A0008393A0008CF
:103BD000533A0008873A0008093B00084D3B0008AB
:103BE0000126CDE70D4B93F82D30012B07D0002196
:103BF0004FF4867015F050FCBDEC028BF8BD002E22
:103C0000F5D001214FF4867015F046FCF4E700BFB3
:103C1000D8030020221300201C13002074770020FA
:103C200008B5FFF771FC08BD08B5084B93F82D30B7
:103C300023B10021162015F0BBFB08BD1620FDF7AF
:103C400045F90021162015F0B3FB08BD747700205C
:103C500010B5022015F040FB84B20C4B1B889C422F
:103C600004D00220FDF732F9084B1C80042C02D04E
:103C7000092C00D010BD0320FDF728F90420FDF722
:103C800025F90520FDF722F9F4E700BF26130020EF
:103C900008B50720FDF71AF90820FDF717F908BD48
:103CA00008B50620FDF712F908BD08B5FFF7D0FFEB
:103CB000FFF7BAFFFFF7ECFFFFF7F2FF08BD91F83F
:103CC0002D30012B0AD0002381F82A3091F82A30B8
:103CD000012B00F0828000238B73704791F8353000
:103CE000012BF0D091F87830012B14D04B7B002BB6
:103CF000E9D18B7DE3B1072B12D0002381F82A3064
:103D000091F8D930012BE1D10378022BDED1CB7DA4
:103D100081F82A30DAE791F83730002BD3D0E5E785
:103D200091F82430002BE8D1012381F82A30E7E70D
:103D300091F824301BB1002381F82A30C6E74B7F6D
:103D4000012B21D091F82330012B21D091F82E3076
:103D5000012B20D091F8D530012B20D0CB7F012B27
:103D600021D091F82A30012B28D0002BAED191F828
:103D70003A30012BAAD1CB7C012BA7D14B7D012B53
:103D8000A4D181F82A30A1E7002381F82A309DE7E9
:103D900081F82A309AE7002381F82A3096E7002339
:103DA00081F82A3092E791F82030012B03D00023CC
:103DB00081F82A308AE781F82A3087E791F83A308B
:103DC000002B83D18B7C012B80D10B7D012B7FF4C9
:103DD0007DAF002381F82A3078E791F82330012B5A
:103DE00012D091F82030012B0ED091F83C30012BED
:103DF0000DD08B7C012B7FF470AF0B7D012B7FF4FA
:103E00006CAF00238B73704701238B737047CB7C9F
:103E1000012B7FF462AF4B7D012B7FF45EAF8B7380
:103E2000704791F82D30022B00F0828091F83520F8
:103E3000012A00F0A8803BB991F86830012B01D02D
:103E40000A2376E02D2374E04B7B002B40F09D800D
:103E50008B7D7BB1032B40F29A80042B00F099807C
:103E6000062B40F2988091F82430002B40F095808A
:103E70000F235EE091F82430002B40F0908091F801
:103E80007820012A25D0087F012800F08A8091F847
:103E90002300012800F0878091F82E00012800F00F
:103EA000848091F82600012800F0818091F8D500E7
:103EB00001287ED0087B012811D0C87F01287CD042
:103EC00091F82A00C8B991F83A30012B13D00B238E
:103ED0002FE091F837000028D5D11A2329E091F876
:103EE0003930012B67D091F82A30012B01D00B23F8
:103EF0001FE013231DE003231BE0012A04D091F8E7
:103F00003A20B2B9022314E091F83A30002B56D08F
:103F100091F82B30022B54D0042B54D0032B54D0C7
:103F2000072B54D0082B54D0092B54D0182300E071
:103F3000192381F8B23091F87820012A4DD091F8F8
:103F4000D920012A60D000220E2B63D0042B63D02D
:103F5000012B63D00F2B63D0102B63D0142B63D0B5
:103F6000132B63D0122B63D0112B63D01D2B63D086
:103F70000B2B63D01E2B63D02D2B63D00C2B63D067
:103F800081F8B32070472023D3E71D23D1E70E2308
:103F9000CFE70123CDE70423CBE71023C9E71023A4
:103FA000C7E71123C5E71E23C3E71223C1E7212377
:103FB000BFE70C23BDE71423BBE71423B9E70223B3
:103FC000B7E71723B5E73023B3E71623B1E7152387
:103FD000AFE71423ADE71323ABE7182B00D0002283
:103FE000172B09D0302B09D0022B09D0162B09D062
:103FF000152BA9D10722A7E70222F7E70222F5E74E
:104000000222F3E70322F3E791F82A20012A9BD04A
:10401000002299E7042299E705229DE705229BE704
:10402000052299E7062299E7082299E7092299E7EC
:104030000A2299E70B2299E70C2299E70D2299E7CA
:104040000E2299E70F2299E70D2299E791F82A307D
:10405000EBB1124B1B7833B9114A1380114A13701C
:1040600001220E4B1A700F4A13780133DBB2137022
:104070003B2B0FD900220B4B1A70094B1B8840F2C7
:10408000E632934206D80133054A138002E000224B
:10409000024B1A70024B1B88838070472813002044
:1040A0002A1300202913002091F82D30012B03D072
:1040B000012381F83D30704791F83530012BF7D05E
:1040C0008B7D002BF4D191F82330012BF0D091F8A7
:1040D0002430002BECD14B7F012BE9D091F87830C4
:1040E000012B12D091F82E30012BE1D091F826301F
:1040F000012BDDD091F8D530012BD9D04B7B002B93
:10410000D6D1002381F83D30704791F83730002B2D
:10411000E8D1CDE710B5094C94F8B210262015F07F
:1041200047F994F8B310D22015F042F9044BB3F9D3
:1041300004102E2015F03CF910BD00BF747700204C
:104140002C13002008B5302015F0C6F8014B18706C
:1041500008BD00BF2C13002038B5FFF7F3FF104C4B
:10416000104D21462846FFF7AAFD21462846FFF7B5
:1041700058FE21462846FFF769FF21462846FFF7EB
:1041800093FFFFF7C7FF15F0E1F80146F82015F09F
:104190000FF994F82A10F72015F00AF938BD00BF7E
:1041A000747700202C13002010B50E4B1C6822469B
:1041B000182304E0002102F8011B013BDBB2002BB5
:1041C000F8D1F12015F088F880B2E36860F30F03AE
:1041D000E360F02015F080F880B2E36860F31F43DD
:1041E000E36010BDD811030838B50C4B1D681821C9
:1041F000284621F043FAEC68A4B2F12015F06CF8DF
:10420000844203D00020FFF7CFFF38BDEC68240CB8
:10421000F02015F061F88442F4D1F6E7D8110308D4
:1042200008B5154819F020F9022015F055F883B2A9
:10423000092B1DD9C1B23731C9B2F22015F0B8F837
:1042400007F0E6FCFEF7C8FB0CF08AFB0BF01AFE49
:104250000A4809F0DAF80A4807F038FCFFF7C4FF0B
:10426000084808F04FFBFFF7D1F80CF083F908BDC0
:10427000C1B23031C9B2E0E700040020A07C0020C8
:1042800060760020A87600200322014B1A70704748
:104290003413002008B5044A536843F47F03536085
:1042A00021F0B6F808BD00BF0004002008B5064B99
:1042B0001B78012B04D013B1013B034A137008BDD6
:1042C000FFF7E8FF08BD00BF3413002010B5182128
:1042D000544B186821F0D1F904210A200DF0A0F800
:1042E000FFF7E4FF0FF0DEFD0FF0D2FD01B2BD20BD
:1042F00015F05EF8F32014F0EFFF582806D04A4B73
:104300001B78012B06D0FEF701FF10BD0122464BA2
:104310001A70F4E7454A137801331370F32014F050
:10432000DBFF2638322879D8DFE800F01A2D7878BC
:10433000787878787878787878787857787878781E
:104340007878656E7878787878787878787878780A
:1043500078787878787878787878787878781F00AE
:104360000B22324B1A7020F0F3FD304B1B780A2BD6
:10437000C9D90021F32015F01BF800232A4A137035
:104380002A4A1370BFE72A4C012363600B22274B94
:104390001A700020FFF708FF02236360FA21254B03
:1043A000188821F0DBFA0323636017F035FE04233D
:1043B00063601DF080FE0523636010F0CDFD0623D1
:1043C00063601CF0F9FD07236360642005F072FE52
:1043D00008236360FFF75EFFC7E70B22134B1A70D9
:1043E000134C11236360642005F064FE12236360A4
:1043F000FFF750FFB9E70B220C4B1A7021220C4B30
:104400005A6021F031F8B0E70B22084B1A703122C4
:10441000074B5A60642005F04DFEFBE70B22034B6F
:104420001A70A2E7D81103083313002032130020BA
:1044300000040020105A002008B5FEF70DFC08BD4E
:1044400008B5FEF7BDF80BF061FE08BD08B507F032
:10445000D3FD08F063FF08BD08B508F0C9F80CF0FB
:104460002FFD08BD08B508F029F809F041F808BD8E
:1044700008B509F04BFC09F0E3FB08BD08B507F0EF
:10448000A9FF08F06DF808BD08B50CF099FF08BD4C
:1044900008B509F043F908BD08B5FEF763FA08BD91
:1044A00008B5FDF7B9F908BD08B5FEF791FA08BDE2
:1044B00008B50CF0D3FC08BD08B509F0A7FC07F05F
:1044C00007FD08BD08B50B4B93F8D930012B0AD076
:1044D000084B93F87830012B08D0002140F20510EA
:1044E00014F0DAFF08BDFDF755FFF1E70BF0A2FC71
:1044F00008BD00BF7477002008B5FEF7FDF909F08C
:1045000043FB08BD08B50BF0CDFEFFF725FE08BD47
:10451000704708B507F01AFF0CF000F80BF052FFD7
:1045200008BD08B50BF07AFD07F0C6FC08BD08B55C
:104530000CF098FB07F0C0FBFFF7B7FB08BD08B510
:10454000FFF76EFB1EF092F81DF0CCFE08BD0000D8
:1045500010B504460E4B18784FF47A73B3FBF0F3A2
:104560000C4A1068B0FBF3F001F0ACFA68B90F2CFC
:1045700001D9012010BD002221464FF0FF3001F08B
:1045800063FA054B1C60002010BD012010BD00BF68
:104590001A040020480400201C04002008B5074A23
:1045A000136843F010031360032001F03BFA0F205F
:1045B000FFF7CEFF06F0DCFD002008BD0020024022
:1045C000034A1168034B1B780B441360704700BF0C
:1045D000507800201A040020014B1868704700BF73
:1045E000507800207047704738B50268936803F030
:1045F0000303012B11D00023002B37D0936803F065
:104600000D03012B11D0436C43F010034364836C02
:1046100043F001038364012038BD136813F0010FD8
:1046200001D10023E8E70123E6E70446936843F05D
:1046300002039360036803221A60FFF7CDFF05466B
:1046400023689B6813F0010F0ED0FFF7C5FF401BD6
:104650000228F5D9636C43F010036364A36C43F044
:104660000103A364012038BD002038BD002038BDFF
:1046700003689A6812F00C0F62D070B50446DA68CD
:1046800012F0007F02D0C269012A38D060290CD014
:1046900023689A6812F0040F07D09A6812F0020F8C
:1046A00003D19A6842F010029A600C290CD023685A
:1046B0009A6812F0080F07D09A6812F0020F03D11F
:1046C0009A6842F020029A60602935D06C2931D175
:1046D0000C25FFF781FF064623689B681D422DD0FD
:1046E000FFF77AFF801B0B28F6D9636C43F01003A9
:1046F0006364A36C43F00103A364012070BD82696D
:10470000012AC3D10022196811F0400F0ED10D49C2
:104710008A4201D80132F6E7636C43F01003636408
:10472000A36C43F00103A364012070BD40221A6012
:104730000C21ABE70425CCE70825CAE7002070BDB3
:1047400000207047FF93090038B50268936803F0B2
:104750000303012B10D00023002B33D191681A4B97
:10476000194211D0436C43F010034364836C43F04F
:1047700001038364012038BD136813F0010F01D1D8
:104780000023E9E70123E7E70446936843F00103C8
:104790009360FFF721FF054623681B6813F0010FA4
:1047A0000ED1FFF719FF401B0228F5D9636C43F0C7
:1047B00010036364A36C43F00103A364012038BDBC
:1047C000002038BD002038BD3F00008008B5406A99
:1047D000436C43F040034364836C43F004038364FD
:1047E000FFF701FF08BD08B5406AFFF7FBFE08BDF3
:1047F00008B5436A5A6C12F0500F1AD15A6C42F441
:1048000000725A641A68D26812F4406F0DD1DA69E6
:104810005AB95A6C22F480725A645A6C12F4805F4E
:1048200003D15A6C42F001025A6418461EF07EFE13
:1048300008BDDB6B1B6B984708BD000030B597B017
:1048400000230093002800F0FB800446436C13F023
:10485000100F51D1436CABB1002023689A6812F05D
:10486000805F03D09B6813F0005F46D0636C23F039
:10487000120343F010036364A36C43F00103A364C9
:1048800001203AE083640365C36480F8403006F099
:10489000B3F923689B6813F0805F01D00020DCE748
:1048A0002046FFF7A1FE636C13F0100FD5D100284E
:1048B000D3D1636C23F4885323F0020343F0020343
:1048C00063642268936823F040539360226893687E
:1048D00043F0805393605B4B1B685B4AA2FB03234E
:1048E0009B0C03EB83035A000092009B002BB4D077
:1048F000009B013B0093F8E70020636C13F0100F5E
:1049000040F09580002840F092802268936813F070
:10491000040340F08C80616C21F4817141F002014C
:104920006164B2F1A04F55D04FF0A0410191916860
:1049300001F00301012950D0002272B9019D2DB16F
:10494000A96801F0030101294FD032B93F498A68B3
:1049500022F4403265682A438A60E2695103A56BFC
:10496000012D01D04FF480530B43E1680B43A16844
:104970000B43616A01293ED0E26A012A02D0216B11
:104980000A4313432268916811F00C0F0BD1D168D0
:1049900021F4804121F00201D160A169626B5200D3
:1049A00042EA813213432168CD68294A2A401343E1
:1049B000CB602369012B31D02268136B23F00F03E6
:1049C00013630023A364636C23F0030343F0010328
:1049D000636433E01F490191A9E7126812F0010FE7
:1049E00001D10022A9E70122A7E7296811F0010FF0
:1049F000ABD00122A9E732B9A26A013A43EA4243A5
:104A000043F48033B8E7626C22F0220242F02002C5
:104A10006264A26C42F00102A264ADE721680B6BF4
:104A200023F00F03226A013A13430B63C9E7636C57
:104A300023F0120343F010036364012017B030BD6C
:104A40000120FBE74804002083DE1B4300030050E5
:104A500007C0F0FF00010050F8B50468A46814F026
:104A6000040F02D002252846F8BD90F84030012BF3
:104A70007ED0012380F840303E4B9B6813F01F0F1F
:104A800004D0002380F840300125ECE717460E469D
:104A90000446FFF759FE0546002865D1636C23F4F0
:104AA000706323F0010343F480736364314B9B68AC
:104AB00013F01F0F38D02268B2F1A04F34D0636CCE
:104AC00043F4801363642C4B9A423DD0636C13F41F
:104AD000805F46D0A36C23F00603A364002384F810
:104AE0004030E36B254A9A62E36B254ADA62E36B56
:104AF000244A1A6323681C221A602268536843F010
:104B0000100353602268D36843F00103D360216827
:104B10003B4632464031E06B01F062F82268936810
:104B200043F0040393609EE7636C23F48013636493
:104B30002368DB6813F0007FC8D0636C23F4405314
:104B400043F480536364C1E74FF0A043DB6813F084
:104B5000007FBBD0636C23F4405343F48053636401
:104B6000B4E70023A364B9E7002384F840307AE770
:104B7000022578E70003005000010050F1470008CB
:104B8000E7470008CD47000838B590F84030012BC2
:104B900002D10224204638BD0546012380F840306A
:104BA0006C21FFF765FD044618B1002385F84030FD
:104BB000F0E72A68D36823F00103D360E86B01F0C3
:104BC00049F8044618B16B6C43F040036B642A68E3
:104BD000536823F01003536074B92846FFF704FDAF
:104BE0000446002CE1D16B6C23F4885323F00103BD
:104BF00043F001036B64D8E72846FFF7F5FCF0E7C4
:104C000070B590F84030012B02D10225284670BDC6
:104C10000E460446012380F84030FFF7E5FC0546C8
:104C2000002830D1012363642268936823F0804315
:104C30009360012E1BD02268936843F00043936079
:104C4000FFF7CAFC064623689B68002B15DAFFF7BE
:104C5000C3FC801B0A28F6D9636C23F0120343F0CF
:104C600010036364002384F840300125CEE72268F6
:104C7000936843F080439360DDE7636C23F00303A4
:104C800043F001036364002384F84030BEE7012948
:104C900005D00368D3F8B40000F07F0070470368C4
:104CA000D3F8B400000C704770B497B000220092A3
:104CB00090F84020012A00F0AD810346012280F8DF
:104CC00040200068826812F0040F40F096814A6824
:104CD000042A31D8046B02EB420255001F22AA407D
:104CE00024EA02020C68AC4022430263186882681E
:104CF00012F00C0F68D10A68092A4ED9846902EBB8
:104D000042021E3A0725954024EA05048D6805FAFB
:104D100002F22243826148691C68E268C2F3C10260
:104D2000520000FA02F208690138032800F28F806D
:104D3000DFE800F0406C7782092A0ED8446B02EB62
:104D4000420255001E3D1F22AA4024EA02020C68BE
:104D500004FA05F52A434263C8E70E2A0ED8846B8D
:104D600002EB420255003C3D1F22AA4024EA020207
:104D70000C6804FA05F52A438263B7E7C46B02EBBB
:104D8000420255005A3D1F22AA4024EA02020C6842
:104D900004FA05F52A43C263A8E7446902EB42021C
:104DA0000725954024EA05048D6805FA02F222439E
:104DB0004261B0E7206E984D0540086842EA806283
:104DC000154345F0004525661868826802F0030225
:104DD000012A6FD00022002A40F01A81CC68012CF1
:104DE00070D0D0F8B0400E680125B54024EA050423
:104DF000C0F8B0400968102900F08D80112900F03A
:104E0000AF80122900F0B2800020FBE0606E824D7E
:104E10000540086842EA8062154345F00045656632
:104E2000D2E7A06E7C4D0540086842EA80621543D7
:104E300045F00045A566C7E7E56E774828400D6850
:104E400042EA8562024342F00042E266BCE7226E1B
:104E500002F0F8420868B2EB806F1CD01868426E0E
:104E600002F0F8420C68B2EB846F19D01868826EB9
:104E700002F0F8420C68B2EB846F16D01868C26E6C
:104E800002F0F8420C68B2EB846F9DD1C26E22F042
:104E90000042C26698E7226E22F000422266DDE7F9
:104EA000426E22F000424266E0E7826E22F000424B
:104EB0008266E3E7026812F0010F01D100228AE75F
:104EC000012288E7D0F8B0400E680125B5402C4398
:104ED000C0F8B040086809280ED91E68B46900EB14
:104EE00040001B380725854024EA05048D6805FA33
:104EF00000F02043B0617DE71E687469013000EB6B
:104F000040000725854024EA05048D6805FA00F075
:104F1000204370616EE74148806810F4000F7FF411
:104F20006DAF1C68B4F1A04F27D04FF0A0400190A6
:104F3000A06800F00300012822D0002A57D1019D6B
:104F400035B1A86800F0030001281FD0002A4ED117
:104F5000102921D0112939D0122941D0002051E047
:104F60002E48806810F0807FDBD04AE72B488068AD
:104F700010F4800FD5D0002044E029480190D7E7F5
:104F8000206810F0010FD8D00122D6E7286810F071
:104F9000010FDBD00122D9E7B4F1A04FDAD11F49CC
:104FA0008A6842F400028A601E4A12681E49B2FBF7
:104FB000F1F10A2202FB01F2009202E0009A013AAA
:104FC0000092009A002AF9D100201BE0B4F1A04F12
:104FD000C2D112498A6842F080728A60002011E0D2
:104FE0000E498A6842F480028A6000200AE05A6C06
:104FF00042F020025A64012004E05A6C42F0200280
:105000005A640120002283F8402017B070BC70471A
:105010000020F7E70220F8E700F0FF8300030050CC
:10502000000100504804002040420F0070B497B0C7
:1050300003460268B2F1A04F40D04FF0A04001906B
:105040000198002800F0888093F84040012C00F07F
:105050008580012483F84040926812F0040F68D1E3
:10506000826812F0040F64D10A68002A37D03C4DE0
:10507000AA6822F460424C685E6B44EA46342243DC
:10508000AA601C68A26802F00302012A19D000225B
:10509000002A59D1846804F00304012C19D0002A95
:1050A00054D12F4CA26822F4716222F00F020868DA
:1050B000896801430A43A26000203FE0294801902B
:1050C000BEE7226812F0010F01D10022E0E70122C1
:1050D000DEE7006810F0010FE1D00122DFE7204990
:1050E0008A6822F460428A6019688A6802F00302C2
:1050F000012A10D000225ABB816801F00301012966
:1051000011D03ABB16498A6822F4716222F00F026C
:105110008A60002012E00A6812F0010F01D100221B
:10512000E9E70122E7E7016811F0010FE9D0012268
:10513000E7E75A6C42F020025A640120002283F80B
:10514000402017B070BC70470020F7E70020F5E75B
:105150000020F3E70020F1E70120F2E70220F0E76A
:105160000003005000010050F0B44B69012202FA24
:1051700003F30468D4F8002242F00102C4F80022CC
:105180000568D5F81C42DA431440C5F81C42CC69C6
:10519000C4B90568D5F80C421440C5F80C4206683D
:1051A0004C69CF688D8845EA0745483446F8345045
:1051B00004684E698F680D8845EA0745483604EB58
:1051C000C6046560CC69012C1ED08C69002C35D1D9
:1051D0000568D5F804421440C5F804420C69002C57
:1051E00033D10468D4F814522A40C4F814220A6A4D
:1051F000012A31D00268D2F8003223F00103C2F84C
:1052000000320020F0BC70470568D5F80C421C4302
:10521000C5F80C4206684C690F688D8845EA074559
:10522000483446F8345004684E698F688D8945EAE1
:105230000745483604EBC6046560C6E70568D5F83F
:1052400004421C43C5F80442C8E70468D4F8142299
:105250001A43C4F81422CAE70268D2F81C120B439E
:10526000C2F81C32C6E7002800F0BB8038B50446FF
:1052700090F83D3003B3022384F83D302268136870
:1052800023F0020313602268136843F001031360E4
:10529000FFF7A2F9054623685A6812F0010F10D1F2
:1052A000FFF79AF9401B0A28F5D9032084F83D003E
:1052B000002384F83C3038BD80F83C3005F008FD10
:1052C000D9E75A6812F0010F7CD0A269012A50D0A8
:1052D0001A6822F080021A60E369012B4ED022681E
:1052E000136823F040031360236A012B4CD022681B
:1052F000136823F020031360636A012B4AD02268ED
:10530000136823F010031360A36A012B48D02268AE
:10531000136823F008031360E36A012B46D0226868
:10532000136823F0040313602168A368E268134341
:1053300022691343626913436268013A1343CB61E4
:105340002268136823F001031360FFF745F905464F
:1053500023685A6812F0010F2ED0FFF73DF9401B69
:105360000A28F5D9032084F83D00002384F83C3056
:1053700038BD1A6842F080021A60ADE722681368EF
:1053800043F040031360AFE72268136843F0200343
:105390001360B1E72268136843F010031360B3E7AA
:1053A0002268136843F008031360B5E722681368A6
:1053B00043F004031360B7E75B6813F0010F08D0F4
:1053C000002300E0002333B9042384F83D3001209A
:1053D00038BD0123F7E700202064012384F83D3025
:1053E00038BD012070470268936813F0806F08D1C0
:1053F000936813F0006F04D1936813F0805F00F09E
:105400009A8090F83C30012B00F09A80F0B4012390
:1054100080F83C30936813F0806F05D1936813F0E7
:10542000006F59D0012300E0002303F118010901A6
:10543000545804F001045450016B8A68002A4DD17D
:10544000056803F118021201AC580E68C96841EAF8
:1054500046512143A950016B0A6902F00F020A610B
:10546000046803F1180211016218546824F00F0453
:10547000546002680A445168046B246921435160F6
:105480000468016BCD7D8A7D120442EA05624D7D80
:1054900042EA0522097D0A431D012C44C4F88821F3
:1054A0000168046BE67EA27E120442EA0662667E12
:1054B00042EA0622247E22432944C1F88C2190F836
:1054C0003D20D2B2322A2ED0622A30D0222A12D0E7
:1054D000122280F83D2011E00223A6E7066803F1BE
:1054E0001804240135594F6842EAC702C9680A43C3
:1054F0002A433251AFE7422280F83D200022026465
:1055000080F83C20046818331B01E15841F0010188
:10551000E15001684B6943F4084343F001034B61D8
:105520001046F0BC7047522280F83D20E6E7722218
:1055300080F83D20E2E7042380F83D3001207047E9
:105540000220704790F83C30012B00F08680012348
:1055500080F83C3099B990F83D30DBB2222B20D056
:1055600090F83D30DBB2422B1BD090F83D30DBB2DF
:10557000622B16D090F83D30DBB2722B11D001298E
:1055800014D010B4002948D190F83D30DBB2322B52
:105590003BD0522B3DD0122B21D0222380F83D301E
:1055A00020E0002380F83C300220704790F83D3026
:1055B000DBB2322B0ED090F83D30DBB2522B09D04B
:1055C00090F83D30DBB2622B04D090F83D30DBB276
:1055D000722BD6D1002380F83C3002207047422342
:1055E00080F83D30002202640468636943F4084394
:1055F000636180F83C2049B30268536943F050036B
:10560000536100205DF8044B7047622380F83D3001
:10561000E8E7722380F83D30E4E790F83D30DBB2F4
:10562000222B0BD0422B0DD0122B03D0322380F82B
:105630003D30D7E7522380F83D30D3E7622380F82E
:105640003D30CFE7722380F83D30CBE702685369E5
:1056500043F00A0353610020D4E70220704708B5E5
:105660000268536923F00103536190F83D30DBB2C7
:10567000122B0CD090F83D30DBB2522B14D0722B91
:1056800016D0422B09D0012380F83D3008E0026893
:10569000536923F40F435361ECE7222380F83D3034
:1056A0001EF0DCF9002008BD322380F83D30F7E71A
:1056B000622380F83D30F3E710B50C46002979D11C
:1056C000436B016804F11B0212018A5802F00402C4
:1056D0009A60002A70D1016804F11B0212018A58F5
:1056E000520D1A60016804F11B0212018958C1F3BE
:1056F0004001D96001681144496801F00F01196146
:1057000001680A445268C2F30722DA611C62016828
:1057100022011144D1F8B811197501681144D1F86A
:10572000B811090A597501681144D1F8B811090C6A
:10573000997501681144D1F8B811090ED97501683D
:105740001144D1F8BC11197601681144D1F8BC118B
:10575000090A597601681144D1F8BC11090C9976EF
:1057600001680A44D2F8BC21120EDA7664BB0268E2
:10577000D36843F02003D3600268536923F00A031F
:10578000536190F83D30DBB2222B28D090F83D30A9
:10579000DBB2322B23D0002C36D190F83D30DBB277
:1057A000622B29D0722B2BD0422B1ED0012380F8E4
:1057B0003D301DE0836B84E7016804F11B02120198
:1057C0008A58D2085A608DE70268136943F02003B3
:1057D00013610268536923F050035361D1E70268F3
:1057E000536923F40F435361D5E7122380F83D300A
:1057F0001EF058F9002010BD322380F83D30F7E745
:10580000522380F83D30F3E790F83D30DBB2622B55
:105810000BD0722B0DD0522B03D0012380F83D30DA
:10582000E6E7122380F83D30E2E7222380F83D309E
:10583000DEE7422380F83D30DAE7000038B5044661
:105840000368DA6812F0100F09D05A6912F0080FD5
:1058500000F09B801022DA604FF4007500E0002514
:1058600023681A6912F0100F07D05A6912F0400F1E
:1058700003D045F4806510221A6123685A6912F03A
:10588000010F1FD09968634A8A4307D09968624A1A
:105890008A4303D09968614A8A4313D19A6812F007
:1058A000020F07D19A6812F4007F03D19B6813F4AA
:1058B000003F6CD02046FFF7D2FE22689168584B1B
:1058C0000B43936023685A6912F0020F03D0DB6820
:1058D00013F0030F5ED123685A6912F0100F03D042
:1058E0001B6913F0030F5AD1236C1D4325642368F1
:1058F0009A6912F0010F0BD05A6912F4807F07D019
:105900005A6912F4004F03D0226C42F00102226463
:105910009A6912F0020F0BD05A6912F4007F07D077
:105920005A6912F4004F03D0226C42F00202226442
:105930009A6912F0040F0BD05A6912F4806F07D0E5
:105940005A6912F4004F03D0226C42F00402226420
:105950009A6912F0700F38D05A6912F4006F34D07F
:105960005A6912F4004F30D09A6902F07002302A5E
:105970002ED019D9502A30D0602A33D0402A20D1D5
:10598000226C42F0400222641BE0002568E745F4E7
:10599000006592E700212046FFF78EFE9BE701217C
:1059A0002046FFF789FE9FE7102A06D0202A08D15B
:1059B000226C42F01002226403E0226C42F00802E2
:1059C00022649A6922F070029A61236C7BB938BD17
:1059D000226C42F020022264F3E7226C42F0800243
:1059E0002264EEE7226C42F480722264E9E72268C6
:1059F000536843F004035360012384F83D30226868
:105A0000536923F40F4323F05B03536120461DF0D9
:105A1000E3FFDCE7010000040001000800000110C2
:105A200019050100074AD36823F4E0631B041B0C2B
:105A3000000200F4E060184340F0BF6040F4003022
:105A4000D060704700ED00E030B4164BDB68C3F364
:105A50000223C3F10704042C28BF04241D1D062DB6
:105A600017D9033B012505FA04F4013C2140994074
:105A700005FA03F3013B1340194300280BDB09012E
:105A8000C9B200F1604000F5614080F8001330BCFD
:105A900070470023E6E700F00F000901C9B2024B8E
:105AA0001954F4E700ED00E014ED00E0420900F0C5
:105AB0001F00012303FA00F0014B43F82200704756
:105AC00000E100E00138B0F1807F0AD2064B586057
:105AD000F021064A82F823100020986007221A60FD
