:020000040800F2
:10000000000001204D8302084D9000085590000823
:100010005D900008659000086D90000800000000E9
:10002000000000000000000000000000F16900086E
:100030007590000800000000916A000877900008A1
:100040009D8302089D8302089D8302089D83020808
:100050009D8302089D8302089D8302089D830208F8
:100060009D8302089D8302089D83020885900008F5
:1000700095900008A5900008B59000089D8302089F
:100080009D830208C59000089D830208D590000852
:10009000E59000089D830208F59000089D83020802
:1000A0009D8302089D8302089D8302089D830208A8
:1000B0009D8302089D8302089D8302089D83020898
:1000C0009D8302089D8302089D8302089D83020888
:1000D0009D830208059100081D91000835910008D4
:1000E0009D8302089D8302089D8302080000000092
:1000F0000000000000000000000000000000000000
:100100009D83020800000000000000009D8302089B
:100110009D8302089D8302089D8302080000000061
:100120009D8302089D8302089D8302089D83020827
:100130009D83020800000000000000000000000095
:100140009D8302089D83020800000000000000005B
:10015000000000000000000000000000000000009F
:100160009D8302089D8302089D8302089D830208E7
:100170009D8302089D8302089D8302089D830208D7
:100180009D8302089D83020800000000000000001B
:040190009D83020841
:1001A00010B5054C237833B9044B13B10448AFF3B1
:1001B00000800123237010BD5809002000000000BA
:1001C00014B3020808B5034B1BB103490348AFF34E
:1001D000008008BD000000005C09002014B3020884
:1001E00010F8012B11F8013B012A28BF9A42F7D0E1
:1001F000D01A7047034613F8012B002AFBD1181AB6
:1002000001387047000000000000000000000000FE
:1002100001F0FF01102A2BDB10F0070F08D010F8B7
:10022000013B013A8B422DD010F0070F42B3F6D1BB
:10023000F0B441EA012141EA014122F007047FF0D4
:1002400000070023F0E80256083C85EA010586EA2B
:10025000010685FA47F5A3FA87F586FA47F6A5FA67
:1002600087F68EB9EED1F0BC01F0FF0102F0070273
:1002700032B110F8013B013A83EA010313B1F8D11E
:100280000020704701387047002D06BF35460338FF
:10029000073815F0010F07D1013015F4807F02BF38
:1002A000013015F4C03F0130F0BC0138704700BF89
:1002B00081F0004102E000BF83F0004330B54FEA17
:1002C00041044FEA430594EA050F08BF90EA020F84
:1002D0001FBF54EA000C55EA020C7FEA645C7FEA17
:1002E000655C00F0E2804FEA5454D4EB5555B8BF3A
:1002F0006D420CDD2C4480EA020281EA030382EAAB
:10030000000083EA010180EA020281EA0303362D3C
:1003100088BF30BD11F0004F4FEA01314FF4801C0F
:100320004CEA113102D0404261EB410113F0004F21
:100330004FEA03334CEA133302D0524263EB4303D8
:1003400094EA050F00F0A780A4F10104D5F1200E76
:100350000DDB02FA0EFC22FA05F2801841F10001D1
:1003600003FA0EF2801843FA05F359410EE0A5F1A5
:1003700020050EF1200E012A03FA0EFC28BF4CF0D6
:10038000020C43FA05F3C01851EBE37101F000458C
:1003900007D54FF0000EDCF1000C7EEB00006EEB99
:1003A0000101B1F5801F1BD3B1F5001F0CD3490823
:1003B0005FEA30004FEA3C0C04F101044FEA44527A
:1003C00012F5800F80F09A80BCF1004F08BF5FEA01
:1003D000500C50F1000041EB045141EA050130BDE1
:1003E0005FEA4C0C404141EB010111F4801FA4F184
:1003F0000104E9D191F0000F04BF01460020B1FAD9
:1004000081F308BF2033A3F10B03B3F120020CDA10
:100410000C3208DD02F1140CC2F10C0201FA0CF0EE
:1004200021FA02F10CE002F11402D8BFC2F1200C53
:1004300001FA02F120FA0CFCDCBF41EA0C01904009
:10044000E41AA2BF01EB0451294330BD6FEA040452
:100450001F3C1CDA0C340EDC04F11404C4F120023D
:1004600020FA04F001FA02F340EA030021FA04F34F
:1004700045EA030130BDC4F10C04C4F1200220FAA6
:1004800002F001FA04F340EA0300294630BD21FAE4
:1004900004F0294630BD94F0000F83F4801306BFAA
:1004A00081F480110134013D4EE77FEA645C18BF9E
:1004B0007FEA655C29D094EA050F08BF90EA020F35
:1004C00005D054EA000C04BF1946104630BD91EA2D
:1004D000030F1EBF0021002030BD5FEA545C05D130
:1004E0004000494128BF41F0004130BD14F580046F
:1004F0003CBF01F5801130BD01F0004545F0FE41E3
:1005000041F470014FF0000030BD7FEA645C1ABF17
:10051000194610467FEA655C1CBF0B46024650EA4E
:10052000013406BF52EA033591EA030F41F400217A
:1005300030BD00BF90F0000F04BF0021704730B500
:100540004FF4806404F132044FF000054FF00001D5
:1005500050E700BF90F0000F04BF0021704730B596
:100560004FF4806404F1320410F0004548BF40426B
:100570004FF000013EE700BF42004FEAE2014FEAC0
:1005800031014FEA02701FBF12F07F4393F07F4F9B
:1005900081F06051704792F0000F14BF93F07F4FCD
:1005A000704730B54FF4607401F0004521F0004110
:1005B00020E700BF50EA010208BF704730B54FF096
:1005C00000050AE050EA010208BF704730B511F09B
:1005D000004502D5404261EB41014FF4806404F1D3
:1005E00032045FEA915C3FF4DCAE4FF003025FEA55
:1005F000DC0C18BF03325FEADC0C18BF033202EBDD
:10060000DC02C2F1200300FA03FC20FA02F001FA36
:1006100003FE40EA0E0021FA02F11444C1E600BFD5
:1006200070B54FF0FF0C4CF4E06C1CEA11541DBF88
:100630001CEA135594EA0C0F95EA0C0F00F0DEF853
:100640002C4481EA030621EA4C5123EA4C5350EA38
:10065000013518BF52EA033541F4801143F4801389
:1006600038D0A0FB02CE4FF00005E1FB02E506F01A
:100670000042E0FB03E54FF00006E1FB03569CF06F
:10068000000F18BF4EF0010EA4F1FF04B6F5007F75
:1006900064F5407404D25FEA4E0E6D4146EB0606E7
:1006A00042EAC62141EA55514FEAC52040EA5E5070
:1006B0004FEACE2EB4F1FD0C88BFBCF5E06F1ED81A
:1006C000BEF1004F08BF5FEA500E50F1000041EB51
:1006D000045170BD06F0004646EA010140EA0200FE
:1006E00081EA0301B4EB5C04C2BFD4EB0C0541EA20
:1006F000045170BD41F480114FF0000E013C00F335
:10070000AB8014F1360FDEBF002001F0004170BD58
:10071000C4F10004203C35DA0C341BDC04F1140471
:10072000C4F1200500FA05F320FA04F001FA05F2FD
:1007300040EA020001F0004221F0004110EBD370CA
:1007400021FA04F642EB06015EEA430E08BF20EAF6
:10075000D37070BDC4F10C04C4F1200500FA04F399
:1007600020FA05F001FA04F240EA020001F000412B
:1007700010EBD37041F100015EEA430E08BF20EA9E
:10078000D37070BDC4F1200500FA05F24EEA020EE6
:1007900020FA04F301FA05F243EA020321FA04F015
:1007A00001F0004121FA04F220EA020000EBD370CC
:1007B0005EEA430E08BF20EAD37070BD94F0000FCC
:1007C0000FD101F00046400041EB010111F4801F00
:1007D00008BF013CF7D041EA060195F0000F18BFB1
:1007E000704703F00046520043EB030313F4801FED
:1007F00008BF013DF7D043EA0603704794EA0C0FA7
:100800000CEA135518BF95EA0C0F0CD050EA4106BC
:1008100018BF52EA4306D1D181EA030101F0004139
:100820004FF0000070BD50EA410606BF1046194661
:1008300052EA430619D094EA0C0F02D150EA01366D
:1008400013D195EA0C0F05D152EA03361CBF1046AE
:1008500019460AD181EA030101F0004141F0FE414D
:1008600041F470014FF0000070BD41F0FE4141F4D1
:10087000780170BD70B54FF0FF0C4CF4E06C1CEAD1
:1008800011541DBF1CEA135594EA0C0F95EA0C0F86
:1008900000F0A7F8A4EB050481EA030E52EA033541
:1008A0004FEA013100F088804FEA03334FF0805562
:1008B00045EA131343EA12634FEA022245EA11158F
:1008C00045EA10654FEA00260EF000419D4208BF40
:1008D000964244F1FD0404F5407402D25B084FEAED
:1008E0003202B61A65EB03055B084FEA32024FF499
:1008F00080104FF4002CB6EB020E75EB030E22BFF6
:10090000B61A754640EA0C005B084FEA3202B6EBB5
:10091000020E75EB030E22BFB61A754640EA5C0064
:100920005B084FEA3202B6EB020E75EB030E22BFF4
:10093000B61A754640EA9C005B084FEA3202B6EBF5
:10094000020E75EB030E22BFB61A754640EADC00B4
:1009500055EA060E18D04FEA051545EA16754FEA16
:1009600006164FEAC30343EA52734FEAC2025FEA34
:100970001C1CC0D111F4801F0BD141EA00014FF0C3
:1009800000004FF0004CB6E711F4801F04BF014394
:100990000020B4F1FD0C88BFBCF5E06F3FF6AFAEB0
:1009A000B5EB030C04BFB6EB020C5FEA500C50F140
:1009B000000041EB045170BD0EF0004E4EEA1131C3
:1009C00014EB5C04C2BFD4EB0C0541EA045170BDCA
:1009D00041F480114FF0000E013C90E645EA060E0E
:1009E0008DE60CEA135594EA0C0F08BF95EA0C0F3C
:1009F0003FF43BAF94EA0C0F0AD150EA01347FF484
:100A000034AF95EA0C0F7FF425AF104619462CE75A
:100A100095EA0C0F06D152EA03353FF4FDAE1046BD
:100A2000194622E750EA410618BF52EA43067FF40E
:100A3000C5AE50EA41047FF40DAF52EA43057FF49E
:100A4000EBAE12E74FF0FF3C06E000BF4FF0010CA9
:100A500002E000BF4FF0010C4DF804CD4FEA410C0D
:100A60007FEA6C5C4FEA430C18BF7FEA6C5C1BD0DA
:100A700001B050EA410C0CBF52EA430C91EA030F5B
:100A800002BF90EA020F0020704710F1000F91EAB8
:100A9000030F58BF994208BF90422CBFD8176FEA86
:100AA000E37040F0010070474FEA410C7FEA6C5C54
:100AB00002D150EA013C07D14FEA430C7FEA6C5C5B
:100AC000D6D152EA033CD3D05DF8040B704700BF87
:100AD0008446104662468C461946634600E000BFD5
:100AE00001B5FFF7B7FF002848BF10F1000F01BDA7
:100AF0004DF808EDFFF7F4FF0CBF012000205DF872
:100B000008FB00BF4DF808EDFFF7EAFF34BF0120F6
:100B100000205DF808FB00BF4DF808EDFFF7E0FF8F
:100B200094BF012000205DF808FB00BF4DF808EDE0
:100B3000FFF7CEFF94BF012000205DF808FB00BF47
:100B40004DF808EDFFF7C4FF34BF012000205DF829
:100B500008FB00BF4FEA410C7FEA6C5C02D150EA0F
:100B6000013C0AD14FEA430C7FEA6C5C02D152EAA5
:100B7000033C02D14FF0000070474FF00100704776
:100B80004FEA410212F5001215D211D56FF47873B5
:100B9000B3EB625212D94FEAC12343F0004343EA58
:100BA000505311F0004F23FA02F018BF4042704733
:100BB0004FF00000704750EA013005D111F00040BD
:100BC00008BF6FF0004070474FF00000704700BF53
:100BD0004A0011D212F5001211D20DD56FF47873BC
:100BE000B3EB62520ED44FEAC12343F0004343EA11
:100BF000505323FA02F070474FF00000704750EA5C
:100C0000013002D14FF0FF3070474FF000007047C5
:100C10004FEA4102B2F1E04324BFB3F5001CDCF11E
:100C2000FE5C0DD901F0004C4FEAC0024CEA507056
:100C3000B2F1004F40EB830008BF20F00100704785
:100C400011F0804F21D113F13872BCBF01F0004088
:100C5000704741F480114FEA5252C2F11802C2F1BA
:100C6000200C10FA0CF320FA02F018BF40F001003B
:100C70004FEAC1234FEAD32303FA0CFC40EA0C00ED
:100C800023FA02F34FEA4303CCE77FEA625307D12A
:100C900050EA01331EBF4FF0FE4040F44000704761
:100CA00001F0004040F0FE4040F40000704700BFFB
:100CB00080F0004002E000BF81F0004142001FBF11
:100CC0005FEA410392EA030F7FEA226C7FEA236C1A
:100CD0006AD04FEA1262D2EB1363C1BFD21841400F
:100CE00048404140B8BF5B42192B88BF704710F0A5
:100CF000004F40F4000020F07F4018BF404211F048
:100D0000004F41F4000121F07F4118BF494292EAAF
:100D1000030F3FD0A2F1010241FA03FC10EB0C00DB
:100D2000C3F1200301FA03F100F0004302D5494268
:100D300060EB4000B0F5000F13D3B0F1807F06D315
:100D400040084FEA310102F10102FE2A51D2B1F10D
:100D5000004F40EBC25008BF20F0010040EA030002
:100D60007047490040EB000010F4000FA2F10102AF
:100D7000EDD1B0FA80FCACF1080CB2EB0C0200FA39
:100D80000CF0AABF00EBC25052421843BCBFD04087
:100D90001843704792F0000F81F4000106BF80F401
:100DA00000000132013BB5E74FEA41037FEA226CC4
:100DB00018BF7FEA236C21D092EA030F04D092F08F
:100DC000000F08BF0846704790EA010F1CBF0020C3
:100DD000704712F07F4F04D1400028BF40F0004020
:100DE000704712F100723CBF00F50000704700F040
:100DF000004343F0FE4040F4000070477FEA226267
:100E000016BF08467FEA23630146420206BF5FEA37
:100E1000412390EA010F40F4800070474FF0000337
:100E200004E000BF10F0004348BF40425FEA000CFE
:100E300008BF704743F0964301464FF000001CE0A6
:100E400050EA010208BF70474FF000030AE000BFFC
:100E500050EA010208BF704711F0004302D540423A
:100E600061EB41015FEA010C02BF844601460020AC
:100E700043F0B64308BFA3F18053A3F50003BCFAC7
:100E80008CF2083AA3EBC25310DB01FA02FC634474
:100E900000FA02FCC2F12002BCF1004F20FA02F27B
:100EA00043EB020008BF20F00100704702F120026E
:100EB00001FA02FCC2F1200250EA4C0021FA02F2CF
:100EC00043EB020008BF20EADC707047002800F006
:100ED000108608B52DED028BB0F5C27F80F03E8400
:100EE000831E142B00F23A84DFE813F01500D502BC
:100EF0001A035F03A903EE0332044504D9046F0506
:100F00003804380438043804380438043804380401
:100F1000380438041302EB4BB3F9BE32013B082B03
:100F200000F21C84DFE813F009003E007300A80003
:100F3000E1001A0153019001D00101211D201AF096
:100F400059F806211E201AF055F809211F201AF021
:100F500051F8042120201AF04DF8072121201AF021
:100F600049F8022122201AF045F81E2126201AF005
:100F700041F81F2127201AF03DF8202128201AF0DF
:100F800039F8212129201AF035F822212A201AF0D7
:100F900031F823212B201AF02DF800212C201AF0F3
:100FA00029F8DBE301211D201AF024F805211E2079
:100FB0001AF020F809211F201AF01CF80421202023
:100FC0001AF018F8072121201AF014F80221222023
:100FD0001AF010F81E2126201AF00CF81F212720E5
:100FE0001AF008F8202128201AF004F821212920DD
:100FF0001AF000F822212A2019F0FCFF23212B20CF
:1010000019F0F8FF00212C2019F0F4FFA6E30121CC
:101010001D2019F0EFFF06211E2019F0EBFF09211A
:101020001F2019F0E7FF0421202019F0E3FF05211C
:10103000212019F0DFFF0221222019F0DBFF1E2101
:10104000262019F0D7FF1F21272019F0D3FF2021D8
:10105000282019F0CFFF2121292019F0CBFF2221D0
:101060002A2019F0C7FF23212B2019F0C3FF0021EC
:101070002C2019F0BFFF71E301211D2019F0BAFFE8
:1010800006211E2019F0B6FF05211F2019F0B2FF1E
:101090000421202019F0AEFF0721212019F0AAFF1A
:1010A0000221222019F0A6FF1E21262019F0A2FFFE
:1010B0001F21272019F09EFF2021282019F09AFFD8
:1010C0002121292019F096FF22212A2019F092FFD0
:1010D00023212B2019F08EFF00212C2019F08AFFEC
:1010E0000121182019F086FF38E301211D2019F095
:1010F00081FF0D211E2019F07DFF0C211F2019F00A
:1011000079FF0E21202019F075FF0721212019F009
:1011100071FF0221222019F06DFF1E21262019F0F7
:1011200069FF1F21272019F065FF2021282019F0D1
:1011300061FF2121292019F05DFF22212A2019F0C9
:1011400059FF23212B2019F055FF0221182019F0F7
:1011500051FF00212C2019F04DFFFFE201211D203D
:1011600019F048FF06211E2019F044FF05211F2019
:1011700019F040FF0421202019F03CFF0721212015
:1011800019F038FF0221222019F034FF1E212620F9
:1011900019F030FF1F21272019F02CFF20212820D3
:1011A00019F028FF2121292019F024FF22212A20CB
:1011B00019F020FF24212B2019F01CFF00212C20E6
:1011C00019F018FF0121182019F014FFC6E20121BF
:1011D0001D2019F00FFF06211E2019F00BFF0F2113
:1011E0001F2019F007FF0421202019F003FF072119
:1011F000212019F0FFFE0221222019F0FBFE1E2102
:10120000262019F0F7FE1F21272019F0F3FE2021D8
:10121000282019F0EFFE2121292019F0EBFE2221D0
:101220002A2019F0E7FE24212B2019F0E3FE2521C6
:101230002C2019F0DFFE0021092019F0DBFE01212E
:10124000182019F0D7FE89E201211D2019F0D2FEE5
:1012500006211E2019F0CEFE10211F2019F0CAFE13
:101260000421202019F0C6FE0721212019F0C2FE1A
:101270000221222019F0BEFE1E21262019F0BAFEFE
:101280001F21272019F0B6FE2021282019F0B2FED8
:101290002121292019F0AEFE22212A2019F0AAFED0
:1012A00023212B2019F0A6FE26212C2019F0A2FEC6
:1012B0000021092019F09EFE0121182019F09AFE44
:1012C0004CE200BF4000002001211D2019F092FED9
:1012D0001E21262019F08EFE1F21272019F08AFEDC
:1012E0002021282019F086FE2121292019F082FED4
:1012F00022212A2019F07EFE23212B2019F07AFECC
:1013000000212C2019F076FE0121182019F072FE20
:1013100024E2C64BB3F9DA32013B042B00F21E8201
:10132000DFE803F003294D719500B2EE000A3A2080
:101330001AF004F8B2EE040A3D2019F0FFFFB1EEF6
:10134000000A3E2019F0FAFFB2EE0C0A4D2019F007
:10135000F5FF9FEDB78AB0EE480A4E2019F0EEFF78
:10136000B2EE0C0A552019F0E9FFB0EE480A5620FB
:1013700019F0E4FFF2E19FEDAE0A3A2019F0DEFF2A
:10138000B1EE000A3D2019F0D9FFB9EE000A3E2067
:1013900019F0D4FFB2EE000A4D2019F0CFFFB9EEDC
:1013A000040A4E2019F0CAFFB2EE000A552019F0C7
:1013B000C5FFB9EE040A562019F0C0FFCEE1B8EE21
:1013C000000A3A2019F0BAFFB0EE000A3D2019F0E9
:1013D000B5FFB9EE080A3E2019F0B0FFB2EE000AE0
:1013E0004D2019F0ABFFB9EE040A4E2019F0A6FF0C
:1013F000B2EE000A552019F0A1FFB9EE040A5620FA
:1014000019F09CFFAAE1BBEE040A3A2019F096FFFE
:10141000BBEE000A3D2019F091FFBBEE080A3E200A
:1014200019F08CFFBAEE0E0A4D2019F087FFBBEEC3
:101430000E0A4E2019F082FFBAEE0E0A552019F05E
:101440007DFFBBEE0E0A562019F078FF86E1BBEE59
:10145000080A3A2019F072FFBBEE040A3D2019F089
:101460006DFFBBEE0C0A3E2019F068FFBAEE0E0AC3
:101470004D2019F063FFBBEE0E0A4E2019F05EFFFF
:10148000BAEE0E0A552019F059FFBBEE0E0A56208F
:1014900019F054FF62E1654BB3F9B8320A2B00F240
:1014A0005D81DFE803F0060B10151A1F24292E3387
:1014B000380000211E2019F09DFD4FE102211E2061
:1014C00019F098FD4AE103211E2019F093FD45E132
:1014D00004211E2019F08EFD40E105211E2019F087
:1014E00089FD3BE106211E2019F084FD36E107212C
:1014F0001E2019F07FFD31E108211E2019F07AFD30
:101500002CE109211E2019F075FD27E10A211E207A
:1015100019F070FD22E10B211E2019F06BFD1DE179
:10152000424BB3F9BA320A2B00F21881DFE803F01C
:10153000060B10151A1F24292E33380000211F20F6
:1015400019F058FD0AE102211F2019F053FD05E1B1
:1015500003211F2019F04EFD00E104211F2019F086
:1015600049FDFBE005211F2019F044FDF6E00621AE
:101570001F2019F03FFDF1E007211F2019F03AFD6F
:10158000ECE008211F2019F035FDE7E009211F20BC
:1015900019F030FDE2E00A211F2019F02BFDDDE0FB
:1015A0000B211F2019F026FDD8E0204BB3F9C432DF
:1015B0000A2B00F2D380DFE803F0060B10151A1F88
:1015C00024292E333D000021202019F013FDC5E011
:1015D0000221202019F00EFDC0E00321202019F087
:1015E00009FDBBE00421202019F004FDB6E005212F
:1015F000202019F0FFFCB1E00621202019F0FAFCB0
:10160000ACE00721202019F0F5FCA7E008212020FC
:1016100019F0F0FCA2E00921202019F0EBFC9DE07C
:101620000A21202019F0E6FC98E000BF40000020CD
:10163000000000000B21202019F0DCFC8EE0C64BDE
:10164000B3F9C6320A2B00F28980DFE803F0060BFB
:1016500010151A1F24292E3338000021212019F0DB
:10166000C9FC7BE00221212019F0C4FC76E00321B3
:10167000212019F0BFFC71E00421212019F0BAFCEF
:101680006CE00521212019F0B5FC67E0062121203E
:1016900019F0B0FC62E00721212019F0ABFC5DE0FD
:1016A0000821212019F0A6FC58E00921212019F079
:1016B000A1FC53E00A21212019F09CFC4EE00B21F3
:1016C000212019F097FC49E0A34BB3F9C0320A2B53
:1016D00044D8DFE803F0060B10151A1F24292E3317
:1016E00038000021222019F085FC37E00221222059
:1016F00019F080FC32E00321222019F07BFC2DE060
:101700000421222019F076FC28E00521222019F07E
:1017100071FC23E00621222019F06CFC1EE0072159
:10172000222019F067FC19E00821222019F062FC40
:1017300014E00921222019F05DFC0FE00A2122208B
:1017400019F058FC0AE00B21222019F053FC05E0A7
:10175000814BB3F9C23223B1012B07D0BDEC028B10
:1017600008BD00212D2019F045FCF7E75A212D2056
:1017700019F040FCF2E7784BB3F9B632152BEDD8EF
:1017800001A252F823F000BFE1170008EB17000890
:10179000F5170008FF1700080918000813180008BB
:1017A0001D18000827180008311800083B18000809
:1017B000451800084F180008591800086318000859
:1017C0006D18000877180008811800085D170008D8
:1017D0005D1700085D1700088B18000895180008B1
:1017E0000021232019F006FCB8E73C21232019F042
:1017F00001FCB3E73D21232019F0FCFBAEE73E21BD
:10180000232019F0F7FBA9E73F21232019F0F2FB71
:10181000A4E74021232019F0EDFB9FE7412123207D
:1018200019F0E8FB9AE74221232019F0E3FB95E742
:101830004321232019F0DEFB90E74421232019F0F7
:10184000D9FB8BE74521232019F0D4FB86E74621FD
:10185000232019F0CFFB81E74721232019F0CAFB91
:101860007CE70021232019F0C5FB77E749212320DD
:1018700019F0C0FB72E74A21232019F0BBFB6DE78A
:101880004B21232019F0B6FB68E74C21232019F0E7
:10189000B1FB63E74D21232019F0ACFB5EE72E4B33
:1018A000B3F9AA32152B3FF659AF01A252F823F033
:1018B00009190008131900081D1900082719000844
:1018C000311900083B190008451900084F19000894
:1018D0005D19000867190008711900087B190008D4
:1018E000851900088F19000899190008A319000824
:1018F000AD1900085D1700085D1700085D170008A6
:10190000B7190008C11900080021242019F072FB42
:1019100024E73C21242019F06DFB1FE73D21242002
:1019200019F068FB1AE73E21242019F063FB15E744
:101930003F21242019F05EFB10E74021242019F0FC
:1019400059FB0BE74121242019F054FB06E7422103
:10195000242019F04FFB01E7400000204321242000
:1019600019F048FBFAE64421242019F043FBF5E680
:101970004521242019F03EFBF0E64621242019F0F1
:1019800039FBEBE64721242019F034FBE6E6482139
:10199000242019F02FFBE1E64921242019F02AFB2D
:1019A000DCE64A21242019F025FBD7E64B21242030
:1019B00019F020FBD2E64C21242019F01BFBCDE6C8
:1019C0004D21242019F016FBC8E64A4BB3F9AC327E
:1019D000152B3FF6C3AE01A252F823F0351A0008CA
:1019E0003F1A0008491A0008531A00085D1A000837
:1019F000671A0008711A00087B1A0008851A000887
:101A00008F1A0008991A0008A31A0008AD1A0008D6
:101A1000B71A0008C11A0008CB1A0008D51A000826
:101A20005D1700085D1700085D170008DF1A000841
:101A3000E91A00080021252019F0DCFA8EE63C2185
:101A4000252019F0D7FA89E63D21252019F0D2FA90
:101A500084E63E21252019F0CDFA7FE63F2125209E
:101A600019F0C8FA7AE64021252019F0C3FA75E684
:101A70004121252019F0BEFA70E64221252019F0F7
:101A8000B9FA6BE60021252019F0B4FA66E60021C8
:101A9000252019F0AFFA61E64521252019F0AAFAB0
:101AA0005CE64621252019F0A5FA57E647212520B6
:101AB00019F0A0FA52E60021252019F09BFA4DE614
:101AC0004921252019F096FA48E64A21252019F0E7
:101AD00091FA43E64B21252019F08CFA3EE64C2181
:101AE000252019F087FA39E64D21252019F082FAD0
:101AF00034E670474000002070B582B0002412E048
:101B00004C2202AB334403F8042C2EE04D2202ABEE
:101B1000334403F8042C2AE0A4B3022C32D0022C64
:101B20003CD00134E4B2022C4AD82646444B33F868
:101B3000140019F0F3F9434D254485F84E00424B4B
:101B400033F8140019F0EAF9C0B285F8540000F136
:101B50003B0202AB234403F8042C20B9002202AB61
:101B6000234403F8042C1428CAD01528CED0A0F1A1
:101B70001103DBB2022BCFD8002202AB334403F8AF
:101B8000042CC9E70D28CAD12E4B3344002283F818
:101B9000542002AB334403F8042CC0E7294B3344F0
:101BA00093F85430083BDBB2012BBAD8254B3344B1
:101BB000002283F8542002AB1E4406F8042CB0E740
:101BC000022019F0ABF9072804D0022019F0A6F979
:101BD000082805D100231B4A82F854308DF80430C0
:101BE0009DF8040038B99DF8050080B99DF80600FD
:101BF000C8B902B070BD21F08DFD04464FF4B87035
:101C000019F08CF90146204619F0F4F9EBE721F0C0
:101C100081FD044640F2711019F080F9014620461A
:101C200019F0E8F9E2E721F075FD04464FF4B970C8
:101C300019F074F90146204619F0DCF9D9E700BF24
:101C40003C040020008800203404002008B5084B24
:101C500093F82D3023B10021162019F0CBF908BDDF
:101C60001620FFF733F90021162019F0C3F908BD3B
:101C70000088002010B5022019F050F984B20E4BF4
:101C80001B889C4204D00220FFF720F90A4B1C80DD
:101C9000092C00D010BD0320FFF718F90420FFF72E
:101CA00015F90520FFF712F90620FFF70FF90720B5
:101CB000FFF70CF9EEE700BFF419002008B5092082
:101CC000FFF704F90A20FFF701F90B20FFF7FEF8F0
:101CD00008BD08B50820FFF7F9F808BD08B5FFF7FB
:101CE000C9FFFFF7B3FFFFF7E9FFFFF7F2FF08BDFA
:101CF00010B504460E4B18784FF47A73B3FBF0F32B
:101D00000C4A1068B0FBF3F001F09CFB68B90F2C93
:101D100001D9012010BD002221464FF0FF3001F013
:101D200053FB054B1C60002010BD012010BD00BFFF
:101D3000420400204C0400204404002008B5074A57
:101D4000136843F010031360032001F02BFB0F20F6
:101D5000FFF7CEFF07F03CF9002008BD002002404D
:101D6000034A1168034B1B780B441360704700BF94
:101D7000E488002042040020014B1868704700BF2F
:101D8000E48800207047704738B50268936803F014
:101D90000303012B11D00023002B37D0936803F0ED
:101DA0000D03012B11D0436C43F010034364836C8B
:101DB00043F001038364012038BD136813F0010F61
:101DC00001D10023E8E70123E6E70446936843F0E6
:101DD00002039360036803221A60FFF7CDFF0546F4
:101DE00023689B6813F0010F0ED0FFF7C5FF401B5F
:101DF0000228F5D9636C43F010036364A36C43F0CD
:101E00000103A364012038BD002038BD002038BD87
:101E100003689A6812F00C0F62D070B50446DA6855
:101E200012F0007F02D0C269012A38D060290CD09C
:101E300023689A6812F0040F07D09A6812F0020F14
:101E400003D19A6842F010029A600C290CD02368E2
:101E50009A6812F0080F07D09A6812F0020F03D1A7
:101E60009A6842F020029A60602935D06C2931D1FD
:101E70000C25FFF781FF064623689B681D422DD085
:101E8000FFF77AFF801B0B28F6D9636C43F0100331
:101E90006364A36C43F00103A364012070BD8269F5
:101EA000012AC3D10022196811F0400F0ED10D494B
:101EB0008A4201D80132F6E7636C43F01003636491
:101EC000A36C43F00103A364012070BD40221A609B
:101ED0000C21ABE70425CCE70825CAE7002070BD3C
:101EE00000207047FF93090038B50268936803F03B
:101EF0000303012B10D00023002B33D191681A4B20
:101F0000194211D0436C43F010034364836C43F0D7
:101F100001038364012038BD136813F0010F01D160
:101F20000023E9E70123E7E70446936843F0010350
:101F30009360FFF721FF054623681B6813F0010F2C
:101F40000ED1FFF719FF401B0228F5D9636C43F04F
:101F500010036364A36C43F00103A364012038BD44
:101F6000002038BD002038BD3F00008008B5406A21
:101F7000436C43F040034364836C43F00403836485
:101F8000FFF701FF08BD08B5406AFFF7FBFE08BD7B
:101F900008B5436A5A6C12F0500F1AD15A6C42F4C9
:101FA00000725A641A68D26812F4406F0DD1DA696F
:101FB0005AB95A6C22F480725A645A6C12F4805FD7
:101FC00003D15A6C42F001025A64184623F086FE8F
:101FD00008BDDB6B1B6B984708BD000030B597B0A0
:101FE00000230093002800F0FB800446436C13F0AC
:101FF000100F51D1436CABB1002023689A6812F0E6
:10200000805F03D09B6813F0005F46D0636C23F0C1
:10201000120343F010036364A36C43F00103A36451
:1020200001203AE083640365C36480F8403006F021
:10203000F3FB23689B6813F0805F01D00020DCE78E
:102040002046FFF7A1FE636C13F0100FD5D10028D6
:10205000D3D1636C23F4885323F0020343F00203CB
:1020600063642268936823F0405393602268936806
:1020700043F0805393605B4B1B685B4AA2FB0323D6
:102080009B0C03EB83035A000092009B002BB4D0FF
:10209000009B013B0093F8E70020636C13F0100FE6
:1020A00040F09580002840F092802268936813F0F9
:1020B000040340F08C80616C21F4817141F00201D5
:1020C0006164B2F1A04F55D04FF0A04101919168E9
:1020D00001F00301012950D0002272B9019D2DB1F8
:1020E000A96801F0030101294FD032B93F498A683C
:1020F00022F4403265682A438A60E2695103A56B85
:10210000012D01D04FF480530B43E1680B43A168CC
:102110000B43616A01293ED0E26A012A02D0216B99
:102120000A4313432268916811F00C0F0BD1D16858
:1021300021F4804121F00201D160A169626B52005B
:1021400042EA813213432168CD68294A2A40134369
:10215000CB602369012B31D02268136B23F00F036E
:1021600013630023A364636C23F0030343F00103B0
:10217000636433E01F490191A9E7126812F0010F6F
:1021800001D10022A9E70122A7E7296811F0010F78
:10219000ABD00122A9E732B9A26A013A43EA42432D
:1021A00043F48033B8E7626C22F0220242F020024E
:1021B0006264A26C42F00102A264ADE721680B6B7D
:1021C00023F00F03226A013A13430B63C9E7636CE0
:1021D00023F0120343F010036364012017B030BDF5
:1021E0000120FBE74C04002083DE1B43000300506A
:1021F00007C0F0FF00010050F8B50468A46814F0AF
:10220000040F02D002252846F8BD90F84030012B7B
:102210007ED0012380F840303E4B9B6813F01F0FA7
:1022200004D0002380F840300125ECE717460E4625
:102230000446FFF759FE0546002865D1636C23F478
:10224000706323F0010343F480736364314B9B6834
:1022500013F01F0F38D02268B2F1A04F34D0636C56
:1022600043F4801363642C4B9A423DD0636C13F4A7
:10227000805F46D0A36C23F00603A364002384F898
:102280004030E36B254A9A62E36B254ADA62E36BDE
:10229000244A1A6323681C221A602268536843F098
:1022A000100353602268D36843F00103D3602168B0
:1022B0003B4632464031E06B01F052F922689368A8
:1022C00043F0040393609EE7636C23F4801363641C
:1022D0002368DB6813F0007FC8D0636C23F440539D
:1022E00043F480536364C1E74FF0A043DB6813F00D
:1022F000007FBBD0636C23F4405343F4805363648A
:10230000B4E70023A364B9E7002384F840307AE7F8
:10231000022578E70003005000010050911F0008DB
:10232000871F00086D1F000838B590F84030012B5A
:1023300002D10224204638BD0546012380F84030F2
:102340006C21FFF765FD044618B1002385F8403085
:10235000F0E72A68D36823F00103D360E86B01F04B
:1023600039F9044618B16B6C43F040036B642A687A
:10237000536823F01003536074B92846FFF704FD37
:102380000446002CE1D16B6C23F4885323F0010345
:1023900043F001036B64D8E72846FFF7F5FCF0E74C
:1023A00070B590F84030012B02D10225284670BD4F
:1023B0000E460446012380F84030FFF7E5FC054651
:1023C000002830D1012363642268936823F080439E
:1023D0009360012E1BD02268936843F00043936002
:1023E000FFF7CAFC064623689B68002B15DAFFF747
:1023F000C3FC801B0A28F6D9636C23F0120343F058
:1024000010036364002384F840300125CEE722687E
:10241000936843F080439360DDE7636C23F003032C
:1024200043F001036364002384F84030BEE70129D0
:1024300005D00368D3F8B40000F07F00704703684C
:10244000D3F8B400000C704770B497B0002200922B
:1024500090F84020012A00F0AD810346012280F867
:1024600040200068826812F0040F40F096814A68AC
:10247000042A31D8046B02EB420255001F22AA4005
:1024800024EA02020C68AC402243026318688268A6
:1024900012F00C0F68D10A68092A4ED9846902EB40
:1024A00042021E3A0725954024EA05048D6805FA84
:1024B00002F22243826148691C68E268C2F3C102E9
:1024C000520000FA02F208690138032800F28F80F6
:1024D000DFE800F0406C7782092A0ED8446B02EBEB
:1024E000420255001E3D1F22AA4024EA02020C6847
:1024F00004FA05F52A434263C8E70E2A0ED8846B16
:1025000002EB420255003C3D1F22AA4024EA02028F
:102510000C6804FA05F52A438263B7E7C46B02EB43
:10252000420255005A3D1F22AA4024EA02020C68CA
:1025300004FA05F52A43C263A8E7446902EB4202A4
:102540000725954024EA05048D6805FA02F2224326
:102550004261B0E7206E984D0540086842EA80620B
:10256000154345F0004525661868826802F00302AD
:10257000012A6FD00022002A40F01A81CC68012C79
:1025800070D0D0F8B0400E680125B54024EA0504AB
:10259000C0F8B0400968102900F08D80112900F0C2
:1025A000AF80122900F0B2800020FBE0606E824D07
:1025B0000540086842EA8062154345F000456566BB
:1025C000D2E7A06E7C4D0540086842EA8062154360
:1025D00045F00045A566C7E7E56E774828400D68D9
:1025E00042EA8562024342F00042E266BCE7226EA4
:1025F00002F0F8420868B2EB806F1CD01868426E97
:1026000002F0F8420C68B2EB846F19D01868826E41
:1026100002F0F8420C68B2EB846F16D01868C26EF4
:1026200002F0F8420C68B2EB846F9DD1C26E22F0CA
:102630000042C26698E7226E22F000422266DDE781
:10264000426E22F000424266E0E7826E22F00042D3
:102650008266E3E7026812F0010F01D100228AE7E7
:10266000012288E7D0F8B0400E680125B5402C4320
:10267000C0F8B040086809280ED91E68B46900EB9C
:1026800040001B380725854024EA05048D6805FABB
:1026900000F02043B0617DE71E687469013000EBF3
:1026A00040000725854024EA05048D6805FA00F0FE
:1026B000204370616EE74148806810F4000F7FF49A
:1026C0006DAF1C68B4F1A04F27D04FF0A04001902F
:1026D000A06800F00300012822D0002A57D1019DF4
:1026E00035B1A86800F0030001281FD0002A4ED1A0
:1026F000102921D0112939D0122941D0002051E0D0
:102700002E48806810F0807FDBD04AE72B48806835
:1027100010F4800FD5D0002044E029480190D7E77D
:10272000206810F0010FD8D00122D6E7286810F0F9
:10273000010FDBD00122D9E7B4F1A04FDAD11F4954
:102740008A6842F400028A601E4A12681E49B2FB7F
:10275000F1F10A2202FB01F2009202E0009A013A32
:102760000092009A002AF9D100201BE0B4F1A04F9A
:10277000C2D112498A6842F080728A60002011E05A
:102780000E498A6842F480028A6000200AE05A6C8E
:1027900042F020025A64012004E05A6C42F0200208
:1027A0005A640120002283F8402017B070BC7047A3
:1027B0000020F7E70220F8E700F0FF830003005055
:1027C000000100504C04002040420F0070B497B04C
:1027D00003460268B2F1A04F40D04FF0A0400190F4
:1027E0000198002800F0888093F84040012C00F008
:1027F0008580012483F84040926812F0040F68D16C
:10280000826812F0040F64D10A68002A37D03C4D68
:10281000AA6822F460424C685E6B44EA4634224364
:10282000AA601C68A26802F00302012A19D00022E3
:10283000002A59D1846804F00304012C19D0002A1D
:1028400054D12F4CA26822F4716222F00F02086862
:10285000896801430A43A26000203FE029480190B3
:10286000BEE7226812F0010F01D10022E0E7012249
:10287000DEE7006810F0010FE1D00122DFE7204918
:102880008A6822F460428A6019688A6802F003024A
:10289000012A10D000225ABB816801F003010129EE
:1028A00011D03ABB16498A6822F4716222F00F02F5
:1028B0008A60002012E00A6812F0010F01D10022A4
:1028C000E9E70122E7E7016811F0010FE9D00122F1
:1028D000E7E75A6C42F020025A640120002283F894
:1028E000402017B070BC70470020F7E70020F5E7E4
:1028F0000020F3E70020F1E70120F2E70220F0E7F3
:102900000003005000010050F0B44B69012202FAAC
:1029100003F30468D4F8002242F00102C4F8002254
:102920000568D5F81C42DA431440C5F81C42CC694E
:10293000C4B90568D5F80C421440C5F80C420668C5
:102940004C69CF688D8845EA0745483446F83450CD
:1029500004684E698F680D8845EA0745483604EBE0
:10296000C6046560CC69012C1ED08C69002C35D161
:102970000568D5F804421440C5F804420C69002CDF
:1029800033D10468D4F814522A40C4F814220A6AD5
:10299000012A31D00268D2F8003223F00103C2F8D4
:1029A00000320020F0BC70470568D5F80C421C438B
:1029B000C5F80C4206684C690F688D8845EA0745E2
:1029C000483446F8345004684E698F688D8945EA6A
:1029D0000745483604EBC6046560C6E70568D5F8C8
:1029E00004421C43C5F80442C8E70468D4F8142222
:1029F0001A43C4F81422CAE70268D2F81C120B4327
:102A0000C2F81C32C6E7002800F0BB8038B5044687
:102A100090F83D3003B3022384F83D3022681368F8
:102A200023F0020313602268136843F0010313606C
:102A3000FFF7A2F9054623685A6812F0010F10D17A
:102A4000FFF79AF9401B0A28F5D9032084F83D00C6
:102A5000002384F83C3038BD80F83C3005F046FF58
:102A6000D9E75A6812F0010F7CD0A269012A50D030
:102A70001A6822F080021A60E369012B4ED02268A6
:102A8000136823F040031360236A012B4CD02268A3
:102A9000136823F020031360636A012B4AD0226875
:102AA000136823F010031360A36A012B48D0226837
:102AB000136823F008031360E36A012B46D02268F1
:102AC000136823F0040313602168A368E2681343CA
:102AD00022691343626913436268013A1343CB616D
:102AE0002268136823F001031360FFF745F90546D8
:102AF00023685A6812F0010F2ED0FFF73DF9401BF2
:102B00000A28F5D9032084F83D00002384F83C30DE
:102B100038BD1A6842F080021A60ADE72268136877
:102B200043F040031360AFE72268136843F02003CB
:102B30001360B1E72268136843F010031360B3E732
:102B40002268136843F008031360B5E7226813682E
:102B500043F004031360B7E75B6813F0010F08D07C
:102B6000002300E0002333B9042384F83D30012022
:102B700038BD0123F7E700202064012384F83D30AD
:102B800038BD012070470268936813F0806F08D148
:102B9000936813F0006F04D1936813F0805F00F026
:102BA0009A8090F83C30012B00F09A80F0B4012319
:102BB00080F83C30936813F0806F05D1936813F070
:102BC000006F59D0012300E0002303F1180109012F
:102BD000545804F001045450016B8A68002A4DD106
:102BE000056803F118021201AC580E68C96841EA81
:102BF00046512143A950016B0A6902F00F020A6194
:102C0000046803F1180211016218546824F00F04DB
:102C1000546002680A445168046B2469214351607E
:102C20000468016BCD7D8A7D120442EA05624D7D08
:102C300042EA0522097D0A431D012C44C4F888217B
:102C40000168046BE67EA27E120442EA0662667E9A
:102C500042EA0622247E22432944C1F88C2190F8BE
:102C60003D20D2B2322A2ED0622A30D0222A12D06F
:102C7000122280F83D2011E00223A6E7066803F146
:102C80001804240135594F6842EAC702C9680A434B
:102C90002A433251AFE7422280F83D2000220264ED
:102CA00080F83C20046818331B01E15841F0010111
:102CB000E15001684B6943F40F4343F001034B615A
:102CC0001046F0BC7047522280F83D20E6E77222A1
:102CD00080F83D20E2E7042380F83D300120704772
:102CE0000220704790F83C30012B00F086800123D1
:102CF00080F83C3099B990F83D30DBB2222B20D0DF
:102D000090F83D30DBB2422B1BD090F83D30DBB267
:102D1000622B16D090F83D30DBB2722B11D0012916
:102D200014D010B4002948D190F83D30DBB2322BDA
:102D30003BD0522B3DD0122B21D0222380F83D30A6
:102D400020E0002380F83C300220704790F83D30AE
:102D5000DBB2322B0ED090F83D30DBB2522B09D0D3
:102D600090F83D30DBB2622B04D090F83D30DBB2FE
:102D7000722BD6D1002380F83C30022070474223CA
:102D800080F83D30002202640468636943F40F4315
:102D9000636180F83C2049B30268536943F05003F3
:102DA000536100205DF8044B7047622380F83D308A
:102DB000E8E7722380F83D30E4E790F83D30DBB27D
:102DC000222B0BD0422B0DD0122B03D0322380F8B4
:102DD0003D30D7E7522380F83D30D3E7622380F8B7
:102DE0003D30CFE7722380F83D30CBE7026853696E
:102DF00043F00A0353610020D4E70220704708B56E
:102E00000268536923F00103536190F83D30DBB24F
:102E1000122B0CD090F83D30DBB2522B14D0722B19
:102E200016D0422B09D0012380F83D3008E002681B
:102E3000536923F40F435361ECE7222380F83D30BC
:102E400023F016FA002008BD322380F83D30F7E762
:102E5000622380F83D30F3E710B50C46002979D1A4
:102E6000436B016804F11B0212018A5802F004024C
:102E70009A60002A70D1016804F11B0212018A587D
:102E8000520D1A60016804F11B0212018958C1F346
:102E90004001D96001681144496801F00F011961CE
:102EA00001680A445268C2F30722DA611C620168B1
:102EB00022011144D1F8B811197501681144D1F8F3
:102EC000B811090A597501681144D1F8B811090CF3
:102ED000997501681144D1F8B811090ED9750168C6
:102EE0001144D1F8BC11197601681144D1F8BC1114
:102EF000090A597601681144D1F8BC11090C997678
:102F000001680A44D2F8BC21120EDA7664BB02686A
:102F1000D36843F02003D3600268536923F00A03A7
:102F2000536190F83D30DBB2222B28D090F83D3031
:102F3000DBB2322B23D0002C36D190F83D30DBB2FF
:102F4000622B29D0722B2BD0422B1ED0012380F86C
:102F50003D301DE0836B84E7016804F11B02120120
:102F60008A58D2085A608DE70268136943F020033B
:102F700013610268536923F050035361D1E702687B
:102F8000536923F40F435361D5E7122380F83D3092
:102F900023F092F9002010BD322380F83D30F7E78E
:102FA000522380F83D30F3E790F83D30DBB2622BDE
:102FB0000BD0722B0DD0522B03D0012380F83D3063
:102FC000E6E7122380F83D30E2E7222380F83D3027
:102FD000DEE7422380F83D30DAE7000038B50446EA
:102FE0000368DA6812F0100F09D05A6912F0080F5E
:102FF00000F09B801022DA604FF4007500E000259D
:1030000023681A6912F0100F07D05A6912F0400FA6
:1030100003D045F4806510221A6123685A6912F0C2
:10302000010F1FD09968634A8A4307D09968624AA2
:103030008A4303D09968614A8A4313D19A6812F08F
:10304000020F07D19A6812F4007F03D19B6813F432
:10305000003F6CD02046FFF7D2FE22689168584BA3
:103060000B43936023685A6912F0020F03D0DB68A8
:1030700013F0030F5ED123685A6912F0100F03D0CA
:103080001B6913F0030F5AD1236C1D432564236879
:103090009A6912F0010F0BD05A6912F4807F07D0A1
:1030A0005A6912F4004F03D0226C42F001022264EC
:1030B0009A6912F0020F0BD05A6912F4007F07D000
:1030C0005A6912F4004F03D0226C42F002022264CB
:1030D0009A6912F0040F0BD05A6912F4806F07D06E
:1030E0005A6912F4004F03D0226C42F004022264A9
:1030F0009A6912F0700F38D05A6912F4006F34D008
:103100005A6912F4004F30D09A6902F07002302AE6
:103110002ED019D9502A30D0602A33D0402A20D15D
:10312000226C42F0400222641BE0002568E745F46F
:10313000006592E700212046FFF78EFE9BE7012104
:103140002046FFF789FE9FE7102A06D0202A08D1E3
:10315000226C42F01002226403E0226C42F008026A
:1031600022649A6922F070029A61236C7BB938BD9F
:10317000226C42F020022264F3E7226C42F08002CB
:103180002264EEE7226C42F480722264E9E722684E
:10319000536843F004035360012384F83D302268F0
:1031A000536923F40F4323F05B035361204623F05C
:1031B0001BF8DCE70100000400010008000001101A
:1031C00019050100002852D010B582B0044690F8CD
:1031D000293013F0100F02D0012002B010BD254B92
:1031E0009A6942F001029A619B6903F0010300931E
:1031F000009B05F0D5FB94F829300BB984F82830F2
:10320000636800200190226811680191019921F002
:1032100070010B430193019B23F00203A1680B4350
:103220000193019B23F44023A1690B430193019B6C
:1032300023F47053E16801F470510B430193019B37
:1032400023F4004321690B430193636901990B4304
:103250000193E36901990B430193236A01990B439D
:103260000193019B1360012384F82930B5E7012005
:10327000704700BF00100240002800F08280034623
:1032800090F8292012F0100F7DD190F82920D2B2A9
:10329000012A01D00120704710B402683B498A42DC
:1032A00039D004318A4239D008318A4230D00122E3
:1032B000596A11F0300F1FD011F0100F36D012F0F4
:1032C000010F2ED03248816A11438162596A11F090
:1032D000200F3FD012F0010F37D02D48C16A1143A3
:1032E000C16212F0010144D0294C606A104360624F
:1032F000002943D026494A6319680A6842F001024E
:103300000A60022283F8292000205DF8044B7047F0
:103310004FF08042CCE74FF40012C9E74FF480022F
:10332000C6E71B48816811438160CFE712F0010FA7
:1033300005D01748816A21EA02018162C6E7144874
:10334000816821EA02018160C0E71148C168114328
:10335000C160C6E712F0010F05D00D48C16A21EA2D
:103360000201C162BDE70A48C16821EA0201C160E9
:10337000B7E7074C606810436060B9E704494A61E9
:10338000BAE7012070470120704700BF1C000140D0
:10339000000401400368186810F0804001D04FF02D
:1033A00080407047074AD36823F4E0631B041B0C7A
:1033B000000200F4E060184340F0BF6040F40030C9
:1033C000D060704700ED00E030B4164BDB68C3F30B
:1033D0000223C3F10704042C28BF04241D1D062D5D
:1033E00017D9033B012505FA04F4013C214099401B
:1033F00005FA03F3013B1340194300280BDB0901D5
:10340000C9B200F1604000F5614080F8001330BCA3
:1034100070470023E6E700F00F000901C9B2024B34
:103420001954F4E700ED00E014ED00E0420900F06B
:103430001F00012303FA00F0014B43F822007047FC
:1034400000E100E00138B0F1807F0AD2064B5860FD
:10345000F021064A82F823100020986007221A60A3
:1034600070470120704700BF10E000E000ED00E071
:10347000042805D0054A136823F00403136070473D
:10348000024A136843F004031360704710E000E041
:1034900070B4C56B066C0124B4406C600468636052
:1034A0004368102B05D0036899600368DA6070BC2C
:1034B000704703689A600368D960F8E702680C4BAC
:1034C0009A420AD90B4B13440B4AA2FB03231B0954
:1034D0009B000364094BC3637047094B1344064ABE
:1034E000A2FB03231B099B000364064BC3637047C5
:1034F00007040240F8FBFDBFCDCCCCCC0004024059
:10350000F8FFFDBF0000024040B310B5044602239F
:1035100080F8213001680A6822F47F5222F03002DC
:10352000436880680343E06803432069034360699C
:103530000343A0690343E069034313430B60204640
:10354000FFF7BCFF0020A062E06220636063A0631D
:10355000012384F8213084F8200010BD0120704739
:1035600038B590F82040012C32D0012480F820405A
:1035700090F82140012C04D0002380F82030022054
:1035800038BD0446022084F821000020A06325688D
:10359000286820F0010028602046FFF779FFE36AE1
:1035A0005BB12268136843F00E031360226813684E
:1035B00043F001031360002038BD2268136843F014
:1035C0000A0313602268136823F004031360EDE715
:1035D000022038BD034601680A6822F00E020A6024
:1035E00001680A6822F001020A60C06B1A6C0121AE
:1035F00001FA02F2426083F82110002083F82000D3
:10360000704708B590F82130022B03D00423836360
:10361000012008BD0268136823F00E0313600268DE
:10362000136823F001031360C16B036C012202FADB
:1036300003F34B6080F82120002380F82030436B97
:1036400013B19847002008BD002008BD38B5C36BF2
:103650001A6804682568016C04238B401A4214D050
:1036600015F0040F11D0236813F0200F03D1236845
:1036700023F004032360C26B016C04238B4053606E
:10368000C36A002B3AD0984738BD02238B401A42B8
:1036900019D015F0020F16D0236813F0200F06D1B1
:1036A000236823F00A032360012380F82130C26BD2
:1036B000016C02238B405360002380F82030836A22
:1036C000E3B1984738BD082303FA01F10A4215D047
:1036D00015F0080F12D0236823F00E032360C16B8E
:1036E000026C012303FA02F24A60836380F82130FE
:1036F000002380F82030036B03B1984738BD0000E9
:10370000F0B583B0002393E04FEAD30E0EF1080E1C
:1037100050F82E4003F00706B6000F27B74024EA02
:1037200007040F6907FA06F6344340F82E408EE08E
:1037300086682640CF6807FA0EF73E4386604668E3
:1037400026EA05054E68C6F300169E4035434560DF
:10375000C5682C408D6805FA0EF52C43C4604C6892
:1037600014F0805F63D04F4CA56945F00105A56159
:10377000A46904F001040194019C9C08A61C4A4D14
:1037800055F8265003F00306B7000F26BE4025EA81
:103790000605B0F1904F77D0444EB04276D006F592
:1037A0008066B04274D006F58066B04272D006F5ED
:1037B0008066B04270D006F58066B0426ED006F5E5
:1037C0008066B0425ED00726BE4035430234364E96
:1037D00046F82450364C2568D44305EA04064F6861
:1037E00017F4803F01D042EA0506314D2E606D6826
:1037F00004EA05064F6817F4003F01D042EA0506C7
:103800002B4D6E60AD6804EA05064F6817F4801F03
:1038100001D042EA0506264DAE60ED682C404E68A8
:1038200016F4001F01D042EA0504214AD460013396
:103830000A6832FA03F433D001259D402A40F6D0BD
:103840004C68022C3FF460AF122C3FF45DAF066869
:103850004FEA430E032404FA0EF4E44326404F6873
:1038600007F0030707FA0EF73E4306604E68771E1F
:10387000012F7FF65DAF112E3FF45AAF122E7FF469
:1038800067AF55E706269FE700269DE701269BE7E1
:10389000022699E7032697E7042695E7052693E78E
:1038A00003B0F0BD001002400000014000040048D9
:1038B000000401400369194201D100207047012032
:1038C00070470AB98162704781617047002859D0FA
:1038D00010B5044690F84130002B43D0242384F8DF
:1038E00041302268136823F0010313602268636883
:1038F00023F0706313612268936823F4004393609C
:10390000E368012B33D02268A36843F40443936037
:10391000E368022B31D02268536843F0007343F40C
:10392000004353602268D36823F40043D3602268C5
:10393000236961690B43A16943EA0123D3602268CB
:10394000E369216A0B4313602268136843F00103A3
:10395000136000206064202384F84130206384F8E1
:10396000420010BD80F8403005F07CF9B6E72268CF
:10397000A36843F400439360CAE723684FF40062EE
:103980005A60C8E70120704790F84130DBB2202B25
:1039900001D00220704790F84030012B20D0012345
:1039A00080F84030242380F841300268136823F007
:1039B000010313600268136823F4805313600268E4
:1039C0001368194311600268136843F00103136020
:1039D000202380F84130002380F84030184670479B
:1039E0000220704790F84130DBB2202B01D002203A
:1039F000704790F84030012B1ED0012380F84030F2
:103A0000242380F841300268136823F00103136017
:103A10000268136823F4706343EA012111600268AD
:103A2000136843F001031360202380F84130002322
:103A300080F84030184670470220704740B338B5D0
:103A4000044603684CF6CC421A60036845F25552AE
:103A50001A60036842685A60036882689A60FEF7D9
:103A60008BF905462368DA6832B1FEF785F9401B09
:103A70003028F7D9032038BD1969E268914202D095
:103A80001A61002038BD4AF6AA221A60002038BD0B
:103A90000120704703684AF6AA221A600020704786
:103AA000024A136843F4807313607047007000404B
:103AB00070B582B00446036813F0010F5ED0B34BBB
:103AC0005B6803F00C03042B41D0B04B5B6803F040
:103AD0000C03082B34D06368B3F5803F00F0898075
:103AE000002B40F08C8003F1804303F504331A6807
:103AF00022F480321A601A6822F480221A60636805
:103B0000002B00F09680FEF737F905464FF400339E
:103B100093FAA3F39D4B19684FF4003393FAA3F380
:103B2000B3FA83F303F01F03012202FA03F31942ED
:103B300024D1FEF721F9401B6428E7D90320BAE21B
:103B4000924B5B6803F4C033B3F5803FC3D14FF4AD
:103B5000003393FAA3F38D4B19684FF4003393FAB3
:103B6000A3F3B3FA83F303F01F03012202FA03F372
:103B7000194203D06368002B00F09082236813F091
:103B8000020F00F09E80814B5B6813F00C0F74D025
:103B90007E4B5B6803F00C03082B67D0E368002BB7
:103BA00000F0CD80012292FAA2F3B3FA83F303F17D
:103BB000845303F584139B001A60FEF7DDF8054675
:103BC000022393FAA3F3714B1968022393FAA3F328
:103BD000B3FA83F303F01F03012202FA03F319423D
:103BE00040F09E80FEF7C8F8401B0228E8D9032069
:103BF00061E2664A136843F4803313607FE7B3F5EC
:103C0000A02F09D0614B1A6822F480321A601A681A
:103C100022F480221A6072E703F18043A3F53C335B
:103C20001A6842F480221A601A6842F480321A60DC
:103C300065E7FEF7A1F805464FF4003393FAA3F3C6
:103C4000524B19684FF4003393FAA3F3B3FA83F39A
:103C500003F01F03012202FA03F319428ED0FEF78C
:103C60008BF8401B6428E7D9032024E2474B5B68AC
:103C700003F4C033B3F5004F90D1022393FAA3F3BA
:103C8000424B1968022393FAA3F3B3FA83F303F0C8
:103C90001F03012202FA03F3194204D0E36893429E
:103CA00001D0012007E23948036823F0F8032169B5
:103CB000F82292FAA2F2B2FA82F201FA02F2134365
:103CC0000360236813F0080F00F08C806369002BF9
:103CD00060D0012191FAA1F2B2FA82F22C4B134486
:103CE0009B001960FEF748F80546022393FAA3F2F9
:103CF00093FAA3F293FAA3F2244A516A93FAA3F334
:103D0000B3FA83F303F01F03012202FA03F319420B
:103D100068D1FEF731F8401B0228E6D90320CAE13A
:103D20001A48036823F0F8032169F82292FAA2F2F4
:103D3000B2FA82F201FA02F213430360C1E70123EF
:103D400093FAA3F3B3FA83F303F1845303F58413D3
:103D50009B0000221A60FEF70FF80546022393FA33
:103D6000A3F30A4B1968022393FAA3F3B3FA83F37C
:103D700003F01F03012202FA03F31942A1D0FDF759
:103D8000FBFF401B0228E9D9032094E10010024008
:103D900020819010012292FAA2F2B2FA82F2C04B74
:103DA00013449B0000221A60FDF7E6FF054602233C
:103DB00093FAA3F293FAA3F293FAA3F2B94A516ADF
:103DC00093FAA3F3B3FA83F303F01F03012202FA79
:103DD00003F3194206D0FDF7CFFF401B0228E6D9B6
:103DE000032068E1236813F0040F00F0B380AD4BAB
:103DF000DB6913F0805F0BD1AA4BDA6942F0805285
:103E0000DA61DB6903F080530193019B012500E037
:103E10000025A54B1B6813F4807F16D0A368012BE7
:103E200027D063BB03F1804303F504331A6A22F001
:103E300001021A621A6A22F004021A62A368002BB5
:103E40005BD0FDF799FF064645E0974A136843F4B7
:103E500080731360FDF790FF0646934B1B6813F4C5
:103E6000807FDBD1FDF788FF801B6428F5D9032014
:103E700021E18C4A136A43F001031362DEE7052B4C
:103E800009D0884B1A6A22F001021A621A6A22F0DB
:103E900004021A62D2E7834B1A6A42F004021A62E1
:103EA0001A6A42F001021A62C8E77E4B196A0223BD
:103EB00093FAA3F3B3FA83F303F01F03012202FA88
:103EC00003F3194245D1FDF757FF801B41F28833B8
:103ED000984200F2EB80022393FAA3F293FAA3F341
:103EE000B3FA83F35B0943F00203022BDDD0022314
:103EF00093FAA3F36B4B596AD9E7FDF73DFF0646EA
:103F000015E0684B196A022393FAA3F3B3FA83F31B
:103F100003F01F03012202FA03F3194219D0FDF73F
:103F20002BFF801B41F28833984200F2C1800223AC
:103F300093FAA3F293FAA3F3B3FA83F35B0943F082
:103F40000203022BDDD0022393FAA3F3554B596AE7
:103F5000D9E7B5BBA369002B00F0AC80514A526889
:103F600002F00C02082A00F0A880022B2FD04FF09C
:103F7000807393FAA3F3B3FA83F303F1845303F545
:103F800084139B0000221A60FDF7F6FE04464FF0F2
:103F9000007393FAA3F3434B19684FF0007393FA3D
:103FA000A3F3B3FA83F303F01F03012202FA03F32E
:103FB000194271D0FDF7E0FE001B0228E7D903206B
:103FC00079E0384AD36923F08053D361C2E74FF0D8
:103FD000807393FAA3F3B3FA83F303F1845303F5E5
:103FE00084139B0000221A60FDF7C6FE05464FF0C1
:103FF000007393FAA3F32B4B19684FF0007393FAF5
:10400000A3F3B3FA83F303F01F03012202FA03F3CD
:10401000194206D0FDF7B0FE401B0228E7D9032065
:1040200049E0204AD36A23F00F03616A0B43D3624D
:10403000536823F47613216AE06901430B4353600C
:104040004FF0807393FAA3F3B3FA83F303F184532D
:1040500003F584139B0001221A60FDF78DFE0446D0
:104060004FF0007393FAA3F30E4B19684FF00073EF
:1040700093FAA3F3B3FA83F303F01F03012202FAC6
:1040800003F3194206D1FDF777FE001B0228E7D99A
:10409000032010E000200EE000200CE001200AE0E8
:1040A000208190100010024000700040032002E0C8
:1040B000032000E0002002B070BD0120FBE700BF3C
:1040C000174B5B6803F00C02082A26D103F4701129
:1040D0004FF4701292FAA2F2B2FA82F221FA02F2CC
:1040E0001049885C0E4AD26A02F00F020F2191FA41
:1040F000A1F1B1FA81F1CA400B498A5C13F4803F07
:1041000005D10A4BB3FBF2F303FB00F07047074BFA
:10411000B3FBF2F303FB00F070470448704700BFA5
:1041200000100240DC520308EC52030800127A002F
:10413000704B1B6803F007038B420CD26D4A136867
:1041400023F007030B431360136803F0070399423E
:1041500001D00120704770B5036813F0020F06D03C
:10416000654A536823F0F0038468234353600D4687
:104170000446036813F0010F7AD04368012B2FD057
:10418000022B42D0022292FAA2F25B4A106802226B
:1041900092FAA2F2B2FA82F202F01F02012101FAAF
:1041A00002F2104200F0A48053494A6822F0030250
:1041B00013434B60FDF7E0FD06466368012B39D0E1
:1041C000022B46D04C4B5B6813F00C0F50D0FDF720
:1041D000D3FD801B41F288339842F3D9032070BD90
:1041E0004FF4003292FAA2F2434A10684FF40032C0
:1041F00092FAA2F2B2FA82F202F01F02012101FA4F
:1042000002F21042D0D1012070BD4FF0007292FA3C
:10421000A2F2394A10684FF0007292FAA2F2B2FA92
:1042200082F202F01F02012101FA02F21042BBD118
:10423000012070BD304B5B6803F00C03042B17D0DA
:10424000FDF79AFD801B41F288339842F2D9032092
:1042500070BD294B5B6803F00C03082B08D0FDF7F9
:104260008BFD801B41F288339842F2D9032070BD48
:10427000204B1B6803F007039D420CD21D4A1368B4
:1042800023F007032B431360136803F007039D42D9
:1042900001D0012070BD236813F0040F06D0164A28
:1042A000536823F4E063E1680B435360236813F021
:1042B000080F07D0104A536823F46053216943EA7A
:1042C000C1035360FFF7FCFE0B4B5B6803F0F00388
:1042D000F02292FAA2F2B2FA82F2D340074AD35CF9
:1042E000D840074B18600F20FDF702FD002070BD7D
:1042F000012070BD002002400010024088530308D6
:104300004C040020014B1868704700BF4C0400208B
:1043100008B5FFF7F7FF074B5B6803F4E0634FF462
:10432000E06292FAA2F2B2FA82F2D340024AD35C7D
:10433000D84008BD001002409853030808B5FFF7A5
:10434000E1FF074B5B6803F460534FF4605292FA4D
:10435000A2F2B2FA82F2D340024AD35CD84008BD3E
:104360000010024098530308F0B583B00446036878
:1043700013F4803F48D0A94BDB6913F0805F40F015
:104380000181A64BDA6942F08052DA61DB6903F001
:1043900080530193019B0125A14B1B6813F4807F7F
:1043A00000F0F2809D4B1B6A13F4407322D06268C8
:1043B00002F4407293421DD09848016A21F440767D
:1043C0004FF4803393FAA3F2B2FA82F2954F3A4453
:1043D00092004FF0010EC2F800E093FAA3F3B3FA93
:1043E00083F33B449B0000221A60066211F0010F28
:1043F00040F0DF80894A136A23F4407361680B43FD
:104400001362002D40F00181236813F0010F06D0E4
:10441000824A136B23F00303A1680B4313632368E1
:1044200013F0020F06D07D4A136B23F44033E1688A
:104430000B431363236813F0040F06D0774A136B02
:1044400023F4402321690B431363236813F0200FE7
:1044500006D0724A136B23F01003E1690B43136318
:10446000236813F4003F06D06C4A536823F480039A
:10447000A16C0B435360236813F0400F06D0674ACA
:10448000136B23F02003216A0B431363236813F497
:10449000802F06D0614A136B23F04003616A0B43FF
:1044A0001363236813F0080F06D05C4A136B23F4E0
:1044B000401361690B431363236813F0100F06D098
:1044C000564A136B23F44003A1690B43136323681B
:1044D00013F4007F06D0514A536823F40003E16AC5
:1044E0000B435360236813F0800F06D04B4AD36A06
:1044F00023F4F873A16A0B43D362236813F4805F3B
:1045000006D0464A136B23F48073216B0B4313636D
:10451000236813F4801F06D0404A136B23F0807386
:10452000616B0B431363236813F4001F06D03B4AEF
:10453000136B23F00073A16B0B431363236813F415
:10454000800F06D0354A136B23F48063E16B0B4375
:104550001363236813F4000F06D0304A136B23F45F
:104560000063216C0B431363236813F0807F53D0E7
:104570002A4A136B23F40053616C0B43136300202E
:1045800003B0F0BD002507E7254A136843F48073A4
:104590001360FDF7F1FB0646214B1B6813F4807F87
:1045A0007FF400AFFDF7E8FB801B6428F4D90320FB
:1045B000E6E7FDF7E1FB064615E0184B196A022312
:1045C00093FAA3F3B3FA83F303F01F03012202FA71
:1045D00003F319427FF40EAFFDF7CEFB801B41F2CF
:1045E0008833984216D8022393FAA3F293FAA3F3DE
:1045F000B3FA83F35B0943F00203022BDDD00223FD
:1046000093FAA3F3054B596AD9E7D36923F0805392
:10461000D361F9E60320B3E70020B1E700100240C0
:104620000070004000819010F8B505460F46164610
:104630001C4639E02CB1FDF79FFB069BC01A844253
:1046400032D82A68536823F0E00353606B68B3F5EF
:10465000827F0BD0AB6AB3F5005F14D0012385F8DD
:104660005D30002385F85C300320F8BDAB68B3F5FE
:10467000004F02D0B3F5806FECD12A68136823F0A5
:1046800040031360E6E72A68136823F400531360BD
:104690002A68136843F400531360DFE70123B34231
:1046A00009D0B4F1FF3FC5D12B689B6837EA0303FB
:1046B000F4D00023F3E70020F8BDF0B583B007463F
:1046C0000C4615461E4602E0B6F1FF3F10D13A688F
:1046D00093682340AB423FD0B4F5C06FF4D1002DB6
:1046E000F2D1137BDBB28DF807309DF80730EBE792
:1046F0002EB1FDF741FB089BC01A8642E7D83A6805
:10470000536823F0E00353607B68B3F5827F0BD0DE
:10471000BB6AB3F5005F14D0012387F85D30002336
:1047200087F85C30032018E0BB68B3F5004F02D077
:10473000B3F5806FECD13A68136823F0400313603F
:10474000E6E73A68136823F4005313603A68136885
:1047500043F400531360DFE7002003B0F0BD70B5F1
:1047600082B004460D46164600920B4600224FF4D6
:10477000C051FFF7A2FF38B1236E43F02003236638
:104780000323184602B070BD00962B4600228021FC
:104790002046FFF749FF28B1236E43F0200323662C
:1047A0000323EEE700962B4600224FF4C06120461B
:1047B000FFF783FF03460028E3D0236E43F0200376
:1047C00023660323DDE770B582B004460D46164626
:1047D0004368B3F5827F10D000962B4600228021DB
:1047E0002046FFF721FF0346A0B1236E43F02003CC
:1047F00023660323184602B070BD8368B3F5004FEB
:1048000002D0B3F5806FE7D12268136823F040032C
:104810001360E1E76268B2F5827FEBD1A268B2F57E
:10482000004F02D0B2F5806FE4D100962B460022F3
:104830004FF4C0612046FFF740FF03460028D9D05F
:10484000236E43F0200323660323D3E7002858D0C8
:1048500010B504460023836290F85D30002B45D0EC
:10486000022384F85D302268136823F0400313604C
:10487000E368B3F5E06F3ED90021B3F5706F04D063
:10488000B3F5E06F01D00022A262226B22B9B3F52A
:10489000E06F33D90223236322686368A06803436F
:1048A0002069034360690343A06900F40070034377
:1048B000E0690343206A0343A06A0343136022684C
:1048C000638B03F00403606A0343606B0343E06897
:1048D00003430B4353602268D36923F40063D3611D
:1048E00000202066012384F85D3010BD80F85C3024
:1048F00004F0EEFAB4E74FF48051BEE701232363DE
:10490000CAE701207047000090F85C30012B7FD08F
:1049100010B50446012380F85C3090F85D30DBB2BE
:10492000012B04D00220002384F85C3010BD002944
:104930006AD0002A6AD0032380F85D300023036622
:1049400081638287C28703640365C364A0F844302F
:10495000A0F846308368B3F5004F36D0636D2D4A1A
:10496000DA62636D2C4A9A62636D2C4A1A63636D36
:1049700000225A632268536823F480435360E3683B
:10498000B3F5E06F04D8636D5B69B3F5806F22D037
:104990002268E38F9BB20C32A16B606DFEF7E0FDE5
:1049A00023681A6812F0400F03D11A6842F04002DF
:1049B0001A602268536843F02003536022685368EA
:1049C00043F0020353600020ADE70268136843F42C
:1049D00080431360C2E7E38F13F0010F09D122680F
:1049E000536823F480435360E38FC3F34E03E3879C
:1049F000CEE72268536843F480435360E38FC3F3E8
:104A00004E030133E387C3E701208CE701208AE7E7
:104A1000022070476D4D0008B34D0008914D00080D
:104A200038B590F85C40012C00F0E4800446012089
:104A300084F85C0094F85D00C0B2656801280FD06E
:104A4000B5F5827F04D00220002384F85C3038BDA5
:104A5000A568002D40F0C680042801D00220F3E7AD
:104A6000002900F0C180002A00F0C080002B00F077
:104A7000BF8094F85D00C0B2042802D0052084F8FD
:104A80005D0000202066A163A387E3872264A4F869
:104A90004430A4F84630E06420652268536823F46B
:104AA000C0435360E368B3F5E06F49D922685368A7
:104AB00023F48053536094F85D30DBB2042B00F094
:104AC0008A80A36D4C4ADA62A36D4C4A9A62A36D48
:104AD0004B4A1A63A36D00255D632168B4F8463024
:104AE0009BB2226C0C31A06DFEF73AFD2268536830
:104AF00043F001035360636DDD62636D9D62636D1E
:104B00001D63636D5D632268E38F9BB20C32A16B02
:104B1000606DFEF725FD23681A6812F0400F03D17F
:104B20001A6842F040021A602268536843F020037A
:104B300053602268536843F002035360002083E708
:104B40002268536843F480535360636D5B69B3F527
:104B5000806F1AD0A36D5B69B3F5806FABD122680B
:104B6000536823F480535360B4F8463013F0010FB8
:104B700024D12268536823F400535360B4F84630BC
:104B8000C3F34E03A4F8463095E7A38F13F0010F4B
:104B900009D12268536823F480435360E38FC3F341
:104BA0004E03E387D6E72268536843F4804353609B
:104BB000E38FC3F34E030133E387CBE722685368E7
:104BC00043F400535360B4F84630C3F34E0301334B
:104BD000A4F846306FE7A36D0A4ADA62A36D0A4A69
:104BE0009A6274E702202FE701202DE701202BE7CE
:104BF000012029E7022038BD854D00087B4E0008C2
:104C0000914D0008794D0008234E000838B5044640
:104C100085681DB94368B3F5827F11D094F85C00B4
:104C2000012800F09980012384F85C3094F85D003D
:104C3000C0B298420CD00220002384F85C3038BD0A
:104C4000042380F85D3013460A46FFF7E9FE38BDBD
:104C500000297DD0002A7DD0042384F85D30002314
:104C600023662164A4F84420A4F84620E364236565
:104C7000A387E387B5F5004F37D02268536823F444
:104C800000535360E368B3F5E06F34D9226853688A
:104C900023F480535360A36D304ADA62A36D304A27
:104CA0009A62A36D2F4A1A63A36D00225A6321688A
:104CB000B4F846309BB2226C0C31A06DFEF750FC6C
:104CC00023681A6812F0400F03D11A6842F04002BC
:104CD0001A602268536843F02003536022685368C7
:104CE00043F0010353600020A6E72268136823F411
:104CF00080431360C1E72268536843F480535360D4
:104D0000A36D5B69B3F5806FC5D12268536823F446
:104D100080535360B4F8463013F0010F0BD1226872
:104D2000536823F400535360B4F84630C3F34E0382
:104D3000A4F84630AFE72268536843F40053536049
:104D4000B4F84630C3F34E030133A4F84630A2E76B
:104D5000012071E701206FE7022038BD794D00087E
:104D6000234E0008914D00087047704708B5406A0F
:104D7000FFF7FBFF08BD704708B5406AFFF7FBFF70
:104D800008BD704708B5406AFFF7FBFF08BD7047D4
:104D900008B5406A0268536823F003035360036E4A
:104DA00043F010030366012380F85D30FFF7EFFF47
:104DB00008BD30B583B00546446AFCF7DDFF2B68BB
:104DC0001B6813F0200F23D12268536823F02003BF
:104DD00053602268536823F0020353600246642143
:104DE0002046FFF7BCFC18B1236E43F02003236676
:104DF000A36833B901932368DA6801929B68019331
:104E0000019B0023E387012384F85D30236E23B9DF
:104E1000204622F073FF03B030BD2046FFF7B7FFF6
:104E2000F9E738B50546446AFCF7A6FF2B681B680E
:104E300013F0200F19D12268536823F02003536028
:104E40002268536823F0030353600246642120461E
:104E5000FFF7B9FC08B1202323660023A4F84630ED
:104E6000012384F85D30236E1BB9204622F028FF11
:104E700038BD2046FFF78BFF38BD38B50546446A7C
:104E8000FCF77AFF2B681B6813F0200F1CD12268F7
:104E9000536823F020035360024664212046FFF745
:104EA0005EFC18B1236E43F020032366226853682A
:104EB00023F0030353600023E387A4F84630012363
:104EC00084F85D30236E1BB92046FFF74DFF38BDD7
:104ED0002046FFF75CFF38BD10B4036A046A24F073
:104EE00001040462846924F0F00444EA021223F00D
:104EF0000A030B43826103625DF8044B704710B4F0
:104F0000036A23F0100303628469036A24F4704483
:104F100044EA023223F0A00343EA011382610362F0
:104F20005DF8044B7047836823F0700341F007017C
:104F30000B4383607047022380F83D30026813689A
:104F400043F001031360012380F83D3000207047D7
:104F5000704700000368274A904245D0B0F1804F67
:104F600042D0A2F5943290423ED002F58062904247
:104F70003AD0204A904216D0B0F1804F13D0A2F51B
:104F8000943290420FD002F5806290420BD002F52D
:104F90009C32904207D002F58062904203D002F525
:104FA0008062904203D123F44073CA68134323F014
:104FB00080034A69134303608B68C3620B68836292
:104FC0000C4B98420BD003F5A053984207D003F541
:104FD0008063984203D003F58063984201D10B6946
:104FE000036301234361704723F070034A6813434E
:104FF000BFE700BF002C0140A8B110B5044690F8EF
:105000003D305BB1022384F83D30211D2068FFF75D
:10501000A1FF012384F83D30002010BD80F83C3012
:1050200004F0F8F8EEE701207047A8B110B5044687
:1050300090F83D305BB1022384F83D30211D20689B
:10504000FFF788FF012384F83D30002010BD80F871
:105050003C30FFF77DFFEEE701207047A8B110B5A7
:10506000044690F83D305BB1022384F83D30211DA9
:105070002068FFF76FFF012384F83D30002010BD4A
:1050800080F83C3004F01CF9EEE701207047000086
:1050900030B4036A23F001030362036A446882693F
:1050A00022F4803222F073020D682A4323F00203B7
:1050B0008D682B43184DA84227D005F5A055A8426E
:1050C00023D005F58065A8421FD005F58065A8426C
:1050D0001BD0114DA8420BD005F5A055A84207D012
:1050E00005F58065A84203D005F58065A84205D185
:1050F00024F440744D692C438D692C4344608261D3
:105100004A684263036230BC704723F00803CD68ED
:105110002B4323F00403DCE7002C014030B4036A86
:1051200023F010030362036A4468826922F08072EC
:1051300022F4E6420D6842EA052223F020038D683E
:1051400043EA0513144DA8421DD0134DA8420BD0BD
:1051500005F5A055A84207D005F58065A84203D003
:1051600005F58065A84207D124F440644D6944EAFE
:1051700085048D6944EA8504446082614A688263DB
:10518000036230BC704723F08003CD6843EA051307
:1051900023F04003D9E700BF002C014030B4036A7C
:1051A00023F480730362036A4468C26922F4803284
:1051B00022F073020D682A4323F400738D6843EADA
:1051C0000523144DA8421DD0124DA8420BD005F561
:1051D000A055A84207D005F58065A84203D005F583
:1051E0008065A84207D124F440544D6944EA05146F
:1051F0008D6944EA05144460C2614A68C26303626F
:1052000030BC704723F40063CD6843EA052323F4E0
:105210008063D9E7002C014030B4036A23F4805343
:105220000362026A4468C36923F0807323F4E6438F
:105230000D6843EA052322F400528D6842EA0532E4
:105240000D4DA8420BD005F5A055A84207D005F595
:105250008065A84203D005F58065A84204D124F4F6
:1052600080444D6944EA85144460C3614B6803641B
:10527000026230BC704700BF002C014010B484684B
:1052800024F47F4442EA032319430C4384605DF80D
:10529000044B704790F83C30012B00F0828010B531
:1052A0000446012380F83C30022380F83D30026838
:1052B00090683D4B034093600B68402B5DD010D944
:1052C000702B40D01FD8502B4DD0602B34D1CA68E2
:1052D00049682068FFF713FE60212068FFF723FE6E
:1052E0002AE0102B53D008D9202B55D0302B23D1B6
:1052F00030212068FFF717FE1EE0EBB9002120687F
:10530000FFF711FE18E0B3F5805F0ED0B3F5005F34
:1053100012D1CB684A6889682068FFF7AFFF22681E
:10532000936843F48043936006E02268936823F413
:10533000803323F007039360012384F83D3000207D
:1053400084F83C0010BDCB684A6889682068FFF784
:1053500095FF2268936823F4803323F0770343F0AA
:1053600077039360E8E7CA6849682068FFF7B4FDEF
:1053700050212068FFF7D7FDDEE7CA68496820683A
:10538000FFF7AAFD40212068FFF7CDFDD4E71021EB
:105390002068FFF7C8FDCFE720212068FFF7C3FD95
:1053A000CAE70220704700BF8800FEFF10B5026800
:1053B000936823F070034C68234323F4803323F075
:1053C00007030C68234393604B68502B1FD00AD906
:1053D000602B22D0702B25D10B698A68C9680068C0
:1053E000FFF74CFF10BD402B10D103681C6A1A6AEE
:1053F00022F001021A620268936923F0F00309693E
:1054000043EA0113936103681C6210BD10BD0A6971
:1054100089680068FFF760FD10BD0A698968006847
:10542000FFF76DFD10BD38B590F83C30012B01D170
:10543000022038BD0446012580F83C50022380F844
:105440003D30FFF7B3FF2268D36823F04003D360F9
:105450002268D36823F48043D36084F83D50002051
:1054600084F83C0038BD10B4012303FA01F4036A48
:1054700023EA04030362036A8A40134303625DF86C
:10548000044B704710B5044601220068FFF7EBFF9C
:105490002368124A93421AD002F5A052934218D0C0
:1054A00002F58062934216D002F5806293420CD0DE
:1054B00000221AB15A6C42F400425A6422681368FE
:1054C00043F001031360002010BD0122F1E7012227
:1054D000EFE70122EDE70122EBE700BF002C0140DE
:1054E00010B5044600220068FFF7BDFF23681D4A7F
:1054F000934231D002F5A05293422FD002F5806240
:1055000093422DD002F58062934223D000226AB1EB
:10551000196A41F21112114208D1196A40F244424B
:10552000114203D15A6C22F400425A642368196A6A
:1055300041F21112114208D1196A40F2444211425B
:1055400003D11A6822F001021A60012384F83D3069
:10555000002010BD0122DAE70122D8E70122D6E7B8
:105560000122D4E7002C014030B4036A23F48033D5
:105570000362026A4468436D23F4803323F07003AE
:105580000D682B4322F400328D6842EA05420D4D2E
:10559000A8420BD005F5A055A84207D005F58065B7
:1055A000A84203D005F58065A84204D124F48034D4
:1055B0004D6944EA0524446043654B688365026293
:1055C00030BC7047002C014030B4036A23F48013D0
:1055D0000362026A4468436D23F0807323F4E0435E
:1055E0000D6843EA052322F400128D6842EA055251
:1055F0000D4DA8420BD005F5A055A84207D005F5E2
:105600008065A84203D005F58065A84204D124F442
:1056100080244D6944EA8524446043654B68C36532
:10562000026230BC704700BF002C014090F83C3053
:10563000012B34D010B50446012380F83C300223FE
:1056400080F83D30142A0FD8DFE802F00B0E0E0E62
:10565000150E0E0E190E0E0E1D0E0E0E210E0E0E36
:1056600025000068FFF714FD012384F83D30002079
:1056700084F83C0010BD0068FFF750FDF4E70068B7
:10568000FFF78CFDF0E70068FFF7C6FDECE7006868
:10569000FFF76AFFE8E70068FFF796FFE4E70220FC
:1056A000704738B590F83C30012B00F092800D46E1
:1056B0000446012380F83C30022380F83D30142A50
:1056C0001ED8DFE802F00B1D1D1D241D1D1D381DF9
:1056D0001D1D4B1D1D1D5F1D1D1D72000068FFF768
:1056E000D7FC2268936943F00803936122689369A9
:1056F00023F0040393612268936929690B43936142
:10570000012384F83D30002084F83C0038BD006857
:10571000FFF704FD2268936943F4006393612268F4
:10572000936923F48063936122689369296943EA4A
:1057300001239361E4E70068FFF730FD2268D36935
:1057400043F00803D3612268D36923F00403D361D3
:105750002268D36929690B43D361D1E70068FFF759
:105760005BFD2268D36943F40063D3612268D36987
:1057700023F48063D3612268D369296943EA012352
:10578000D361BDE70068FFF7EFFE2268536D43F079
:10579000080353652268536D23F0040353652268A0
:1057A000536D29690B435365AAE70068FFF70CFFA7
:1057B0002268536D43F4006353652268536D23F4EC
:1057C000806353652268536D296943EA0123536559
:1057D00096E7022038BD000090F83C30012B1FD026
:1057E00030B4012380F83C3004686368A2680D4D32
:1057F000AC4210D023F070030D682B4322F08002DE
:1058000089680A43636003689A60002380F83C302B
:10581000184630BC704723F470034D682B43E9E70A
:1058200002207047002C014090F83C30012B3ED004
:1058300010B4012380F83C30CB6823F440738A68AD
:10584000134323F480634A68134323F400630A6814
:10585000134323F480530A69134323F400534A6922
:10586000134323F480438A6A134323F4004313430E
:1058700023F470238A6943EA024302680D4CA24272
:1058800007D05364002380F83C3018465DF8044B81
:10589000704723F470034C6A43EA045323F0807387
:1058A000CC69234323F00073096A0B43E9E7022024
:1058B000704700BF002C01400268136823F0C0034A
:1058C0001360202380F8693070470268136823F45E
:1058D000907313600268936823F0010393602023A0
:1058E00080F86A30704790F86A30DBB2202B01D024
:1058F00002207047002947D0002A47D090F868302E
:10590000012B45D0012380F868304165A0F858206C
:10591000A0F85A208368B3F5805F06D0A3B9036965
:1059200073B9FF23A0F85C3011E0036923B940F29A
:10593000FF13A0F85C300AE0FF23A0F85C3006E01B
:105940007F23A0F85C3002E0B3F1805F12D0002327
:10595000C366222280F86A2080F8683001688A686D
:1059600042F001028A6001680A6842F490720A609B
:105970001846704703691BB97F23A0F85C30E6E73F
:105980003F23A0F85C30E2E7012070470120704718
:105990000220704738B590F86940E4B2202C01D05D
:1059A000022038BD002933D0002A33D090F8683067
:1059B000012B01D1022038BD13460446012280F894
:1059C0006820C164A0F85030A0F852300025C566A8
:1059D000212280F86920026E0F499162026E0F4900
:1059E000D162026E0E491163026E5563026828325D
:1059F000C16C006EFDF7B4FD236840221A6284F882
:105A000068502268936843F080039360284638BD4D
:105A1000012038BD012038BD255A0008575A00081A
:105A2000615A000808B5436A0268126812F0200F34
:105A30000DD10022A3F8522019688A6822F0800252
:105A40008A601A68136843F04003136008BD184663
:105A500021F0B5F908BD08B5406A21F0B5F908BDD7
:105A600010B5446A94F86930DBB2212B0CD094F85D
:105A70006A30DBB2222B13D0E36E43F01003E366EF
:105A8000204621F0ABF910BD23689B6813F0800F0E
:105A9000EDD00023A4F852302046FFF70DFFE6E7D3
:105AA00023689B6813F0400FE6D00023A4F85A3017
:105AB0002046FFF70AFFDFE708B5406A0023A0F899
:105AC0005A30A0F8523021F089F908BD38B50446A3
:105AD00083680269134342691343C269134301682F
