:020000040800F2
:1000000000F00020857E0208ED8E0008558F000864
:10001000C18F00082D900008999000080000000092
:10002000985E03080000000000000000016A00085C
:100030000591000800000000A16A0008079100086F
:10004000D57E0208D57E0208D57E0208D57E02083C
:10005000D57E0208D57E0208D57E0208D57E02082C
:10006000D57E0208D57E0208D57E020815910008CB
:10007000259100083591000845910008D57E0208B9
:10008000D57E020855910008D57E020865910008CA
:1000900075910008D57E020885910008D57E02087A
:1000A000D57E0208D57E0208D57E0208D57E0208DC
:1000B000D57E0208D57E0208D57E0208D57E0208CC
:1000C000D57E0208D57E0208D57E0208D57E0208BC
:1000D000D57E020895910008AD910008C5910008F1
:1000E000D57E0208D57E0208D57E020800000000F9
:1000F0000000000000000000000000000000000000
:10010000D57E02080000000000000000D57E020835
:10011000D57E0208D57E0208D57E020800000000C8
:10012000D57E0208D57E0208D57E0208D57E02085B
:10013000D57E020800000000000000000000000062
:10014000D57E0208D57E02080000000000000000F5
:10015000000000000000000000000000000000009F
:10016000D57E0208D57E0208D57E0208D57E02081B
:10017000D57E0208D57E0208D57E0208D57E02080B
:10018000D57E0208D57E02080000000000000000B5
:04019000D57E02080E
:1001A00010B5054C237833B9044B13B10448AFF3B1
:1001B00000800123237010BD2009002000000000F2
:1001C0004CAE020808B5034B1BB103490348AFF31B
:1001D000008008BD00000000240900204CAE020889
:1001E00010F8012B11F8013B012A28BF9A42F7D0E1
:1001F000D01A7047034613F8012B002AFBD1181AB6
:1002000001387047000000000000000000000000FE
:1002100001F0FF01102A2BDB10F0070F08D010F8B7
:10022000013B013A8B422DD010F0070F42B3F6D1BB
:10023000F0B441EA012141EA014122F007047FF0D4
:1002400000070023F0E80256083C85EA010586EA2B
:10025000010685FA47F5A3FA87F586FA47F6A5FA67
:1002600087F68EB9EED1F0BC01F0FF0102F0070273
:1002700032B110F8013B013A83EA010313B1F8D11E
:100280000020704701387047002D06BF35460338FF
:10029000073815F0010F07D1013015F4807F02BF38
:1002A000013015F4C03F0130F0BC0138704700BF89
:1002B00081F0004102E000BF83F0004330B54FEA17
:1002C00041044FEA430594EA050F08BF90EA020F84
:1002D0001FBF54EA000C55EA020C7FEA645C7FEA17
:1002E000655C00F0E2804FEA5454D4EB5555B8BF3A
:1002F0006D420CDD2C4480EA020281EA030382EAAB
:10030000000083EA010180EA020281EA0303362D3C
:1003100088BF30BD11F0004F4FEA01314FF4801C0F
:100320004CEA113102D0404261EB410113F0004F21
:100330004FEA03334CEA133302D0524263EB4303D8
:1003400094EA050F00F0A780A4F10104D5F1200E76
:100350000DDB02FA0EFC22FA05F2801841F10001D1
:1003600003FA0EF2801843FA05F359410EE0A5F1A5
:1003700020050EF1200E012A03FA0EFC28BF4CF0D6
:10038000020C43FA05F3C01851EBE37101F000458C
:1003900007D54FF0000EDCF1000C7EEB00006EEB99
:1003A0000101B1F5801F1BD3B1F5001F0CD3490823
:1003B0005FEA30004FEA3C0C04F101044FEA44527A
:1003C00012F5800F80F09A80BCF1004F08BF5FEA01
:1003D000500C50F1000041EB045141EA050130BDE1
:1003E0005FEA4C0C404141EB010111F4801FA4F184
:1003F0000104E9D191F0000F04BF01460020B1FAD9
:1004000081F308BF2033A3F10B03B3F120020CDA10
:100410000C3208DD02F1140CC2F10C0201FA0CF0EE
:1004200021FA02F10CE002F11402D8BFC2F1200C53
:1004300001FA02F120FA0CFCDCBF41EA0C01904009
:10044000E41AA2BF01EB0451294330BD6FEA040452
:100450001F3C1CDA0C340EDC04F11404C4F120023D
:1004600020FA04F001FA02F340EA030021FA04F34F
:1004700045EA030130BDC4F10C04C4F1200220FAA6
:1004800002F001FA04F340EA0300294630BD21FAE4
:1004900004F0294630BD94F0000F83F4801306BFAA
:1004A00081F480110134013D4EE77FEA645C18BF9E
:1004B0007FEA655C29D094EA050F08BF90EA020F35
:1004C00005D054EA000C04BF1946104630BD91EA2D
:1004D000030F1EBF0021002030BD5FEA545C05D130
:1004E0004000494128BF41F0004130BD14F580046F
:1004F0003CBF01F5801130BD01F0004545F0FE41E3
:1005000041F470014FF0000030BD7FEA645C1ABF17
:10051000194610467FEA655C1CBF0B46024650EA4E
:10052000013406BF52EA033591EA030F41F400217A
:1005300030BD00BF90F0000F04BF0021704730B500
:100540004FF4806404F132044FF000054FF00001D5
:1005500050E700BF90F0000F04BF0021704730B596
:100560004FF4806404F1320410F0004548BF40426B
:100570004FF000013EE700BF42004FEAE2014FEAC0
:1005800031014FEA02701FBF12F07F4393F07F4F9B
:1005900081F06051704792F0000F14BF93F07F4FCD
:1005A000704730B54FF4607401F0004521F0004110
:1005B00020E700BF50EA010208BF704730B54FF096
:1005C00000050AE050EA010208BF704730B511F09B
:1005D000004502D5404261EB41014FF4806404F1D3
:1005E00032045FEA915C3FF4DCAE4FF003025FEA55
:1005F000DC0C18BF03325FEADC0C18BF033202EBDD
:10060000DC02C2F1200300FA03FC20FA02F001FA36
:1006100003FE40EA0E0021FA02F11444C1E600BFD5
:1006200070B54FF0FF0C4CF4E06C1CEA11541DBF88
:100630001CEA135594EA0C0F95EA0C0F00F0DEF853
:100640002C4481EA030621EA4C5123EA4C5350EA38
:10065000013518BF52EA033541F4801143F4801389
:1006600038D0A0FB02CE4FF00005E1FB02E506F01A
:100670000042E0FB03E54FF00006E1FB03569CF06F
:10068000000F18BF4EF0010EA4F1FF04B6F5007F75
:1006900064F5407404D25FEA4E0E6D4146EB0606E7
:1006A00042EAC62141EA55514FEAC52040EA5E5070
:1006B0004FEACE2EB4F1FD0C88BFBCF5E06F1ED81A
:1006C000BEF1004F08BF5FEA500E50F1000041EB51
:1006D000045170BD06F0004646EA010140EA0200FE
:1006E00081EA0301B4EB5C04C2BFD4EB0C0541EA20
:1006F000045170BD41F480114FF0000E013C00F335
:10070000AB8014F1360FDEBF002001F0004170BD58
:10071000C4F10004203C35DA0C341BDC04F1140471
:10072000C4F1200500FA05F320FA04F001FA05F2FD
:1007300040EA020001F0004221F0004110EBD370CA
:1007400021FA04F642EB06015EEA430E08BF20EAF6
:10075000D37070BDC4F10C04C4F1200500FA04F399
:1007600020FA05F001FA04F240EA020001F000412B
:1007700010EBD37041F100015EEA430E08BF20EA9E
:10078000D37070BDC4F1200500FA05F24EEA020EE6
:1007900020FA04F301FA05F243EA020321FA04F015
:1007A00001F0004121FA04F220EA020000EBD370CC
:1007B0005EEA430E08BF20EAD37070BD94F0000FCC
:1007C0000FD101F00046400041EB010111F4801F00
:1007D00008BF013CF7D041EA060195F0000F18BFB1
:1007E000704703F00046520043EB030313F4801FED
:1007F00008BF013DF7D043EA0603704794EA0C0FA7
:100800000CEA135518BF95EA0C0F0CD050EA4106BC
:1008100018BF52EA4306D1D181EA030101F0004139
:100820004FF0000070BD50EA410606BF1046194661
:1008300052EA430619D094EA0C0F02D150EA01366D
:1008400013D195EA0C0F05D152EA03361CBF1046AE
:1008500019460AD181EA030101F0004141F0FE414D
:1008600041F470014FF0000070BD41F0FE4141F4D1
:10087000780170BD70B54FF0FF0C4CF4E06C1CEAD1
:1008800011541DBF1CEA135594EA0C0F95EA0C0F86
:1008900000F0A7F8A4EB050481EA030E52EA033541
:1008A0004FEA013100F088804FEA03334FF0805562
:1008B00045EA131343EA12634FEA022245EA11158F
:1008C00045EA10654FEA00260EF000419D4208BF40
:1008D000964244F1FD0404F5407402D25B084FEAED
:1008E0003202B61A65EB03055B084FEA32024FF499
:1008F00080104FF4002CB6EB020E75EB030E22BFF6
:10090000B61A754640EA0C005B084FEA3202B6EBB5
:10091000020E75EB030E22BFB61A754640EA5C0064
:100920005B084FEA3202B6EB020E75EB030E22BFF4
:10093000B61A754640EA9C005B084FEA3202B6EBF5
:10094000020E75EB030E22BFB61A754640EADC00B4
:1009500055EA060E18D04FEA051545EA16754FEA16
:1009600006164FEAC30343EA52734FEAC2025FEA34
:100970001C1CC0D111F4801F0BD141EA00014FF0C3
:1009800000004FF0004CB6E711F4801F04BF014394
:100990000020B4F1FD0C88BFBCF5E06F3FF6AFAEB0
:1009A000B5EB030C04BFB6EB020C5FEA500C50F140
:1009B000000041EB045170BD0EF0004E4EEA1131C3
:1009C00014EB5C04C2BFD4EB0C0541EA045170BDCA
:1009D00041F480114FF0000E013C90E645EA060E0E
:1009E0008DE60CEA135594EA0C0F08BF95EA0C0F3C
:1009F0003FF43BAF94EA0C0F0AD150EA01347FF484
:100A000034AF95EA0C0F7FF425AF104619462CE75A
:100A100095EA0C0F06D152EA03353FF4FDAE1046BD
:100A2000194622E750EA410618BF52EA43067FF40E
:100A3000C5AE50EA41047FF40DAF52EA43057FF49E
:100A4000EBAE12E74FF0FF3C06E000BF4FF0010CA9
:100A500002E000BF4FF0010C4DF804CD4FEA410C0D
:100A60007FEA6C5C4FEA430C18BF7FEA6C5C1BD0DA
:100A700001B050EA410C0CBF52EA430C91EA030F5B
:100A800002BF90EA020F0020704710F1000F91EAB8
:100A9000030F58BF994208BF90422CBFD8176FEA86
:100AA000E37040F0010070474FEA410C7FEA6C5C54
:100AB00002D150EA013C07D14FEA430C7FEA6C5C5B
:100AC000D6D152EA033CD3D05DF8040B704700BF87
:100AD0008446104662468C461946634600E000BFD5
:100AE00001B5FFF7B7FF002848BF10F1000F01BDA7
:100AF0004DF808EDFFF7F4FF0CBF012000205DF872
:100B000008FB00BF4DF808EDFFF7EAFF34BF0120F6
:100B100000205DF808FB00BF4DF808EDFFF7E0FF8F
:100B200094BF012000205DF808FB00BF4DF808EDE0
:100B3000FFF7CEFF94BF012000205DF808FB00BF47
:100B40004DF808EDFFF7C4FF34BF012000205DF829
:100B500008FB00BF4FEA410C7FEA6C5C02D150EA0F
:100B6000013C0AD14FEA430C7FEA6C5C02D152EAA5
:100B7000033C02D14FF0000070474FF00100704776
:100B80004FEA410212F5001215D211D56FF47873B5
:100B9000B3EB625212D94FEAC12343F0004343EA58
:100BA000505311F0004F23FA02F018BF4042704733
:100BB0004FF00000704750EA013005D111F00040BD
:100BC00008BF6FF0004070474FF00000704700BF53
:100BD0004A0011D212F5001211D20DD56FF47873BC
:100BE000B3EB62520ED44FEAC12343F0004343EA11
:100BF000505323FA02F070474FF00000704750EA5C
:100C0000013002D14FF0FF3070474FF000007047C5
:100C10004FEA4102B2F1E04324BFB3F5001CDCF11E
:100C2000FE5C0DD901F0004C4FEAC0024CEA507056
:100C3000B2F1004F40EB830008BF20F00100704785
:100C400011F0804F21D113F13872BCBF01F0004088
:100C5000704741F480114FEA5252C2F11802C2F1BA
:100C6000200C10FA0CF320FA02F018BF40F001003B
:100C70004FEAC1234FEAD32303FA0CFC40EA0C00ED
:100C800023FA02F34FEA4303CCE77FEA625307D12A
:100C900050EA01331EBF4FF0FE4040F44000704761
:100CA00001F0004040F0FE4040F40000704700BFFB
:100CB00080F0004002E000BF81F0004142001FBF11
:100CC0005FEA410392EA030F7FEA226C7FEA236C1A
:100CD0006AD04FEA1262D2EB1363C1BFD21841400F
:100CE00048404140B8BF5B42192B88BF704710F0A5
:100CF000004F40F4000020F07F4018BF404211F048
:100D0000004F41F4000121F07F4118BF494292EAAF
:100D1000030F3FD0A2F1010241FA03FC10EB0C00DB
:100D2000C3F1200301FA03F100F0004302D5494268
:100D300060EB4000B0F5000F13D3B0F1807F06D315
:100D400040084FEA310102F10102FE2A51D2B1F10D
:100D5000004F40EBC25008BF20F0010040EA030002
:100D60007047490040EB000010F4000FA2F10102AF
:100D7000EDD1B0FA80FCACF1080CB2EB0C0200FA39
:100D80000CF0AABF00EBC25052421843BCBFD04087
:100D90001843704792F0000F81F4000106BF80F401
:100DA00000000132013BB5E74FEA41037FEA226CC4
:100DB00018BF7FEA236C21D092EA030F04D092F08F
:100DC000000F08BF0846704790EA010F1CBF0020C3
:100DD000704712F07F4F04D1400028BF40F0004020
:100DE000704712F100723CBF00F50000704700F040
:100DF000004343F0FE4040F4000070477FEA226267
:100E000016BF08467FEA23630146420206BF5FEA37
:100E1000412390EA010F40F4800070474FF0000337
:100E200004E000BF10F0004348BF40425FEA000CFE
:100E300008BF704743F0964301464FF000001CE0A6
:100E400050EA010208BF70474FF000030AE000BFFC
:100E500050EA010208BF704711F0004302D540423A
:100E600061EB41015FEA010C02BF844601460020AC
:100E700043F0B64308BFA3F18053A3F50003BCFAC7
:100E80008CF2083AA3EBC25310DB01FA02FC634474
:100E900000FA02FCC2F12002BCF1004F20FA02F27B
:100EA00043EB020008BF20F00100704702F120026E
:100EB00001FA02FCC2F1200250EA4C0021FA02F2CF
:100EC00043EB020008BF20EADC70704708B52DED47
:100ED000028B431E9BB2B3F5C27F00F23D84023801
:100EE000142800F23984DFE810F01500D402190349
:100EF0005E03A803ED0331044404D8046E053704EF
:100F00003704370437043704370437043704370409
:100F100037041202EA4BB3F9C632013B082B00F248
:100F20001B84DFE813F009003E007300A800E10015
:100F30001A0153019001CF0101211D2019F02EFE4D
:100F400006211E2019F02AFE09211F2019F026FE75
:100F50000421202019F022FE0721212019F01EFE75
:100F60000221222019F01AFE1E21262019F016FE59
:100F70001F21272019F012FE2021282019F00EFE33
:100F80002121292019F00AFE22212A2019F006FE2B
:100F900023212B2019F002FE00212C2019F0FEFD48
:100FA000DAE301211D2019F0F9FD05211E2019F0B9
:100FB000F5FD09211F2019F0F1FD0421202019F071
:100FC000EDFD0721212019F0E9FD0221222019F071
:100FD000E5FD1E21262019F0E1FD1F21272019F033
:100FE000DDFD2021282019F0D9FD2121292019F02B
:100FF000D5FD22212A2019F0D1FD23212B2019F023
:10100000CDFD00212C2019F0C9FDA5E301211D20F3
:1010100019F0C4FD06211E2019F0C0FD09211F2072
:1010200019F0BCFD0421202019F0B8FD0521212074
:1010300019F0B4FD0221222019F0B0FD1E21262056
:1010400019F0ACFD1F21272019F0A8FD2021282030
:1010500019F0A4FD2121292019F0A0FD22212A2028
:1010600019F09CFD23212B2019F098FD00212C2044
:1010700019F094FD70E301211D2019F08FFD062168
:101080001E2019F08BFD05211F2019F087FD04217A
:10109000202019F083FD0721212019F07FFD022176
:1010A000222019F07BFD1E21262019F077FD1F213B
:1010B000272019F073FD2021282019F06FFD212130
:1010C000292019F06BFD22212A2019F067FD232128
:1010D0002B2019F063FD00212C2019F05FFD012168
:1010E000182019F05BFD37E301211D2019F056FD92
:1010F0000D211E2019F052FD0C211F2019F04EFD6C
:101100000E21202019F04AFD0721212019F046FD6B
:101110000221222019F042FD1E21262019F03EFD59
:101120001F21272019F03AFD2021282019F036FD33
:101130002121292019F032FD22212A2019F02EFD2B
:1011400023212B2019F02AFD0221182019F026FD59
:1011500000212C2019F022FDFEE201211D2019F0B2
:101160001DFD06211E2019F019FD05211F2019F073
:1011700015FD0421202019F011FD0721212019F06F
:101180000DFD0221222019F009FD1E21262019F053
:1011900005FD1F21272019F001FD2021282019F02D
:1011A000FDFC2121292019F0F9FC22212A2019F027
:1011B000F5FC24212B2019F0F1FC00212C2019F042
:1011C000EDFC0121182019F0E9FCC5E201211D20E8
:1011D00019F0E4FC06211E2019F0E0FC0F211F206D
:1011E00019F0DCFC0421202019F0D8FC0721212073
:1011F00019F0D4FC0221222019F0D0FC1E21262057
:1012000019F0CCFC1F21272019F0C8FC2021282030
:1012100019F0C4FC2121292019F0C0FC22212A2028
:1012200019F0BCFC24212B2019F0B8FC25212C201E
:1012300019F0B4FC0021092019F0B0FC012118209C
:1012400019F0ACFC88E201211D2019F0A7FC062151
:101250001E2019F0A3FC10211F2019F09FFC04216F
:10126000202019F09BFC0721212019F097FC022176
:10127000222019F093FC1E21262019F08FFC1F213B
:10128000272019F08BFC2021282019F087FC212130
:10129000292019F083FC22212A2019F07FFC232128
:1012A0002B2019F07BFC26212C2019F077FC002143
:1012B000092019F073FC0121182019F06FFC4BE292
:1012C0004000002001211D2019F068FC1E2126206D
:1012D00019F064FC1F21272019F060FC2021282030
:1012E00019F05CFC2121292019F058FC22212A2028
:1012F00019F054FC23212B2019F050FC00212C2044
:1013000019F04CFC0121182019F048FC24E2C64BCE
:10131000B3F9E232013B042B00F21E82DFE803F056
:1013200003294D719500B2EE000A3A2019F00AFE29
:10133000B2EE040A3D2019F005FEB1EE000A3E208F
:1013400019F000FEB2EE0C0A4F2019F0FBFD9FEDE4
:10135000B78AB0EE480A502019F0F4FDB2EE0C0A3C
:10136000572019F0EFFDB0EE480A582019F0EAFDB9
:10137000F2E19FEDAE0A3A2019F0E4FDB1EE000A69
:101380003D2019F0DFFDB9EE000A3E2019F0DAFD2C
:10139000B2EE000A4F2019F0D5FDB9EE040A502034
:1013A00019F0D0FDB2EE000A572019F0CBFDB9EECE
:1013B000040A582019F0C6FDCEE1B8EE000A3A2022
:1013C00019F0C0FDB0EE000A3D2019F0BBFDB9EEEA
:1013D000080A3E2019F0B6FDB2EE000A4F2019F0BF
:1013E000B1FDB9EE040A502019F0ACFDB2EE000ACE
:1013F000572019F0A7FDB9EE040A582019F0A2FDF4
:10140000AAE1BBEE040A3A2019F09CFDBBEE000AEB
:101410003D2019F097FDBBEE080A3E2019F092FD21
:10142000BAEE0E0A4F2019F08DFDBBEE0E0A5020C9
:1014300019F088FDBAEE0E0A572019F083FDBBEEB5
:101440000E0A582019F07EFD86E1BBEE080A3A200C
:1014500019F078FDBBEE040A3D2019F073FDBBEED8
:101460000C0A3E2019F06EFDBAEE0E0A4F2019F05C
:1014700069FDBBEE0E0A502019F064FDBAEE0E0AAB
:10148000572019F05FFDBBEE0E0A582019F05AFDE7
:1014900062E1654BB3F9C0320A2B00F25D81DFE8EF
:1014A00003F0060B10151A1F24292E3338000021D3
:1014B0001E2019F073FB4FE102211E2019F06EFB74
:1014C0004AE103211E2019F069FB45E104211E2099
:1014D00019F064FB40E105211E2019F05FFB3BE1A0
:1014E00006211E2019F05AFB36E107211E2019F0B3
:1014F00055FB31E108211E2019F050FB2CE1092198
:101500001E2019F04BFB27E10A211E2019F046FB93
:1015100022E10B211E2019F041FB1DE1424BB3F9E2
:10152000C2320A2B00F21881DFE803F0060B101517
:101530001A1F24292E33380000211F2019F02EFBFA
:101540000AE102211F2019F029FB05E103211F20D8
:1015500019F024FB00E104211F2019F01FFBFBE020
:1015600005211F2019F01AFBF6E006211F2019F0B3
:1015700015FBF1E007211F2019F010FBECE008211A
:101580001F2019F00BFBE7E009211F2019F006FBD3
:10159000E2E00A211F2019F001FBDDE00B211F20F2
:1015A00019F0FCFAD8E0204BB3F9CC320A2B00F248
:1015B000D380DFE803F0060B10151A1F24292E3301
:1015C0003D000021202019F0E9FAC5E00221202089
:1015D00019F0E4FAC0E00321202019F0DFFABBE0A3
:1015E0000421202019F0DAFAB6E00521202019F0B4
:1015F000D5FAB1E00621202019F0D0FAACE007219D
:10160000202019F0CBFAA7E00821202019F0C6FA13
:10161000A2E00921202019F0C1FA9DE00A21202032
:1016200019F0BCFA98E000BF400000200000000064
:101630000B21202019F0B2FA8EE0C64BB3F9CE325E
:101640000A2B00F28980DFE803F0060B10151A1F41
:1016500024292E3338000021212019F09FFA7BE045
:101660000221212019F09AFA76E00321212019F0B5
:1016700095FA71E00421212019F090FA6CE005211F
:10168000212019F08BFA67E00621212019F086FA53
:1016900062E00721212019F081FA5DE00821212074
:1016A00019F07CFA58E00921212019F077FA53E06B
:1016B0000A21212019F072FA4EE00B21212019F0A5
:1016C0006DFA49E0A34BB3F9C8320A2B44D8DFE8DE
:1016D00003F0060B10151A1F24292E3338000021A1
:1016E000222019F05BFA37E00221222019F056FA85
:1016F00032E00321222019F051FA2DE004212220AA
:1017000019F04CFA28E00521222019F047FA23E0CD
:101710000621222019F042FA1EE00721222019F0AA
:101720003DFA19E00821222019F038FA14E00921C5
:10173000222019F033FA0FE00A21222019F02EFAA4
:101740000AE00B21222019F029FA05E0814BB3F9B8
:10175000CA3223B1012B07D0BDEC028B08BD00219A
:101760002D2019F01BFAF7E75A212D2019F016FA4F
:10177000F2E7784BB3F9BE32152BEDD801A252F83F
:1017800023F000BFDD170008E7170008F117000875
:10179000FB170008051800080F18000819180008A2
:1017A000231800082D1800083718000841180008F1
:1017B0004B180008551800085F1800086918000841
:1017C000731800087D1800085917000859170008F9
:1017D00059170008871800089118000800212320D5
:1017E00019F0DCF9B8E73C21232019F0D7F9B3E769
:1017F0003D21232019F0D2F9AEE73E21232019F034
:10180000CDF9A9E73F21232019F0C8F9A4E7402129
:10181000232019F0C3F99FE74121232019F0BEF9D5
:101820009AE74221232019F0B9F995E743212320B3
:1018300019F0B4F990E74421232019F0AFF98BE7B0
:101840004521232019F0AAF986E74621232019F023
:10185000A5F981E74721232019F0A0F97CE70021B1
:10186000232019F09BF977E74921232019F096F9F5
:1018700072E74A21232019F091F96DE74B212320CB
:1018800019F08CF968E74C21232019F087F963E7F8
:101890004D21232019F082F95EE72E4BB3F9B232C5
:1018A000152B3FF659AF01A252F823F00519000895
:1018B0000F19000819190008231900082D1900082C
:1018C00037190008411900084B1900085919000878
:1018D000631900086D1900087719000881190008BC
:1018E0008B190008951900089F190008A91900080C
:1018F000591700085917000859170008B3190008AC
:10190000BD1900080021242019F048F924E73C21E2
:10191000242019F043F91FE73D21242019F03EF956
:101920001AE73E21242019F039F915E73F21242038
:1019300019F034F910E74021242019F02FF90BE7B2
:101940004121242019F02AF906E74221242019F028
:1019500025F901E7400000204321242019F01EF959
:10196000FAE64421242019F019F9F5E6452124204E
:1019700019F014F9F0E64621242019F00FF9EBE6EE
:101980004721242019F00AF9E6E64821242019F01D
:1019900005F9E1E64921242019F000F9DCE64A21A5
:1019A000242019F0FBF8D7E64B21242019F0F6F893
:1019B000D2E64C21242019F0F1F8CDE64D21242067
:1019C00019F0ECF8C8E64A4BB3F9B432152B3FF6E0
:1019D000C3AE01A252F823F0311A00083B1A0008E6
:1019E000451A00084F1A0008591A0008631A00081F
:1019F0006D1A0008771A0008811A00088B1A00086F
:101A0000951A00089F1A0008A91A0008B31A0008BE
:101A1000BD1A0008C71A0008D11A00085917000893
:101A20005917000859170008DB1A0008E51A0008C2
:101A30000021252019F0B2F88EE63C21252019F06E
:101A4000ADF889E63D21252019F0A8F884E63E216D
:101A5000252019F0A3F87FE63F21252019F09EF8F4
:101A60007AE64021252019F099F875E641212520D4
:101A700019F094F870E64221252019F08FF86BE6F2
:101A80000021252019F08AF866E60021252019F0AA
:101A900085F861E64521252019F080F85CE64621AD
:101AA000252019F07BF857E64721252019F076F814
:101AB00052E60021252019F071F84DE64921252034
:101AC00019F06CF848E64A21252019F067F843E63A
:101AD0004B21252019F062F83EE64C21252019F013
:101AE0005DF839E64D21252019F058F834E600BF9D
:101AF000400000202DE9F04383B0474D01AE0024A3
:101B0000DFF81C91DFF81C8127460CE0142821D156
:101B10004C23337014F0FF0379D0022B51D00134E1
:101B20000136032C59D039F8140018F0C1FF05F81C
:101B3000010B38F8140018F0BBFFC0B22A466871D8
:101B40000028E3D13770A0F11103DBB2022B98BF5C
:101B50003770DFE700F13B0333701528F3D14D23D5
:101B6000337014F0FF03D8D1D9E700232B4A82F851
:101B700056308DF8063030E00022284B83F8542090
:101B80009DF8050028B99DF8060070B903B0BDE8BE
:101B9000F08321F08FFB044640F2731018F088FFA9
:101BA0000146204618F0FAFFEDE721F083FB0446DA
:101BB0004FF4BA7018F07CFF0146204618F0EEFF93
:101BC000E4E70D2802D1002353713370134B93F8CF
:101BD0005630083BDBB2012BC7D9022018F068FF52
:101BE0000728C9D0022018F063FF0828C4D09DF848
:101BF00004000028C4D021F05DFB04464FF4B97006
:101C000018F056FF0146204618F0C8FFB8E70D2827
:101C100085D15771377082E7D287002084870020F2
:101C2000440400203C04002008B5084B93F82D30F4
:101C300023B10021162018F0B1FF08BD1620FFF7D0
:101C400045F90021162018F0A9FF08BD848700205F
:101C500010B5022018F02CFF84B20E4B1B88A34253
:101C600004D00220FFF732F90A4B1C80092C00D067
:101C700010BD0320FFF72AF90420FFF727F90520FC
:101C8000FFF724F90620FFF721F90720FFF71EF9D7
:101C9000EEE700BFBC19002008B50920FFF716F9D0
:101CA0000A20FFF713F90B20FFF710F908BD08B55C
:101CB0000820FFF70BF908BD08B5FFF7C9FFFFF7CC
:101CC000B3FFFFF7E9FFFFF7F2FF08BD10B50446C9
:101CD0000E4B18784FF47A73B3FBF0F30C4A10688C
:101CE000B0FBF3F001F04AFB68B90F2C01D90120D9
:101CF00010BD002221464FF0FF3001F003FB054BE1
:101D00001C60002010BD012010BD00BF4A0400204F
:101D10007C0400204C04002008B5074A136843F0F7
:101D200010031360032001F0DBFA0F20FFF7CEFF52
:101D300007F09EF8002008BD00200240034A116809
:101D4000034B1B780B441360704700BF688800206A
:101D50004A040020014B1868704700BF68880020C3
:101D60007047704738B50268936803F00303012B8E
:101D700001D0002038BD136813F0010F22D10020DC
:101D800038BD0446936843F002039360036803225E
:101D90001A60FFF7DFFF054623689B6813F0010F09
:101DA0000ED0FFF7D7FF401B0228F5D9636C43F034
:101DB00010036364A36C43F00103A364012038BDE6
:101DC000002038BD936803F00D03012BD9D0436C7C
:101DD00043F010034364836C43F0010383640120E8
:101DE00038BD000003689A6812F00C0F68D070B517
:101DF0000446DA6812F0007F02D0C269012A23D0BB
:101E000060295FD023689A6812F0040F07D09A689F
:101E100012F0020F03D19A6842F010029A600C2966
:101E200035D023689A6812F0080F07D09A6812F02C
:101E3000020F03D19A6842F020029A60602924D0F0
:101E40006C2924D10C2523E08269012AD8D11A6893
:101E500012F0400F10D11F4A196811F0400F0BD13A
:101E6000013AF9D1636C43F010036364A36C43F04F
:101E70000103A364012070BD40221A6023689A68A0
:101E800012F0040F03D00C21C1E7082500E004255F
:101E9000FFF760FF064623689B681D420ED0FFF7E0
:101EA00059FF801B0B28F6D9636C43F01003636461
:101EB000A36C43F00103A364012070BD002070BD3A
:101EC0000020704723689A6812F0080FAED10825E9
:101ED000DEE700BF0094090038B50268936803F09C
:101EE0000303012B0DD09168184B19420FD0436C9E
:101EF00043F010034364836C43F0010383640120C7
:101F000038BD136813F0010FEDD0002038BD044632
:101F1000936843F001039360FFF71CFF05462368B5
:101F20001B6813F0010F0ED1FFF714FF401B0228AE
:101F3000F5D9636C43F010036364A36C43F00103B1
:101F4000A364012038BD002038BD00BF3F000080E1
:101F500008B5406A436C43F040034364836C43F02C
:101F600004038364FFF7FDFE08BD08B5406AFFF770
:101F7000F7FE08BD08B5436A5A6C12F0500F1AD12B
:101F80005A6C42F400725A641A68D26812F4406FB4
:101F90000DD1DA695AB95A6C22F480725A645A6CBB
:101FA00012F4805F03D15A6C42F001025A64184661
:101FB00023F002FC08BDDB6B1B6B984708BD0000DB
:101FC00010B596B000230093002800F093800446DB
:101FD000436C13F0100F40F08F80436CEBB1002086
:101FE00023689A6812F0805F03D09B6813F0005F4B
:101FF00050D0636C23F0120343F010036364A36CAE
:1020000043F00103A364636C636C23F0120343F099
:1020100010036364012016B010BD83640365C364BC
:1020200080F8403006F04CFB23689B6813F0805F1B
:1020300001D00020D4E72046FFF794FE636C13F034
:10204000100FCDD10028CBD1636C23F4885323F03B
:10205000020343F0020363642268936823F0405351
:1020600093602268936843F080539360564B1B68DB
:10207000564AA2FB03239B0C03EB83035B000093F4
:10208000009B002BACD0009B013B0093009B002BDE
:10209000F9D1A5E7636C13F0100FB5D10028B3D1C7
:1020A0002EE01B6813F0010F4FD1019A002A45D092
:1020B0003FE0136813F0010F47D13FE030B9A36A46
:1020C000013B42EA434343F480324EE0636C23F029
:1020D000220343F020036364A36C43F00103A36471
:1020E00043E021680A6B236A013B22F00F0213438D
:1020F0000B635FE001208EE7436C13F0100F83D178
:102100002368996811F004017FF47EAF626C22F4B9
:10211000817242F002026264B3F1A04F0CBF2C4AFC
:102120004FF0A04201929A6802F00302012AB8D04F
:10213000019A936803F00303012BBAD0254A9368F0
:1021400023F44033606803439360E069A36B012B81
:1021500018BF4FF48051E268A368134343EA403349
:1021600043EA0102636A012BA8D0E36A012B02D083
:10217000216B0B431A432368996811F00C0F0BD1A4
:10218000D96821F4804121F00201D960A169636B13
:102190005B0043EA81331A432168C8680E4B034051
:1021A0001343CB602369012B9BD02268136B23F070
:1021B0000F0313630020A064636C23F0030343F058
:1021C0000103636427E700BF7C04002083DE1B4318
:1021D000000100500003005007C0F0FFF8B504688C
:1021E000A46814F0040F02D002252846F8BD90F828
:1021F0004030012B7CD0012380F840303D4B9B6860
:1022000013F01F0F04D0002380F840300125ECE7C5
:1022100017460E460446FFF75FFE0546002863D1C9
:10222000636C23F4706323F0010343F480736364ED
:10223000304B9B6813F01F0F39D02268B2F1A04FCA
:1022400035D0636C43F4801363642B4B9A423ED0C9
:10225000636C13F4805F1ABFA36C23F006030023A2
:10226000A364002384F84030E36B244A9A62E36B52
:10227000234ADA62E36B234A1A6323681C221A603A
:102280002268536843F0100353602268D36843F018
:102290000103D36021683B4632464031E06B01F0D8
:1022A000E1F82268936843F0040393609DE7636C50
:1022B00023F4801363642368DB6813F0007FC7D0C6
:1022C000636C23F4405343F480536364C0E74FF0DE
:1022D000A043DB6813F0007FBAD0636C23F4405353
:1022E00043F480536364B3E7002384F840307CE711
:1022F00002257AE70003005000010050751F000816
:102300006B1F0008511F000838B590F84030012BB2
:1023100002D10225284638BD0446012380F840300A
:102320006C21FFF75FFD054618B1002384F84030AB
:10233000F0E72268D36823F00103D360E06B01F07B
:10234000DBF8054660B1636C43F0400363642268C8
:10235000536823F0100353602046FFF703FDE4E7C2
:102360002268536823F0100353602046FFF7FAFCFD
:1023700005460028D9D1636C23F4885323F0010368
:1023800043F001036364D0E770B590F84030012B4F
:1023900002D10225284670BD0E460446012380F86E
:1023A0004030FFF7DFFC0546002830D1012363648D
:1023B0002268936823F080439360012E1BD022682B
:1023C000936843F000439360FFF7C4FC064623681C
:1023D0009B68002B15DAFFF7BDFC801B0A28F6D995
:1023E000636C23F0120343F010036364002384F84A
:1023F00040300125CEE72268936843F08043936024
:10240000DDE7636C23F0030343F0010363640023FF
:1024100084F84030BEE701290368D3F8B4000CBF4C
:10242000000C00F07F00704770B497B0002200925B
:1024300090F84020012A00F0A8810346012280F88C
:1024400040200068826812F0040F40F08D814A68D5
:10245000042A32D8046B02EB420252001F25954039
:1024600024EA05040D6805FA02F2224302631868A3
:10247000826812F00C0F68D10A68092A4ED9846963
:1024800002EB42021E3A0725954024EA05048D68B6
:1024900005FA02F2224382611C68E268C2F3C102BB
:1024A0005200486900FA02F208690138032800F274
:1024B0008B80DFE800F04068737E092A0ED8446BF9
:1024C00002EB420252001E3A1F25954024EA050401
:1024D0000D6805FA02F222434263C8E70E2A0ED8BD
:1024E000846B02EB420252003C3A1F25954024EADD
:1024F00005040D6805FA02F222438263B7E7C46B54
:1025000002EB420252005A3A1F25954024EA050484
:102510000D6805FA02F22243C263A8E7446902EBA0
:1025200042020725954024EA05048D6805FA02F267
:1025300022434261B0E7266E0D689548304040EA7C
:10254000856040F00040024322661868826802F00D
:102550000302012A6BD0CA68012A6ED0D0F8B020DD
:102560000D680124AC4022EA0402C0F8B0200A68D9
:10257000102A00F08B80112A00F08F80122A00F0C0
:1025800093800020F5E0666E0D688148304040EA97
:10259000856040F0004002436266D6E7A66E0D6893
:1025A0007B48304040EA856040F000400243A2662C
:1025B000CBE7E66E0D687648304040EA856040F033
:1025C00000400243E266C0E7226E02F0F84208686B
:1025D000B2EB806F1CD01868426E02F0F8420C68B3
:1025E000B2EB846F19D01868826E02F0F8420C6862
:1025F000B2EB846F16D01868C26E02F0F8420C6815
:10260000B2EB846FA1D1C26E22F00042C2669CE799
:10261000226E22F000422266DDE7426E22F0004286
:102620004266E0E7826E22F000428266E3E70268DB
:1026300012F0010F8FD000209BE0D0F8B0400D6861
:102640000122AA402243C0F8B0200A68092A0ED904
:102650001D68A86902EB42021B3A0724944020EA55
:1026600004008C6804FA02F20243AA617FE71D6845
:102670006869013202EB42020724944020EA040018
:102680008C6804FA02F202436A6170E74149896882
:1026900011F4000F0DD000206BE03E49896811F065
:1026A000807F06D0002064E03A49896811F4800FE9
:1026B00065D11868B0F1A04F0CBF37494FF0A04169
:1026C0000191816801F00301012912D0019CA168E8
:1026D00001F00301012914D0102A1CD0112A37D08F
:1026E000122A50D12B498A6842F480028A60002065
:1026F0003FE0016811F0010F07D1019C002CEBD0E5
:10270000E5E7216811F0010FE6D05A6C42F0200293
:102710005A6401202DE0B0F1A04F01D0002028E044
:102720001C498A6842F400028A601C4A12681C49EB
:10273000B2FBF1F10A2202FB01F20092009A02B30D
:10274000009A013A0092009A002AF9D1002010E084
:10275000B0F1A04F01D000200BE00E498A6842F092
:1027600080728A60002004E05A6C42F020025A64B1
:102770000120002283F8402017B070BC7047002071
:10278000F7E70020F5E70020F3E70220F4E700BFB9
:1027900000F0FF8300030050000100507C04002083
:1027A00040420F0070B497B003460268B2F1A04FE8
:1027B0000CBF3B484FF0A040019093F84000012827
:1027C0006BD0019C012083F84000926812F0040F46
:1027D00058D1A26812F0040F54D10A686AB3314D7F
:1027E000A8685E6B4A6842EA463220F460400243C1
:1027F000AA601868826802F00302012A11D0A26858
:1028000002F00302012A12D0264CA0680A688968E7
:102810000A4320F4716121F00F010A43A2600020F5
:1028200035E0026812F0010FE9D000202FE02268A5
:1028300012F0010FE8D0002029E01A498A6822F43A
:1028400060428A6019688A6802F00302012A0DD08A
:10285000A26802F00302012A0ED012498A6822F40B
:10286000716222F00F028A60002010E00A6812F004
:10287000010FEDD000200AE0226812F0010FECD029
:10288000002004E05A6C42F020025A640120002229
:1028900083F8402017B070BC70470220FAE700BFF1
:1028A0000001005000030050F0B44B69012202FA0D
:1028B00003F30468D4F8002242F00102C4F80022B5
:1028C0000568D5F81C42DA431440C5F81C42CC69AF
:1028D000C4B90568D5F80C421440C5F80C42066826
:1028E0004C69CF688D8845EA0745483446F834502E
:1028F00004684E698F680D8845EA0745483604EB41
:10290000C6046560CC69012C1ED08C69002C35D1C1
:102910000568D5F804421440C5F804420C69002C3F
:1029200033D10468D4F814522A40C4F814220A6A35
:10293000012A31D00268D2F8003223F00103C2F834
:1029400000320020F0BC70470568D5F80C421C43EB
:10295000C5F80C4206684C690F688D8845EA074542
:10296000483446F8345004684E698F688D8945EACA
:102970000745483604EBC6046560C6E70568D5F828
:1029800004421C43C5F80442C8E70468D4F8142282
:102990001A43C4F81422CAE70268D2F81C120B4387
:1029A000C2F81C32C6E7002800F09E8038B5044605
:1029B00090F83D3003B3022384F83D302268136859
:1029C00023F0020313602268136843F001031360CD
:1029D000FFF7C0F9054623685A6812F0010F10D1BD
:1029E000FFF7B8F9401B0A28F5D9032084F83D0009
:1029F000002384F83C3038BD80F83C3005F0CAFE36
:102A0000D9E75A6812F0010F69D0A269012A1A6841
:102A10000CBF42F0800222F080021A60E369012BB1
:102A2000226813680CBF43F0400323F04003136097
:102A3000236A012B226813680CBF43F0200323F0A4
:102A400020031360636A012B226813680CBF43F0F4
:102A5000100323F010031360A36A012B226813688C
:102A60000CBF43F0080323F008031360E36A012B53
:102A7000226813680CBF43F0040323F004031360BF
:102A80002168A368E2681343226913436269134310
:102A90006268013A1343CB612268136823F0010393
:102AA0001360FFF757F9054623685A6812F0010FC3
:102AB0000BD0FFF74FF9401B0A28F5D9032084F803
:102AC0003D00002384F83C3038BD5B6813F0010FF3
:102AD00005D100202064012384F83D3038BD042353
:102AE00084F83D30012038BD0120704703689A68A2
:102AF00012F0806F08D19A6812F0006F04D19A68C2
:102B000012F0805F00F09D8090F83C20012A00F0D8
:102B10009D80F0B4012280F83C209A6812F0806F0A
:102B20005FD19A6802F00062002A14BF01240224D7
:102B300022011344D3F8801101F00101C3F8801180
:102B4000016B8B68002B4ED105681544D5F8806168
:102B50000F68CB6843EA47533343C5F88031016BB4
:102B60000B6903F00F030B6103681344D3F884115E
:102B700021F00F01C3F8841103681344D3F88411C2
:102B8000056B2D692943C3F884110168056BEE7D3F
:102B9000AB7D1B0443EA06632E7D33436D7D43EA20
:102BA000052324012144C1F888310168056BEE7EBC
:102BB000AB7E1B0443EA06632E7E33436D7E43EAFD
:102BC00005232144C1F88C3190F83D30DBB2322B23
:102BD0002FD0622B31D0222B12D0122380F83D301F
:102BE00011E00024A4E705681544D5F880614F681A
:102BF000C9680B4343EAC7033343C5F88031AEE7E6
:102C0000422380F83D300023036480F83C300168A3
:102C10000A44D2F8801141F00101C2F88011016824
:102C20004A6942F4084242F001024A611846F0BC87
:102C30007047522380F83D30E5E7722380F83D303D
:102C4000E1E7042380F83D300120704702207047FF
:102C500090F83C30012B65D0012380F83C300029EE
:102C600062D190F83D30DBB2222B1BD090F83D3082
:102C7000DBB2422B16D090F83D30DBB2622B11D084
:102C800090F83D30DBB2722B0CD090F83D30DBB2C7
:102C9000322B24D0522B26D0122B0DD0222380F899
:102CA0003D300CE0002380F83C30022070470023C8
:102CB00080F83C3002207047422380F83D300023EA
:102CC000036401684A6942F408424A6180F83C3072
:102CD00001684A6942F00A024A6118467047622355
:102CE00080F83D30EBE7722380F83D30E7E7522370
:102CF00080F83D300023036401684A6942F40842C9
:102D00004A6180F83C3001684A6942F050024A61E9
:102D100018467047622380F83D30EBE7722380F855
:102D20003D30E7E702207047012913D190F83D308C
:102D3000DBB2322BBBD090F83D30DBB2522BB6D099
:102D400090F83D30DBB2622BB1D090F83D30DBB271
:102D5000722BACD090F83D30DBB2222BDAD0422B74
:102D6000DCD0122BC3D0322380F83D30C2E710B53F
:102D70000C46002979D1436B016804F11B02120152
:102D80008A5802F004029A60002A70D1016804F1A6
:102D90001B0212018A58520D1A60016804F11B02CD
:102DA00012018958C1F34001D96001681144496892
:102DB00001F00F01196101680A445268C2F3072249
:102DC000DA611C62016822011144D1F8B811197549
:102DD00001681144D1F8B811090A59750168114404
:102DE000D1F8B811090C997501681144D1F8B811DE
:102DF000090ED97501681144D1F8BC111976016822
:102E00001144D1F8BC11090A597601681144D1F86E
:102E1000BC11090C997601680A44D2F8BC21120E43
:102E2000DA7664BB0268D36843F02003D36002689B
:102E3000536923F00A03536190F83D30DBB2222B33
:102E400028D090F83D30DBB2322B23D0002C36D185
:102E500090F83D30DBB2622B29D0722B2BD0422B65
:102E60001ED0012380F83D301DE0836B84E70168AC
:102E700004F11B0212018A58D2085A608DE70268D9
:102E8000136943F0200313610268536923F0500370
:102E90005361D1E70268536923F40F435361D5E7C7
:102EA000122380F83D3022F06FFF002010BD322346
:102EB00080F83D30F7E7522380F83D30F3E790F893
:102EC0003D30DBB2622B0BD0722B0DD0522B03D0D6
:102ED000012380F83D30E6E7122380F83D30E2E739
:102EE000222380F83D30DEE7422380F83D30DAE7E8
:102EF00038B504460368DA6812F0100F08D05A6932
:102F000012F0080F46D01022DA604FF4007500E08E
:102F1000002523681A6912F0100F07D05A6912F0C1
:102F2000400F03D045F4806510221A6123685A6966
:102F300012F0010F41D09968774A8A4307D0996807
:102F4000764A8A4303D09968754A8A4335D19A688C
:102F500012F0020F08D19A6812F4007F04D19A6827
:102F600012F4003F00F094805A6922F001025A6185
:102F700094F83D30DBB2122B0ED094F83D30DBB22A
:102F8000522B7DD0722B7FD0422B0BD0012384F8A3
:102F90003D300AE00025BCE72268536923F40F4363
:102FA0005361EAE7222384F83D30204622F0C8FE30
:102FB000226891685B4B0B43936023685A6912F057
:102FC000020F03D0DB6813F0030F64D123685A6942
:102FD00012F0100F03D01B6913F0030F60D1236CA4
:102FE0001D43256423689A6912F0010F0BD05A69BA
:102FF00012F4807F07D05A6912F4004F03D0226C7C
:1030000042F0010222649A6912F0020F0BD05A6951
:1030100012F4007F07D05A6912F4004F03D0226CDB
:1030200042F0020222649A6912F0040F0BD05A692E
:1030300012F4806F07D05A6912F4004F03D0226C4B
:1030400042F0040222649A6912F0700F3ED05A696D
:1030500012F4006F3AD05A6912F4004F36D09A69D0
:1030600002F07002302A34D01FD9502A36D0602A9C
:1030700039D0402A26D1226C42F04002226421E05D
:10308000322384F83D3090E7622384F83D308CE7AA
:1030900045F400658CE700212046FFF768FE95E7C0
:1030A00001212046FFF763FE99E7102A06D0202A67
:1030B00008D1226C42F01002226403E0226C42F03C
:1030C000080222649A6922F070029A61236C7BB92B
:1030D00038BD226C42F020022264F3E7226C42F0F9
:1030E00080022264EEE7226C42F480722264E9E7F7
:1030F0002268536843F004035360012384F83D3091
:103100002268536923F40F4323F05B035361204685
:1031100022F0D4FDDCE700BF01000004000100083C
:103120000000011019050100002852D010B582B02E
:10313000044690F8293013F0100F02D0012002B09D
:1031400010BD254B9A6942F001029A619B6903F018
:1031500001030093009B05F077FB94F829300BB92D
:1031600084F8283061680020019022681368019378
:10317000019B23F070030B430193019B23F0020397
:10318000A1680B430193019B23F44023A1690B43E6
:1031900001930199E36803F4705321F470510B43D8
:1031A0000193019B23F4004321690B430193019B8D
:1031B00061690B430193019BE1690B430193019BFF
:1031C000216A0B430193019B1360012384F829308A
:1031D000B5E70120704700BF0010024003460028F9
:1031E00053D090F8292012F0100F50D190F82920D8
:1031F000D2B2012A01D001207047026833498A42C5
:1032000020D004318A4220D008318A420CBF4FF0CE
:1032100080420122596A11F0300F43D011F0100F93
:1032200024D012F0010F13D02948816A1143816222
:10323000596A11F0200F2CD12548C16A21EA0201F8
:10324000C1622AE04FF40012E4E74FF48002E1E7A4
:103250001F48816811438160596A11F0200F2BD1FA
:103260001B48C16821EA0201C16029E012F0010F88
:1032700005D01748816A21EA02018162D8E7144823
:10328000816821EA02018160E6E7012070470120A0
:1032900070470F48C16A1143C1620D49486A104323
:1032A00048624A6319680A6842F001020A60022211
:1032B00083F82920002070470548C1681143C16088
:1032C00003494868104348604A61EBE71C0001402D
:1032D000000401400368186800F080407047000057
:1032E000074AD36823F4E0631B041B0C43F0BF635D
:1032F00043F40033000200F4E0600343D3607047FE
:1033000000ED00E030B4154BDC68C4F30224C4F1D6
:103310000703042B28BF0423251D062D8CBFE51EA3
:103320000025012404FA03F3013B1940A940AC40F5
:10333000013C22401143002809DB0901C9B200F118
:10334000604000F5614080F8001330BC704700F029
:103350000F000901C9B2024B1954F6E700ED00E075
:1033600014ED00E0420900F01F00012303FA00F011
:10337000014B43F82200704700E100E00138B0F152
:10338000807F0AD2064B5860F021064A82F823104B
:103390000020986007221A6070470120704700BF24
:1033A00010E000E000ED00E00428044A13680CBFC0
:1033B00043F0040323F004031360704710E000E0BF
:1033C00002680C4B9A420AD90B4B13440B4AA2FBDE
:1033D00003231B099B000364094BC3637047094B1C
:1033E0001344064AA2FB03231B099B000364064BFC
:1033F000C363704707040240F8FBFDBFCDCCCCCCC3
:1034000000040240F8FFFDBF0000024040B310B5C9
:103410000446022380F8213001680A6822F47F52B2
:1034200022F03002436880680343E0680343206968
:10343000034360690343A0690343E0690343134303
:103440000B602046FFF7BCFF0020A062E062206313
:103450006063A063012384F8213084F8200010BD4C
:103460000120704770B490F82040012C42D0012414
:1034700080F8204090F82140012C05D0002380F8EE
:103480002030022070BC7047022480F821400024C4
:10349000846305682C6824F001042C60C56B066CFD
:1034A0000124B4406C60046863604368102B11D041
:1034B000036899600368DA60C36A83B102681368BD
:1034C00043F00E0313600268136843F001031360B6
:1034D0000020D7E703689A600368D960ECE70268C8
:1034E000136843F00A0313600268136823F00403AF
:1034F0001360E8E70220C5E7034601680A6822F086
:103500000E020A6001680A6822F001020A60C06BBC
:1035100001211A6C01FA02F2426083F821100020A6
:1035200083F82000704708B590F82130022B03D0B3
:1035300004238363012008BD0268136823F00E038F
:1035400013600268136823F001031360C16B01224A
:10355000036C02FA03F34B6080F82120002380F80B
:103560002030436B13B19847002008BD002008BDF0
:1035700038B5C36B1A6804682568016C04238B4056
:10358000134214D015F0040F11D0236813F0200F4C
:1035900003D1236823F004032360C26B016C04236E
:1035A0008B405360C36A002B3AD0984738BD022342
:1035B0008B40134219D015F0020F16D0236813F078
:1035C000200F06D1236823F00A032360012380F82B
:1035D0002130C26B016C02238B405360002380F8C2
:1035E0002030836AE3B1984738BD082303FA01F11C
:1035F000114215D015F0080F12D0236823F00E03E6
:103600002360C16B0123026C03FA02F24A608363F8
:1036100080F82130002380F82030036B03B19847F5
:1036200038BD00002DE9F04F83B00C68002C00F08D
:10363000C68000264FF0010EDFF890C1614FDFF821
:103640009091DFF890A154E0F20800EB8202146A36
:1036500006F007034FEA830B0F2303FA0BF324EA68
:1036600003040B6903FA0BF3234313624BE08268F4
:1036700003EA020BCA68A24042EA0B028260426877
:1036800022EA050B4A68C2F30015B54045EA0B056E
:1036900045604CE00022A2402A439A603B686FEAF2
:1036A00008044A6812F4803F0CBF234048EA030331
:1036B0003B607A684B6813F4003F0CBF224048EA35
:1036C00002027A60BA684B6813F4801F0CBF224074
:1036D00048EA0202BA60FB684A6812F4001F0CBF95
:1036E000234048EA0303FB6001360C6834FA06F312
:1036F00065D00EFA06F515EA0408F5D04B6823F0FC
:103700001003022BA0D0026874000323A340DB4304
:1037100002EA030B4A6802F00302A24042EA0B02EB
:1037200002604A6822F01002013A012A9FD9C26859
:1037300013408A6802FA04F41C43C4604B6813F017
:10374000805FD1D0DCF8183043F00103CCF818309A
:10375000DCF8183003F001030193019B26F003030A
:1037600003F1804303F580339D6806F00302940063
:103770000F22A24025EA0205B0F1904F8AD04845B9
:1037800013D0504513D0104A904212D002F58062F7
:10379000904210D002F5806290420ED002F5806215
:1037A00090420CBF0622072275E7724673E7022299
:1037B00071E703226FE704226DE705226BE703B090
:1037C000BDE8F08F00040140000C004800100240EA
:1037D00000040048000800480369194214BF012092
:1037E000002070470AB981627047816170470028E4
:1037F00055D010B5044690F84130002B45D0242315
:1038000084F841302268136823F0010313602268B2
:10381000636823F0706313612268936823F40043A4
:103820009360E368012B2268A3680CBF43F4004354
:1038300043F404439360E368022B2BD0226853685F
:1038400043F0007343F4004353602268D36823F4C9
:103850000043D3602268236961690B43A16943EA8D
:103860000123D3602268E369216A0B431360226855
:10387000136843F00103136000206064202384F880
:103880004130206384F8420010BD80F8403005F0DC
:103890003DF9B4E723684FF400625A60CEE7012097
:1038A000704790F84130DBB2202B01D002207047E6
:1038B00090F84030012B20D0012380F840302423A1
:1038C00080F841300268136823F001031360026836
:1038D000136823F48053136002681368194311605E
:1038E0000268136843F001031360202380F841301D
:1038F000002380F84030184670470220704790F847
:103900004130DBB2202B01D00220704790F84030CC
:10391000012B1ED0012380F84030242380F8413051
:103920000268136823F0010313600268136823F42C
:10393000706343EA012111600268136843F00103D8
:103940001360202380F84130002380F8403018466F
:1039500070470220704730B338B5044603684CF610
:10396000CC421A60036845F255521A6003684268F7
:103970005A60036882689A60FEF7ECF9054623688E
:10398000DA6832B1FEF7E6F9401B3028F7D9032098
:1039900038BD1969E268914212BF1A614AF6AA223B
:1039A0001A60002038BD0120704703684AF6AA2239
:1039B0001A60002070470000024A136843F48073C5
:1039C00013607047007000402DE9F04383B0044657
:1039D000036813F0010F5DD0B14B5B6803F00C037B
:1039E000042B40D0AE4B5B6803F00C03082B33D0A4
:1039F0006368B3F5803F00F08880002B40F08B8037
:103A000003F1804303F504331A6822F480321A600C
:103A10001A6822F480221A606368002B00F09580F7
:103A2000FEF798F980464FF400359D4F012695FA30
:103A3000A5F33A6895FAA5F3B3FA83F303F01F03ED
:103A400006FA03F3134225D1FEF784F9A0EB080030
:103A50006428ECD90320A4E2914B5B6803F4C033E3
:103A6000B3F5803FC4D14FF4003393FAA3F38C4BEA
:103A700019684FF4003393FAA3F3B3FA83F303F016
:103A80001F03012202FA03F30B4203D06368002BE9
:103A900000F08082236813F0020F00F09C80804BBE
:103AA0005B6813F00C0F73D07D4B5B6803F00C0365
:103AB000082B66D0E368002B00F0CB80012292FA3D
:103AC000A2F3B3FA83F303F1845303F584139B0049
:103AD0001A60FEF73FF980460225714F012695FADC
:103AE000A5F33A6895FAA5F3B3FA83F303F01F033D
:103AF00006FA03F3134240F09E80FEF72BF9A0EB89
:103B000008000228EBD903204BE2654A136843F40E
:103B10008033136080E7B3F5A02F09D0604B1A689B
:103B200022F480321A601A6822F480221A6073E745
:103B300003F18043A3F53C331A6842F480221A60F3
:103B40001A6842F480321A6066E7FEF703F980468D
:103B50004FF40035524F012695FAA5F33A6895FACD
:103B6000A5F3B3FA83F303F01F0306FA03F313423A
:103B700090D0FEF7EFF8A0EB08006428ECD9032002
:103B80000FE2474B5B6803F4C033B3F5004F91D1AC
:103B9000022393FAA3F3424B1968022393FAA3F387
:103BA000B3FA83F303F01F03012202FA03F30B427B
:103BB00004D0E368934201D00120F2E13848016863
:103BC000F82393FAA3F3B3FA83F22369934021F025
:103BD000F80213430360236813F0080F00F08D8090
:103BE0006369002B60D0012191FAA1F2B2FA82F24E
:103BF0002C4B13449B001960FEF7ACF8804602255D
:103C0000274F012695FAA5F395FAA5F395FAA5F3A2
:103C10007A6A95FAA5F3B3FA83F303F01F0306FA61
:103C200003F3134269D1FEF795F8A0EB08000228D0
:103C3000E8D90320B5E11A480168F82393FAA3F301
:103C4000B3FA83F22369934021F0F802134303602F
:103C5000C1E7012393FAA3F3B3FA83F303F1845387
:103C600003F584139B0000221A60FEF773F8804668
:103C700002250B4F012695FAA5F33A6895FAA5F3AC
:103C8000B3FA83F303F01F0306FA03F31342A2D03F
:103C9000FEF760F8A0EB08000228ECD9032080E1D1
:103CA0000010024020819010012292FAA2F2B2FA92
:103CB00082F2BE4B13449B0000221A60FEF74AF8C2
:103CC00080460225BA4F012695FAA5F395FAA5F389
:103CD00095FAA5F37A6A95FAA5F3B3FA83F303F09C
:103CE0001F0306FA03F3134207D0FEF733F8A0EBE5
:103CF00008000228E8D9032053E1236813F0040FD9
:103D000000F0A980AA4BDB6913F0805F0CD1A84BAF
:103D1000DA6942F08052DA61DB6903F08053019383
:103D2000019B4FF0010901E04FF00009A14B1B6816
:103D300013F4807F19D0A368012B2AD07BBB03F139
:103D4000804303F504331A6A22F001021A621A6AE8
:103D500022F004021A62A368002B54D0FDF7FAFF88
:103D600080460225924F012643E0924A136843F4AD
:103D700080731360FDF7EEFF06468E4D2B6813F43B
:103D8000807FD8D1FDF7E6FF801B6428F6D9032099
:103D900007E1874A136A43F001031362DBE7052B4F
:103DA00009D0834B1A6A22F001021A621A6A22F0C1
:103DB00004021A62CFE77E4B1A6A42F004021A62CA
:103DC0001A6A42F001021A62C5E73A6A95FAA5F347
:103DD000B3FA83F303F01F0306FA03F3134237D158
:103DE000FDF7B8FFA0EB080041F28833984200F2DB
:103DF000D38095FAA5F395FAA5F3002BE5D195FAB2
:103E0000A5F37A6AE2E7FDF7A5FF80460225684F31
:103E1000012613E03A6A95FAA5F3B3FA83F303F0A7
:103E20001F0306FA03F3134212D0FDF793FFA0EB32
:103E3000080041F28833984200F2B08095FAA5F369
:103E400095FAA5F3002BE5D195FAA5F37A6AE2E796
:103E5000B9F1000F34D1A369002B00F0A180544ABE
:103E6000526802F00C02082A00F09E80022B2DD02E
:103E70004FF0807393FAA3F3B3FA83F303F18453FF
:103E800003F584139B0000221A60FDF763FF0746C9
:103E90004FF00074464E012594FAA4F3326894FA68
:103EA000A4F3B3FA83F303F01F0305FA03F31342F9
:103EB0006ED0FDF74FFFC01B0228EDD9032070E044
:103EC0003B4AD36923F08053D361C4E74FF080733A
:103ED00093FAA3F3B3FA83F303F1845303F5841342
:103EE0009B0000221A60FDF735FF80464FF00075F9
:103EF0002F4F012695FAA5F33A6895FAA5F3B3FA80
:103F000083F303F01F0306FA03F3134207D0FDF710
:103F100021FFA0EB08000228ECD9032041E0244A4D
:103F2000D36A23F00F03616A0B43D3625168236A9B
:103F3000E069034321F476110B4353604FF0807323
:103F400093FAA3F3B3FA83F303F1845303F58413D1
:103F50009B0001221A60FDF7FDFE07464FF000743A
:103F6000134E012594FAA4F3326894FAA4F3B3FA39
:103F700083F303F01F0305FA03F3134206D1FDF7A1
:103F8000E9FEC01B0228EDD903200AE0002008E06A
:103F9000002006E0012004E0032002E0032000E00E
:103FA000002003B0BDE8F0830120FAE720819010E3
:103FB0000010024000700040124B5B6803F00C02DE
:103FC000082A1DD14FF4701292FAA2F2B2FA82F2CC
:103FD00003F4701121FA02F20B49885C094AD26A93
:103FE0000F2191FAA1F1B1FA81F102F00F02CA405A
:103FF00006498A5C064BB3FBF2F300FB03F0704703
:104000000348704700100240C44E0308D44E030812
:1040100000127A00754B1B6803F007038B420CD229
:10402000724A136823F007030B431360136803F00D
:104030000703994201D0012070472DE9F041036840
:1040400013F0020F06D06A4A536823F0F003846825
:10405000234353600C460546036813F0010F7FD0DD
:104060004268012A30D0022A44D0022393FAA3F3F3
:104070005F4B1868022393FAA3F3B3FA83F303F0B8
:104080001F03012101FA03F3034200F0AB805849FA
:104090004B6823F0030313434B60FDF75BFE0646BA
:1040A0006B68012B3CD0022B4AD0514F41F288382B
:1040B0007B6813F00C0F53D0FDF74CFE801B40457E
:1040C000F6D90320BDE8F0814FF4003393FAA3F34F
:1040D000474B18684FF4003393FAA3F3B3FA83F312
:1040E00003F01F03012101FA03F30342CFD10120A2
:1040F000BDE8F0814FF0007393FAA3F33C4B1868CE
:104100004FF0007393FAA3F3B3FA83F303F01F03A2
:10411000012101FA03F30342B9D10120BDE8F08186
:10412000334F41F288387B6803F00C03042B17D01F
:10413000FDF710FE801B4045F5D90320BDE8F08156
:104140002B4F41F288387B6803F00C03082B07D013
:10415000FDF700FE801B4045F5D90320BDE8F08146
:10416000224B1B6803F007039C420DD21F4A1368C1
:1041700023F0070323431360136803F007039C42F3
:1041800002D00120BDE8F0812B6813F0040F06D0A7
:10419000174A536823F4E063E9680B4353602B68C4
:1041A00013F0080F07D0124A5368296923F46053AB
:1041B00043EAC1035360FFF7FFFE0D4B5B68F0223B
:1041C00092FAA2F2B2FA82F203F0F003D340094A63
:1041D000D35CD840084B18600F20FDF777FD002016
:1041E000BDE8F0810120BDE8F08100BF0020024061
:1041F00000100240604F03087C040020014B186847
:10420000704700BF7C040020084B5B684FF4E062FD
:1042100092FAA2F2B2FA82F203F4E063D340044AC3
:10422000D35C044A1068D840704700BF00100240B9
:10423000704F03087C040020084B5B684FF4605209
:1042400092FAA2F2B2FA82F203F46053D340044A23
:10425000D35C044A1068D840704700BF0010024089
:10426000704F03087C0400202DE9F04383B004461E
:10427000036813F4803F48D0A74BDB6913F0805FDD
:1042800040F00281A44BDA6942F08052DA61DB69C6
:1042900003F080530193019B0126A04B1B6813F48C
:1042A000807F00F0F3809C4B1B6A13F4407322D094
:1042B000626802F4407293421DD09748016A21F46B
:1042C00040754FF4803393FAA3F2B2FA82F2944F1E
:1042D0003A4492004FF0010EC2F800E093FAA3F3C3
:1042E000B3FA83F33B449B0000221A60056211F08D
:1042F000010F40F0E080884A136A23F4407361683C
:104300000B431362002E40F0FE80236813F0010F70
:1043100006D0814A136B23F00303A1680B43136398
:10432000236813F0020F06D07B4A136B23F440334B
:10433000E1680B431363236813F0040F06D0764A39
:10434000136B23F4402321690B431363236813F099
:10435000200F06D0704A136B23F01003E1690B4362
:104360001363236813F4003F06D06B4A536823F4A9
:104370008003A16C0B435360236813F0400F06D0F9
:10438000654A136B23F02003216A0B4313632368F0
:1043900013F4802F06D0604A136B23F04003616A48
:1043A0000B431363236813F0080F06D05A4A136BAC
:1043B00023F4401361690B431363236813F0100F58
:1043C00006D0554A136B23F44003A1690B431363D2
:1043D000236813F4007F06D04F4A536823F4000388
:1043E000E16A0B435360236813F0800F06D04A4AFA
:1043F000D36A23F4F873A16A0B43D362236813F4DE
:10440000805F06D0444A136B23F48073216B0B4307
:104410001363236813F4801F06D03F4A136B23F005
:104420008073616B0B431363236813F4001F06D082
:10443000394A136B23F00073A16B0B43136323689A
:1044400013F4800F06D0344A136B23F48063E16BBE
:104450000B431363236813F4000F06D02E4A136B2B
:1044600023F40063216C0B431363236813F0807FF4
:1044700050D0294A136B23F40053616C0B43136330
:10448000002003B0BDE8F083002606E7234A136846
:1044900043F480731360FDF75DFC07461F4D2B68E6
:1044A00013F4807F7FF4FFAEFDF754FCC01B64283B
:1044B000F5D90320E5E7FDF74DFC81460225DFF83D
:1044C0005880012714E0D8F8202095FAA5F3B3FA14
:1044D00083F303F01F0307FA03F313427FF40BAFD8
:1044E000FDF738FCA0EB090041F2883398420FD861
:1044F00095FAA5F395FAA5F3002BE4D195FAA5F367
:10450000D8F82420E1E7D36923F08053D361FCE697
:104510000320B6E70020B4E700100240007000401E
:1045200000819010F8B507460E4615461C463A68BD
:10453000936836EA03030CBF012300239D4236D063
:10454000B4F1FF3FF4D02CB1FDF704FC069BC01A78
:104550008442ECD83A68536823F0E00353607B68E8
:10456000B3F5827F0BD0BB6AB3F5005F14D0012393
:1045700087F85D30002387F85C300320F8BDBB6806
:10458000B3F5004F02D0B3F5806FECD13A681368F1
:1045900023F040031360E6E73A68136823F40053FE
:1045A00013603A68136843F400531360DFE7002098
:1045B000F8BDF0B583B007460C4615461E463A686E
:1045C00002E0B6F1FF3F0FD193682340AB423FD0EA
:1045D000B4F5C06FF5D1002DF3D1137BDBB28DF8AC
:1045E00007309DF80730ECE72EB1FDF7B3FB089BD1
:1045F000C01A8642E3D83A68536823F0E003536058
:104600007B68B3F5827F0BD0BB6AB3F5005F14D033
:10461000012387F85D30002387F85C30032018E021
:10462000BB68B3F5004F02D0B3F5806FECD13A68A8
:10463000136823F040031360E6E73A68136823F435
:10464000005313603A68136843F400531360DFE7C4
:10465000002003B0F0BD70B582B004460D4616468A
:1046600000920B4600224FF4C051FFF7A2FF38B171
:10467000236E43F0200323660323184602B070BD67
:1046800000962B46002280212046FFF74BFF28B1E1
:10469000236E43F0200323660323EEE700962B46A8
:1046A00000224FF4C0612046FFF783FF0346002835
:1046B000E3D0236E43F0200323660323DDE770B5C8
:1046C00082B004460D4616464368B3F5827F10D08B
:1046D00000962B46002280212046FFF723FF034649
:1046E000A0B1236E43F0200323660323184602B0D3
:1046F00070BD8368B3F5004F02D0B3F5806FE7D18A
:104700002268136823F040031360E1E76268B2F5A2
:10471000827FEBD1A268B2F5004F02D0B2F5806F74
:10472000E4D100962B4600224FF4C0612046FFF7EB
:1047300040FF03460028D9D0236E43F020032366B0
:104740000323D3E7002857D010B504460023836223
:1047500090F85D30BBB1022384F85D3022681368A5
:1047600023F040031360E368B3F5E06F46D8B3F578
:10477000706F52D0B3F5E06F0AD1236B002B38D0A5
:104780004FF480510BE080F85C3004F0F1FAE2E77E
:104790004FF4805136E04FF48051022323632268A6
:1047A0006368A06803432069034360690343E069C9
:1047B0000343206A0343A06A0343A06900F4007026
:1047C000034313602268636A606B0343E06803433A
:1047D000608B00F0040003430B4353602268D369ED
:1047E00023F40063D36100202066012384F85D3048
:1047F00010BD4FF480510DE001207047B3F5706F8C
:1048000011D000210022A262226B002AC7D1B3F589
:10481000E06FC2D801232363C1E7236B002BBAD01A
:104820004FF48051BBE7216B0029B6D00021B6E7D9
:1048300090F85C30012B7FD010B50446012380F83E
:104840005C3090F85D30DBB2012B04D002200023F5
:1048500084F85C3010BD00296AD0002A6AD0032396
:1048600080F85D300023036681638287C28703641A
:104870000365C364A0F84430A0F846308368B3F5FC
:10488000004F36D0636D2D4ADA62636D2C4A9A620E
:10489000636D2C4A1A63636D00225A632268536861
:1048A00023F480435360E368B3F5E06F04D8636D8D
:1048B0005B69B3F5806F22D0E38F22689BB20C3224
:1048C000A16B606DFEF7CEFD23681A6812F0400FF1
:1048D00003D11A6842F040021A602268536843F01C
:1048E000200353602268536843F0020353600020A2
:1048F000ADE70268136843F480431360C2E7E38FB7
:1049000013F0010F09D12268536823F480435360E8
:10491000E38FC3F34E03E387CEE72268536843F483
:1049200080435360E38FC3F34E030133E387C3E750
:1049300001208CE701208AE702207047954C00088F
:10494000DB4C0008B94C000838B590F85C40012CED
:1049500000F0E4800446012084F85C0094F85D00D7
:10496000C0B2012810D06568B5F5827F04D002205E
:10497000002384F85C3038BDA568002D40F0C68067
:10498000042801D00220F3E7002900F0C180002AAA
:1049900000F0C080002B00F0BF8094F85D00C0B232
:1049A00004281CBF052084F85D0000202066A16358
:1049B000A387E3872264A4F84430A4F84630E06477
:1049C00020652268536823F4C0435360E368B3F55D
:1049D000E06F49D92268536823F48053536094F8F8
:1049E0005D30DBB2042B00F08A80A36D4C4ADA62A2
:1049F000A36D4C4A9A62A36D4B4A1A63A36D0025BE
:104A00005D63B4F8463021689BB2226C0C31A06D16
:104A1000FEF728FD2268536843F001035360636D7D
:104A2000DD62636D9D62636D1D63636D5D63E38F26
:104A300022689BB20C32A16B606DFEF713FD2368F8
:104A40001A6812F0400F03D11A6842F040021A604F
:104A50002268536843F0200353602268536843F090
:104A600002035360002083E72268536843F48053B5
:104A70005360636D5B69B3F5806F1AD0A36D5B699A
:104A8000B3F5806FABD12268536823F48053536031
:104A9000B4F8463013F0010F24D12268536823F490
:104AA00000535360B4F84630C3F34E03A4F84630C5
:104AB00095E7A38F13F0010F09D12268536823F4FF
:104AC00080435360E38FC3F34E03E387D6E7226846
:104AD000536843F480435360E38FC3F34E030133C1
:104AE000E387CBE72268536843F400535360B4F87C
:104AF0004630C3F34E030133A4F846306FE7A36D8D
:104B00000A4ADA62A36D0A4A9A6274E702202FE722
:104B100001202DE701202BE7012029E7022038BDE5
:104B2000AD4C0008A34D0008B94C0008A14C00088A
:104B30004B4D000838B5044685681DB94368B3F588
:104B4000827F11D094F85C00012800F09980012345
:104B500084F85C3094F85D00C0B298420CD002201A
:104B6000002384F85C3038BD042380F85D301346A0
:104B70000A46FFF7E9FE38BD00297DD0002A7DD026
:104B8000042384F85D30002323662164A4F84420C4
:104B9000A4F84620E3642365A387E387B5F5004FB7
:104BA00037D02268536823F400535360E368B3F5A9
:104BB000E06F34D92268536823F480535360A36DA7
:104BC000304ADA62A36D304A9A62A36D2F4A1A63A3
:104BD000A36D00225A63B4F8463021689BB2226C60
:104BE0000C31A06DFEF73EFC23681A6812F0400FEE
:104BF00003D11A6842F040021A602268536843F0F9
:104C0000200353602268536843F00103536000207F
:104C1000A6E72268136823F480431360C1E7226883
:104C2000536843F480535360A36D5B69B3F5806FA1
:104C3000C5D12268536823F480535360B4F84630DA
:104C400013F0010F0BD12268536823F40053536013
:104C5000B4F84630C3F34E03A4F84630AFE72268F9
:104C6000536843F400535360B4F84630C3F34E0323
:104C70000133A4F84630A2E7012071E701206FE775
:104C8000022038BDA14C00084B4D0008B94C00086B
:104C90007047704708B5406AFFF7FBFF08BD7047D3
:104CA00008B5406AFFF7FBFF08BD704708B5406ACA
:104CB000FFF7FBFF08BD704708B5406A02685368FC
:104CC00023F003035360036E43F0100303660123D4
:104CD00080F85D30FFF7EFFF08BD30B583B00546C3
:104CE000446AFDF737F82B681B6813F0200F23D1B7
:104CF0002268536823F0200353602268536823F02E
:104D000002035360024664212046FFF7A4FC18B159
:104D1000236E43F020032366A36833B9019323680D
:104D2000DA6801929B680193019B0023E3870123CA
:104D300084F85D30236E23B9204622F063FD03B072
:104D400030BD2046FFF7B7FFF9E738B50546446A9E
:104D5000FDF700F82B681B6813F0200F19D12268AB
:104D6000536823F0200353602268536823F0030341
:104D70005360024664212046FFF7A1FC08B12023BE
:104D800023660023A4F84630012384F85D30236EA7
:104D90001BB9204622F018FD38BD2046FFF78BFFD7
:104DA00038BD38B50546446AFCF7D4FF2B681B684C
:104DB00013F0200F1CD12268536823F020035360A6
:104DC000024664212046FFF746FC18B1236E43F0EB
:104DD000200323662268536823F0030353600023F3
:104DE000E387A4F84630012384F85D30236E1BB9B5
:104DF0002046FFF74DFF38BD2046FFF75CFF38BD6A
:104E0000022380F83D300268136843F00103136009
:104E1000012380F83D300020704770470368414A05
:104E200090422FD0B0F1804F22D0A2F59432904220
:104E300019D002F5806290421FD002F59C32904258
:104E40005DD002F5806290423DD002F580629042D2
:104E500047D023F080034A69134303608B68C36221
:104E60000B6883625AE023F070034A6813430DE035
:104E700023F070034A68134308E023F070034A6884
:104E8000134303E023F070034A68134323F4407391
:104E9000CA68134323F080034A69134303608B6895
:104EA000C3620B6883621F4B984235D003F5A05351
:104EB000984231D003F5806398422DD003F580638A
:104EC00098422BD128E023F44073CA68134323F09F
:104ED00080034A69134303608B68C3620B68836273
:104EE0001AE023F44073CA68134323F080034A692D
:104EF000134303608B68C3620B6883620CE023F486
:104F00004073CA68134323F080034A691343036064
:104F10008B68C3620B6883620B690363012343617F
:104F2000704700BF002C0140A8B110B5044690F8AE
:104F30003D305BB1022384F83D30211D2068FFF72E
:104F40006DFF012384F83D30002010BD80F83C3017
:104F500004F0A8F9EEE701207047A8B110B50446A7
:104F600090F83D305BB1022384F83D30211D20686C
:104F7000FFF754FF012384F83D30002010BD80F876
:104F80003C30FFF74AFFEEE701207047A8B110B5AB
:104F9000044690F83D305BB1022384F83D30211D7A
:104FA0002068FFF73BFF012384F83D30002010BD4F
:104FB00080F83C3004F0CCF9EEE7012070470000A7
:104FC00070B4036A23F001030362036A44688269D0
:104FD00022F4803222F073020D682A4323F0020388
:104FE0008D682B431B4DA84212D005F5A055A84251
:104FF0001BD005F58065A8421ED005F58065A84246
:1050000021D0446082614A684263036270BC704789
:1050100023F00803CD682B4323F0040324F44074E9
:105020004D698E6935432C43EBE723F00803CD68C7
:105030002B4323F00403F1E723F00803CD682B434F
:1050400023F00403EAE723F00803CD682B4323F0A1
:105050000403E3E7002C014070B4036A23F010035B
:105060000362036A4468826922F0807222F4E64295
:105070000D6842EA052223F020038D6843EA0513F8
:10508000114DA8420AD0114DA8420ED0104DA84291
:105090000BD005F58065A8420ED106E023F0800311
:1050A000CD6843EA051323F0400324F440644D69BE
:1050B0008E69354344EA8504446082614A688263AC
:1050C000036270BC704700BF002C014000400140EB
:1050D0000044014070B4036A23F480730362036ADE
:1050E0004468C26922F4803222F073020D682A43B8
:1050F00023F400738D6843EA0523114DA8420AD0BA
:10510000104DA8420ED0104DA8420BD005F5806579
:10511000A8420ED106E023F40063CD6843EA0523DC
:1051200023F4806324F440544D698E69354344EA86
:1051300005144460C2614A68C263036270BC704770
:10514000002C0140004001400044014030B4036A9B
:1051500023F480530362026A4468C36923F08073B6
:1051600023F4E6430D6843EA052322F400528D68D8
:1051700042EA05320D4DA8420BD005F5A055A842D4
:1051800007D005F58065A84203D005F58065A842E3
:1051900004D124F480444D6944EA85144460C36119
:1051A0004B680364026230BC704700BF002C0140B2
:1051B00010B4846824F47F440A4342EA032323435F
:1051C00083605DF8044B704790F83C30012B00F091
:1051D000C08070B50446012380F83C30022380F87B
:1051E0003D30026890685C4B034093600B68402B35
:1051F00000F0858021D9702B57D036D8502B64D041
:10520000602B4BD123684D68CE68186A20F01000DF
:10521000186299691A6A21F4704141EA063122F054
:10522000A00242EA051299611A622268936823F08B
:10523000700343F06703936030E0102B79D00BD9F3
:10524000202B7ED0302B29D12268936823F0700365
:1052500043F03703936021E003BB2268936823F097
:10526000700343F00703936018E0B3F5805F0ED03E
:10527000B3F5005F12D1CB684A6889682068FFF7F0
:1052800097FF2268936843F48043936006E02268A6
:10529000936823F4803323F007039360012384F899
:1052A0003D30002084F83C0070BDCB684A688968B6
:1052B0002068FFF77DFF2268936823F4803323F092
:1052C000770343F077039360E8E723684868CE6884
:1052D000196A1D6A25F001051D629A6922F0F00223
:1052E00042EA061221F00A0101439A61196222681A
:1052F000936823F0700343F057039360CEE723686D
:105300004868CE68196A1D6A25F001051D629A6910
:1053100022F0F00242EA061221F00A0101439A61EA
:1053200019622268936823F0700343F04703936087
:10533000B4E72268936823F0700343F01703936087
:10534000ACE72268936823F0700343F0270393606F
:10535000A4E70220704700BF8800FEFF38B502684E
:10536000936823F070034C68234323F4803323F0C5
:1053700007030C68234393604B68502B1FD00AD956
:10538000602B2FD0702B40D10B698A68C9680068E8
:10539000FFF70EFF38BD402B10D103681C6A1A6A54
:1053A00022F001021A620268936923F0F00309698E
:1053B00043EA0113936103681C6238BD38BD03687A
:1053C00088680D69196A1C6A24F001041C629A69D4
:1053D00022F0F00242EA051221F00A0101439A612B
:1053E000196238BD03688C680D69186A20F01000D6
:1053F000186299691A6A21F4704141EA053122F074
:10540000A00242EA041299611A6238BD38B590F8D8
:105410003C30012B01D1022038BD0446012580F823
:105420003C50022380F83D30FFF798FF2268D36894
:1054300023F04003D3602268D36823F48043D36011
:1054400084F83D50002084F83C0038BD10B4036A55
:1054500001248C4023EA04030362036A8A401A434E
:1054600002625DF8044B704710B5044601220068E3
:10547000FFF7ECFF23680D4A93420BD002F5A052D0
:10548000934207D002F58062934203D002F5806216
:10549000934203D15A6C42F400425A642268136862
:1054A00043F001031360002010BD00BF002C014039
:1054B00010B5044600220068FFF7C8FF2368194AA8
:1054C00093421FD002F5A05293421BD002F5806296
:1054D000934217D002F58062934213D02368196A71
:1054E00041F21112114208D1196A40F244421142AC
:1054F00003D11A6822F001021A60012384F83D30BA
:10550000002010BD196A41F211121142E6D1196A48
:1055100040F244421142E1D15A6C22F400425A64F2
:10552000DCE700BF002C014030B4036A23F4803371
:105530000362026A4468436D23F4803323F07003EE
:105540000D682B4322F400328D6842EA05420D4D6E
:10555000A8420BD005F5A055A84207D005F58065F7
:10556000A84203D005F58065A84204D124F4803414
:105570004D6944EA0524446043654B6883650262D3
:1055800030BC7047002C014030B4036A23F4801310
:105590000362026A4468436D23F0807323F4E0439E
:1055A0000D6843EA052322F400128D6842EA055291
:1055B0000D4DA8420BD005F5A055A84207D005F522
:1055C0008065A84203D005F58065A84204D124F483
:1055D00080244D6944EA8524446043654B68C36573
:1055E000026230BC704700BF002C014090F83C3094
:1055F000012B34D010B50446012380F83C3002233F
:1056000080F83D30142A0FD8DFE802F00B0E0E0EA2
:10561000150E0E0E190E0E0E1D0E0E0E210E0E0E76
:1056200025000068FFF7CCFC012384F83D30002002
:1056300084F83C0010BD0068FFF70EFDF4E7006839
:10564000FFF748FDF0E70068FFF780FDECE7006832
:10565000FFF76AFFE8E70068FFF796FFE4E702203C
:10566000704738B590F83C30012B00F092800D4621
:105670000446012380F83C30022380F83D30142A90
:105680001ED8DFE802F00B1D1D1D241D1D1D381D39
:105690001D1D4B1D1D1D5F1D1D1D72000068FFF7A8
:1056A0008FFC2268936943F0080393612268936931
:1056B00023F0040393612268936929690B43936182
:1056C000012384F83D30002084F83C0038BD006898
:1056D000FFF7C2FC2268936943F400639361226878
:1056E000936923F48063936122689369296943EA8B
:1056F00001239361E4E70068FFF7ECFC2268D369BB
:1057000043F00803D3612268D36923F00403D36113
:105710002268D36929690B43D361D1E70068FFF799
:1057200015FD2268D36943F40063D3612268D3690D
:1057300023F48063D3612268D369296943EA012392
:10574000D361BDE70068FFF7EFFE2268536D43F0B9
:10575000080353652268536D23F0040353652268E0
:10576000536D29690B435365AAE70068FFF70CFFE7
:105770002268536D43F4006353652268536D23F42C
:10578000806353652268536D296943EA0123536599
:1057900096E7022038BD000090F83C30012B1FD066
:1057A00030B4012380F83C3004686368A2680D4D72
:1057B000AC4210D023F070030D682B4322F080021E
:1057C00089680A43636003689A60002380F83C306C
:1057D000184630BC704723F470034D682B43E9E74B
:1057E00002207047002C014090F83C30012B3BD048
:1057F00010B4012380F83C30CB6823F440738A68EE
:10580000134323F480634A68134323F400630A6854
:10581000134323F480530A69134323F400534A6962
:1058200013438A6A23F44043134323F470238A69A1
:1058300043EA024302680D4CA24207D0536400239E
:1058400080F83C3018465DF8044B704723F4700331
:105850004C6A43EA045323F08073CC69234323F05A
:105860000073096A0B43E9E702207047002C0140EE
:105870000268136823F4907313600268936823F03E
:1058800001039360202380F86A30704790F86A30F3
:10589000DBB2202B01D002207047002947D0002A1C
:1058A00047D090F86830012B45D0012380F868304C
:1058B0004165A0F85820A0F85A208368B3F5805FAE
:1058C00006D0A3B9036973B9FF23A0F85C3011E0D7
:1058D000036923B940F2FF13A0F85C300AE0FF230C
:1058E000A0F85C3006E07F23A0F85C3002E0B3F162
:1058F000805F12D00023C366222280F86A2080F8DD
:10590000683001688A6842F001028A6001680A68AA
:1059100042F490720A601846704703691BB97F23EE
:10592000A0F85C30E6E73F23A0F85C30E2E7012016
:1059300070470120704702207047000038B590F88A
:105940006940E4B2202C01D0022038BD002933D0B8
:10595000002A33D090F86830012B01D1022038BDE5
:1059600013460446012280F86820C164A0F8503034
:10597000A0F852300025C566212280F86920026E09
:105980000F499162026E0F49D162026E0E49116396
:10599000026E556302682832C16C006EFDF762FD2D
:1059A000236840221A6284F868502268936843F0A2
:1059B00080039360284638BD012038BD012038BDE2
:1059C000CD590008FF590008095A000808B5436A74
:1059D0000268126812F0200F0DD10022A3F85220A5
:1059E00019688A6822F080028A601A68136843F096
:1059F0004003136008BD184620F085FF08BD08B5B8
:105A0000406A20F085FF08BD10B5446A94F86930FB
:105A1000DBB2212B0CD094F86A30DBB2222B17D0EA
:105A2000E36E43F01003E366204620F07BFF10BDD9
:105A300023689A6812F0800FEDD00022A4F852205B
:105A40001A6822F0C0021A60202384F86930E2E765
:105A500023689B6813F0400FE2D00023A4F85A306B
:105A60002046FFF705FFDBE708B5406A0023A0F8F2
:105A70005A30A0F8523020F055FF08BD38B5044622
:105A800001680868A3682269134362691343E269E5
:105A90001343AE4A024013430B602268536823F459
:105AA0004053E1680B43536021688A68A369206A08
:105AB000034322F4306213438B602568A44B9D425C
:105AC0001AD0A44B9D4224D0A34B9D4245D0A34B5A
:105AD0009D425ED0A24B9D427FD0E369B3F5004F5B
